:020000040000fa
:10000000f87f0020018c000085980000899800008e
:1000100000000000000000000000000000000000e0
:1000200000000000000000000000000097670000d2
:10003000000000000000000097670000e57100006c
:1000400097670000976700009767000097670000b8
:10005000c16f000097670000976700009767000076
:100060009767000097670000976700009767000098
:1000700097670000976700007d4a000097670000bf
:100080009767000097670000d16d00009767000038
:100090009767000000000000000000009767000064
:1000a0009767000097670000976700009767000058
:020000040000fa
:1000b000f8b5c046f8bc08bc9e467047e18b00000e
:1000c000f8b5c046f8bc08bc9e467047b98b000026
:020000040000fa
:0800d0002c7200000100000089
:020000040000fa
:1000d80070b582b06b469d1d2b0001224e21060093
:1000e80006f0fcf86b46dc1d01224d212300300090
:1000f80006f0f4f82a7821780020130703d40323a4
:100108001340022b01d002b070bd0120c908414044
:1001180001200840f7e7c046437802781b021343e2
:100128005bba0b807047c04600b583b06b46073397
:1001380019700122762106f017f903b000bdc046f8
:10014800f0b5d64646464f46c0b582b06b46dd1d73
:100158000123012298462b7076212b00070006f018
:1001680003f96b460400053301227a21380006f0b2
:10017800b5f86b460443063301227c21380006f0ab
:10018800adf8002304432b7001222b0076213800a0
:1001980006f0eaf8434601ae044333700122330007
:1001a8001121380006f0e0f8044306d0200002b020
:1001b8001cbc90469946a246f0bdfa20800005f086
:1001c800a1fd434601222b7076212b00380006f052
:1001d800cbf86b468146053301227a21380006f0b8
:1001e800c3f84b460343994601222b007621380079
:1001f8002c7006f0b9f84b460343994601223300a8
:100208002d21380006f06af84b4610220343994620
:10021800337892461a424ed0380006f027f8434603
:1002280001222b7076212b00380006f09df84b46f2
:10023800034399466b46012206337c21380006f0b9
:1002480093f84b4603439946012233007b2138003b
:1002580006f044f84b4606220343994633787b213f
:10026800934302221343337001223300380006f00f
:100278007bf84b460343994601222b007621380030
:100288002c7006f071f84c463300044301224c21cf
:10029800380006f023f85246337804431a40130016
:1002a800064abb543b7e022b00d07fe7fb68380030
:1002b800984704437ae70c24644277e7680800000b
:1002c80010b50b000122752106f008f810bdc046d4
:1002d800f0b583b06b46dc1d23000f0001224d21d1
:1002e800060005f0fbff23780500002f0bd108223c
:1002f80093432370012223004d21300006f034f887
:10030800284303b0f0bd08221343f2e7f0b5454691
:10031800de4657464e46e0b583b06b465e1d330059
:1003280001224e210400032705f0d8ff3378050089
:1003380098461f40022f01d01b0755d50023994628
:1003480001ab9a46534601225221200005f0c6ff10
:1003580053461a780f2313406c4a0543a25c522176
:1003680013435246200013705346012205f0fcff48
:100378003300054301224e21200005f0afff032280
:100388003378054393430222134333700122330029
:100398004e21200005f0e8ff0543c82005f0b2fc17
:1003a800022f00d181e043461b0708d44b46c82bd7
:1003b80000d98ae000212000fff78aff0543544b4b
:1003c800e358072b43d80022514be250002f03d1aa
:1003d800504be35c002b6fd1280003b03cbc904627
:1003e8009946a246ab46f0bd06236b4499460122c6
:1003f8005021200005f072ff4b461a780f23134056
:10040800013b05430e2b54d8434a9b009b58994601
:1004180008212000fff75cff434605431b0700d077
:100428008ee73c4b01aae35c9246002b52d107238e
:100438006b449b4601224c21200005f04fff5b4690
:100448001a7810231340354a0543a3547ae76b46bc
:100458009e1d502133000122200005f03fff0f238d
:10046800994632780543134098460e3b591e8b41f6
:1004780049460d338a43134341310122337020002a
:10048800330005f071ff0543c82005f03bfc4a46e0
:10049800337850219343424613433370012233008b
:1004a800200005f061ff05438de70022184be2505c
:1004b80092e71b4b9946abe705f020fc86231b010e
:1004c8009c4664442060616086e74846c83805f069
:1004d80019fc6fe713005f210122200005f0fefee2
:1004e80053461a780323514613430b700d4b0543ab
:1004f800e35c002b02d013231a430a7053460122ef
:100508005f21200005f030ff054390e772080000e6
:100518006c0800006a0800003889000068080000bc
:1005280000c4090069080000f0b54746ce4680b50a
:1005380083b06b469d1d2b0001224e21040005f05f
:10054800cdfe052203262b786a4407001e409046fc
:10055800022e4ed01b0738d04346012252212000dc
:1005680005f0bcfe43461a780f231340464a07435a
:10057800a25c5221134342462000137043460122d5
:1005880005f0f2fe2b00074301224e21200005f062
:10059800a5fe03222b780743934313432b700122b4
:1005a8002b004e21200005f0dffe0743c82005f090
:1005b800a9fb002e03d1354be35c002b3bd138005f
:1005c80003b00cbc90469946f0bd304be35c002b61
:1005d8003ad107236b44994601224c21200005f0ab
:1005e8007dfe4b461a7810231340294a0743a3542b
:1005f800b2e71b07b0d407236b4498460122502169
:10060800200005f06bfe43461a780f231340013b88
:1006180007430e2b34d81f4a9b009b589846082145
:100628002000fff755fe0743404605f06bfb052306
:100638006b44984690e705f061fb86231b019c46b6
:10064800644420606160bae713005f210122200042
:1006580005f044fe43461a780323414613430b70c2
:100668000d4b0743e35c002b02d013231a430a7097
:10067800434601225f21200005f076fe0743a8e7e4
:10068800064b9846cbe7c046740800006a0800008d
:1006980068080000388900006908000000c40900e3
:1006a800f0b5ce4647466f4b80b5c418236883b073
:1006b8000600013300d176e005f020fb226863686c
:1006c800994252d9801a9941002900d1c2e06b465b
:1006d8009c1d230001224e21300005f0fffd0c2552
:1006e80003232278804615401340022b60d06b46c6
:1006f8005f1d130741d03b0001225221300005f055
:10070800edfd43460f22034398463b78522193431d
:10071800554a3000b25c13433b7001223b0005f0a0
:1007280023fe47462300074301224e21300005f0ef
:10073800d5fd0c22237807439343134323700122ea
:1007480023004e21300005f00ffe0743c82005f0b6
:10075800d9fa002d03d1454bf35c002b51d1380059
:1007680003b00cbc90469946f0bd994245d001248f
:100778000025644200196941a4e73c4bf35c002b57
:1007880047d1072301226b444c213000994605f0dc
:10079800a5fd4346034398464b461a781023134059
:1007a800334ab354a7e76368002b00d084e78ee789
:1007b8006b465f1d13079ed407236b44994601229d
:1007c8005021300005f08afd4b461a780f23474622
:1007d8001340013b07430e2b39d8264a9b009b58f0
:1007e800994608213000fff773fd0743484605f096
:1007f80089fa6b46b8465f1d7de7904200d961e7ec
:10080800b5e705f07bfa1c4b9c4666443060716086
:10081800a5e73b0001225f21300005f05ffd43465c
:100828000343984603233a7813433b70134bf35c16
:10083800002b02d013231a433a703b0001225f2198
:10084800300005f091fd43460343984699e70c4b69
:100858009946c6e70b4b984200d938e70a277f42ea
:100868007de7c04678080000750800006a080000a7
:10087800680800003889000058080000690800006e
:1008880000c40900f049020070b582b06b46dc1d57
:10089800230001225421060005f020fd02222378be
:1008a8000500934313432370012223005421300091
:1008b80005f05afd284302b070bdc04670b582b03d
:1008c8006b46dc1d230001225421060005f006fdbd
:1008d80002222378050093432370013a2300542110
:1008e800300005f041fd284302b070bdf0b583b07b
:1008f8006b46dc1d23000e0001225421070005f081
:10090800edfc08222378050093431e43073a230091
:1009180054213800267005f027fd284303b0f0bda8
:100928000023f0b5ce4647469946002380b583b0ec
:1009380001ad2b804b46ab706b46df1c04230c00cb
:100948003b7001223b007621804605f00dfd2b000f
:10095800060003224f21404605f0c0fc4b460643e3
:100968003b7001223b007621404605f0fdfc012347
:100978002a783043511119402170d1101940617003
:10098800911052101a40e2706a781940a170111142
:10099800194021715110194061719110d2101a40fb
:1009a800e271aa781940a1715111194021721111ef
:1009b80019406172d11019401340a172637303b0da
:1009c8000cbc90469946f0bd0023f0b5ce4647468c
:1009d8009946002380b583b001ad2b804b460c00af
:1009e800ab7002222b006521804605f077fc6b4630
:1009f800df1c042306003b7001223b0076214046a1
:100a080005f0b2fc6b460643063301224d214046f1
:100a180005f064fc4b4606433b7001223b007621ff
:100a2800404605f0a1fc01232a7830439111194072
:100a38002170d11019406170911052101a40e27063
:100a48006a781940a170d11019402171190011401c
:100a58006171511092101a40e271aa781940a1717f
:100a6800511119402172111119406172d1101940a8
:100a7800a17251101940e17291101940134021736d
:100a8800637303b00cbc90469946f0bd0023f0b5e3
:100a9800ce4647469946002380b583b001ad2b80ea
:100aa8004b460c00ab7002222b006821804605f0f3
:100ab80015fc6b46df1c042306003b7001223b003b
:100ac8007621404605f050fc6b460643063301226a
:100ad8004e21404605f002fc4b4606433b7001227e
:100ae8003b007621404605f03ffc01232a7830433d
:100af800911119402170d110194061709110521054
:100b08001a40e2706a781940a170d1101940217119
:100b1800190011406171511092101a40e271aa78bf
:100b28001940a171511119402172111119406172b6
:100b3800d1101940a17251101940e1729110194059
:100b480013402173637303b00cbc90469946f0bd03
:100b5800f0b5c646002300b582b001ad2b80ab705e
:100b68006b46de1c04230c0033700122330076210f
:100b7800804605f0f9fb2b00070003224f21404671
:100b880005f0acfb2e222b780743934322785bb207
:100b9800002a01d0202213436278002a01d00822bb
:100ba8001343a278002a01d004221343e278002ad2
:100bb80001d0022213431e222b706b7893432279b3
:100bc8005bb2002a01d0102213436279002a01d0b7
:100bd80002221343a279002a01d004221343e279a6
:100be800002a01d0082213436b703923217aa87890
:100bf8004a1e9141627a9843531e9a4113019c46ba
:100c0800a37a647b5a1e9341621e9441624640b2a5
:100c18002043490101430a43db001343ab7003221d
:100c28002b004f21404605f09ffb002307433370fc
:100c3800012233007621404605f096fb384302b086
:100c480004bc9046f0bdc046f0b5d6464f46464671
:100c58000023c0b582b001ae0c003380b37002220d
:100c680033006521804605f039fb6b46df1c042301
:100c780005003b7001223b007621404605f074fbdd
:100c88006b460543063301224d21404605f026fbfd
:100c98004e2233780543934322785bb2002a01d071
:100ca800402213436278002a01d008221343a27815
:100cb800002a01d004221343e278002a01d002223c
:100cc800134333700f2372789a43237952b2591e13
:100cd8008b416179db00481e81410a431343a279a5
:100ce800002a01d002221343e279002a01d004220b
:100cf800134373703f23b078984343b2207a9946e0
:100d0800411e88414301607a9c46411e8841a17a70
:100d180000014a1e9141e27ac900531e9a415300cc
:100d28009a46237b647b5a1e9341621e94414a462d
:100d38001443624614435246204301430a439b002e
:100d48001343b3706b46012206334d21404605f02c
:100d58000bfb002305433b7001223b0076214046f4
:100d680005f002fb3300054302226521404605f0e9
:100d7800fbfa284302b01cbc90469946a246f0bd37
:100d8800f0b5d6464f4646460023c0b582b001ae00
:100d98000c003380b370022233006821804605f0ce
:100da8009dfa6b46df1c042305003b7001223b00c3
:100db8007621404605f0d8fa6b46054306330122f2
:100dc8004e21404605f08afa4e2233780543934374
:100dd80022785bb2002a01d0402213436278002aad
:100de80001d008221343a278002a01d00422134319
:100df800e278002a01d00222134333700f2372785d
:100e08009a43237952b2591e8b416179db00481eff
:100e180081410a431343a279002a01d002221343d5
:100e2800e279002a01d00422134373703f23b0787b
:100e3800984343b2207a9946411e88414301607a1b
:100e48009c46411e8841a17a00014a1e9141e27ade
:100e5800c900531e9a4153009a46237b647b5a1e4d
:100e68009341621e94414a461443624614435246d3
:100e7800204301430a439b001343b3706b4601228e
:100e880006334e21404605f06ffa002305433b70b8
:100e980001223b007621404605f066fa33000543ff
:100ea80002226821404605f05ffa284302b01cbcc4
:100eb80090469946a246f0bd70b58eb06b460122a9
:100ec80006332d21050005f009fa041e03d16b46ef
:100ed8009b791b0702d420000eb070bd02ab022222
:100ee8001d21280005f0faf93f4b0400eb5c102b9c
:100ef80040d06a46128907ab5a8203ab06221f21eb
:100f0800280005f0ebf9384e0443ab5d102b4cd0ac
:100f18006a46928907abda806a46d2891a816a469c
:100f2800128a5a8105ab06222521280005f0d6f938
:100f38002d4e0443ab5d102b22d06a46928a07ab34
:100f48009a816a46d28ada816a46128b1a826b6a59
:100f5800002b01d007a8984702232a7e9a43bad1ca
:100f68006b4607331a7075210132280005f0fcf929
:100f78000443b0e72e2102a86944fff7cdf8bce787
:100f88000aa905a8fff7c8f8ab5d102b23d12a21c1
:100f9800162069446844fff7bff8ab5d102b20d1d9
:100fa8000ba906a8fff7b8f8d1e7222103a86944de
:100fb800fff7b2f8ab5d102b11d10e2009a96844d8
:100fc800fff7aaf8ab5d102b07d1262104a86944c6
:100fd800fff7a2f8a6e707abb3e707ab9fe707abb6
:100fe8009ae707abb0e7c0466808000001380e284a
:100ff80003d8034b8000c05870470248fce7c0463e
:101008003889000000c40900f0b5c64600b582b0b2
:101018006b46dc1d230001220f004e21050005f060
:101028005df90323227880461340022b1fd0114b11
:10103800eb5801330f4a5021ab506b469e1d3300cd
:101048000122280005f04af90f223378040093435f
:101058001f430e3a330050212800377005f084f9f9
:1010680043462043184302b004bc9046f0bd002319
:10107800e0e7c0466c080000f0b583b06b46dc1da5
:1010880023000e0001224f21070005f027f90f2247
:101098002378050093431e430e3a23004f2138005e
:1010a800267005f061f9284303b0f0bdf0b583b0b0
:1010b8006b46dc1d23000e0001225021070005f0bd
:1010c8000df91f232278050013401e430122230037
:1010d80050213800267005f047f9284303b0f0bdc9
:1010e800f0b583b06b46dc1d23000e0001224f21b2
:1010f800070005f0f3f81f232278050013401e436c
:10110800012223004f213800267005f02df92843cd
:1011180003b0f0bd30b50d4b83b0c35c0d00002ba0
:1011280003d00b4bc35c012b0cd06b46dc1d23009a
:101138000122502105f0d2f81f22237893432b7007
:1011480003b030bd002300200b70f9e769080000e8
:101158006a08000030b50d4b83b0c35c0d00002b4e
:1011680003d00b4bc35c012b0cd06b46dc1d23005a
:1011780001224f2105f0b2f81f22237893432b70e8
:1011880003b030bd002300200b70f9e769080000a8
:101198006a080000f0b5c64600b582b06b46dc1d93
:1011a8000e00230001225221050005f097f80f27b1
:1011b8008046237801223b40334323705221230089
:1011c800280005f0d1f843460343181e02d1034b0b
:1011d800be43ee5402b004bc9046f0bd7208000055
:1011e800f0b5c64600b582b06b46dc1d0e00230084
:1011f80001225221050005f071f80f278046237857
:1012080001223b403343237052212300280005f07c
:10121800abf843460343181e02d1034bbe43ee54ba
:1012280002b004bc9046f0bd74080000f0b5c64694
:1012380000b582b06b46dc1d0f002300012252214d
:10124800050005f04bf80f26804623780122b343aa
:101258003b43237052212300280005f085f84346bc
:101268000343181e02d1034b3e40ee5402b004bca7
:101278009046f0bd75080000f0b5c64600b582b0ce
:101288006b46dd1d01222b004e21060005f026f8d5
:101298002a780700130703d003231340022b28d111
:1012a8006b46012206331621300005f017f8052396
:1012b8006b449846002342460400137016214346a7
:1012c8000122300005f050f86b4604430633012232
:1012d8001621300005f048f83c43044343460122f8
:1012e8007521300004f0faff204302b004bc904698
:1012f800f0bd6b46022205331a704b21013a3000cb
:1013080005f032f83843f0e7f0b583b06b469d1d21
:101318002b0001224e21040004f0e0ff0c222b7860
:101328001a421bd1224e093a9343a25d002a17d0d4
:101338000121204a2b70a1542b0001224d3120009d
:1013480005f012f8002105002000fef7c1ffa35d9b
:101358000543002b12d1280003b0f0bd03229343ac
:101368002b7001222b004e21200004f0fdff0021ec
:1013780005002000fef7acff0543ece76b46df1dd8
:101388003b0001225f21200004f0a8ff13223b78d4
:10139800060093433b70123a3b005f21200004f0a3
:1013a800e3ff06432000fff767ff35430543d2e715
:1013b8006a0800006b080000f0b583b06b469d1dfd
:1013c8002b0001224e21040004f088ff03232a7811
:1013d8000600134034d1404f0c339a43e35d002b91
:1013e80032d001213d4b2a70e15401222b004d31ae
:1013f800200004f0b9ff3043050004f07ffc384baf
:10140800e31818605960e35d002b2dd06b46df1d93
:101418003b0001225f21200004f060ff13223b788b
:10142800060093433b70123a3b005f21200004f012
:101438009bff304305432000fff71eff054313e0e1
:10144800022b14d00c239a432b002a704e21012220
:10145800200004f089ff3043050004f04ffc204bc6
:101468009c46644420606160280003b0f0bd0821f8
:101478002000fef72dff0c2207002b784e21934306
:101488002b700b3a2b00200004f06eff3d00054343
:1014980004f034fc124b0122e318186059606b46c3
:1014a800df1d3b005021200004f018ff0f233a787d
:1014b80035431340013b05430e2b0bd8094a9b00cb
:1014c8009858400004f01efc00212000fef700ffa1
:1014d8000543c9e70448f5e76a0800006b080000ff
:1014e800780800003889000000881300f0b5de464f
:1014f800574645464e46e0b58fb004aa94460723a2
:1015080063449a4600235246137063460122063309
:101518002d21040004f0e2fe051e04d1062204abce
:101528009b791a4207d128000fb03cbc90469946d7
:10153800a246ab46f0bd06ab043a2e21200004f0cb
:10154800cdfe002800d04ae104ab1b890093002b94
:10155800e9d0d94be35c002b00d042e11023984638
:101568009946237e022b00d08ce1009b27004d4634
:101578000026994644373b002a003021200004f019
:10158800adfe002800d0bbe10136b6b247444e4557
:10159800f1d10023002507ae98460ce11000170092
:1015a800911c0291111d0391443161180191c349a5
:1015b80044308b46615c46372018e719102900d162
:1015c80027e1a21840784432127800020243f280e0
:1015d800029a7978a71844373a7809020a4332817f
:1015e800019a5178039a0902a218443212780a43e0
:1015f80072810735adb29a0629d528002f002a1d19
:101608004432a2180192ad4a44309346a25c463750
:101618002018e719102a00d119e1621941784432db
:10162800127809020a43b281aa1c7978a7184437ac
:101638003a7809020a43f281019a51782a1da218c0
:101648004432127809020a4332820635adb260226a
:101658001a421dd0503a1a4200d1c6e02800974ad3
:101668004430a25c2018102a00d11be1621941788d
:101678004432127809020a437282914a1220315e7a
:101688000235adb2914203d0102231680a4332606c
:101698000c221a421dd02800884a4430a25c201827
:1016a800102a00d1afe06219417844321278090259
:1016b8000a43b28004220235adb21a4206d08149eb
:1016c800615c002902d131680a43326000217d4af9
:1016d800a154102240211a40194227d078490627e0
:1016e800f05f884222d00827f05f88421ed00a2780
:1016f800f05f88421ad0002a0ed0611908004430e1
:1017080000780009307508004631453000780978be
:10171800000909097075b1758621090167183968ca
:10172800013100d1dae0590700d407e1990627d53d
:1017380063490c27f05f884222d00e27f05f884269
:101748001ed01027f05f88421ad0002a0fd06019e7
:10175800010044310f780f210f40f7750700453716
:101768003f7846300f403776007801407176564909
:1017780067183968013100d1b9e05b0700d4c4e0cb
:10178800002a01d00335adb2636a002b01d03000c6
:1017980098470222237e934305d15346013a752187
:1017a800200004f0e1fd434601339bb29846009bbc
:1017b800434500d18ae0002333602b004433994627
:1017c800a1444b461b786a1c59b292b2002900da30
:1017d8007ee04021194200d0e0e615000be7050045
:1017e800a1e6142398469946bbe661194431097865
:1017f800013549b27182adb2803100d148e7316814
:101808000a43326044e708a9fef786fc4b461b787a
:1018180050e704ab9c4602316144fef77dfc5b4611
:10182800e35c102b00d0a5e009a93800fef774fc92
:101838005b46e35c102b00d099e004ab9c46162174
:1018480001986144fef768fc4b461b78d1e60aa96b
:10185800fef762fc5b46e35c102b00d090e004ab23
:101868009c461a2138006144fef756fc5b46e35c4f
:10187800102b00d081e00ba90198fef74dfc4b46d8
:101888001b78e2e64246009b30215a4323002000a1
:10189800443304f023fd051e00d17ae62000fff74b
:1018a800ebfc40e604ab9c461e216144fef734fc89
:1018b8004b461b78e1e6c04669080000680800004e
:1018c8000080ffff6b080000580800001d002ae692
:1018d80001252000fff7d0fc6d4224e67968002935
:1018e80000d020e730680131014331601ee7796894
:1018f800002900d041e7022331680b4333603fe7fa
:1019080005002000fff7b8fc0de604f0f7f93a6887
:101918007b68801a9941002902d11b4b984208d94b
:101928000122002352423a607b600223326813434b
:1019380033604b4610221b781a4021e704f0def989
:101948003a687b68801a9941002902d10f4b984266
:1019580008d90122002352423a607b600123326891
:10196800134333604b4610221b781a40dee64b4681
:101978001b7835e64b461b782ae64b461b785be618
:101988004b461b7850e6c0465fea00001f4e000039
:10199800f0b5134e83b0835d04000025002b05d0fd
:1019a80028000f4a0133a35403b0f0bd6b46df1d76
:1019b8003b000122542104f091fc10223b780500e1
:1019c800934313433b7001223b005421200004f051
:1019d800cbfc0543c82004f095f9a35de0e7c046b9
:1019e80054080000f0b5114e0400835d83b0002058
:1019f800002b04d00d4a013ba35403b0f0bd6b4645
:101a0800df1d3b0001225421200004f067fc102256
:101a18003b78050093433b700f3a3b00542120006c
:101a280004f0a2fca35d2843e4e7c0465408000084
:101a3800f0b5c646042300b582b001ad0e002b7088
:101a480001222b004b21804604f08efc6b46df1ce4
:101a5800012304003b7001223b007621404604f03c
:101a680083fc2b00044303226221404604f036fc29
:101a7800002304433b7001223b007621404604f0da
:101a880073fcf0216b782a781b029b18aa7809034b
:101a980012040a409b182043336002b004bc9046ed
:101aa800f0bdc046f0b5c64600b582b005006b462d
:101ab800002946d0df1d012301223b7076213b001f
:101ac80004f052fc6b469e1d0400330001227b216a
:101ad800280004f003fc06223378044393430422cd
:101ae8009046424613433370012233007b2128007d
:101af80004f03afc002304433b7001223b007621aa
:101b0800280004f031fc3300044301224d21280051
:101b180004f0e4fb0422337804439343424613431e
:101b28003370012233004d21280004f01dfc0821e8
:101b380004432800fef7dafe204302b004bc9046b6
:101b4800f0bd9e1d330001224d2104f0c7fb042285
:101b58003378040093433370033a33004d2128004f
:101b680004f002fc2043e8e710b582b06b46dc1da8
:101b7800230001224d2104f0b1fb20784007c00f5b
:101b880002b010bd0122024bc25400207047c0466b
:101b9800690800000022024bc25400207047c0466a
:101ba80069080000f0b5c646002200b586b00023db
:101bb80090466a460293039304939382484b050028
:101bc8000f1ec15460d001295bd1d61d33000122fc
:101bd8004c2104f083fb20223378040093434022f5
:101be80013433370012233004c21280004f0bcfb5e
:101bf800802304433370012233001621280004f0a7
:101c0800b3fb3300044301225421280004f066fb8f
:101c180001223378044313433370012233005421e3
:101c2800280004f0a1fb3300044301225f212800af
:101c380004f054fb03223378044393432c221343c8
:101c48003370012233005f21280004f08dfb33003c
:101c58000122044360212800377004f085fb02a9a3
:101c680004432800fef7b0fe6b464246044302a92f
:101c780028005a72fef7e8ff204306b004bc9046dd
:101c8800f0bd01204042f8e74346d61d33700122db
:101c98003300162104f068fb3300040001225f21a1
:101ca800280004f01bfb03223378044393430c22df
:101cb80013433370012233005f21280004f054fbe2
:101cc80002a904432800fef77ffe01236a46044365
:101cd80002a928005372fef7b7ff2043cde7c0469c
:101ce8006a080000f0b5de46454657464e46e0b560
:101cf80017008822040089b012010d00002107f0a6
:101d08006dfd230007cd07c307cd07c32a68e74841
:101d18001a6003f0f7ff04ab984601234246762188
:101d2800137020004346012204f01efb237e0600a8
:101d3800012b1ad0002b00d1e3e1022b00d1c5e121
:101d4800002342467621137020004346012204f006
:101d58000bfb30430b2676420643300009b03cbcef
:101d680090469946a246ab46f0bd03ab994602237e
:101d78004a467a21137020004b46012204f0f4faf7
:101d88000643002342467621137020004346012271
:101d980004f0eafa0643e0d14246c54b67623c3399
:101da80023cb23c21b8820001380fef7c9f902af9a
:101db8003b00050001224f21200004f08ffa054363
:101dc800ab4609256d442b0001225021200004f068
:101dd80085fa5b4603439b461f233a784f211a40f6
:101de8003a702a7820001340402213432b700122b6
:101df8003b0004f0b9fa5f462b000743012250214b
:101e0800200004f0b1fa6b46dd1d2b0007430122c8
:101e1800162120002e7004f0a7fa2b000743012298
:101e28006221200004f05afa70222b78074393436a
:101e38002b706f3a2b006221200004f095fa0743bb
:101e4800bb460a276f443b0001225421200004f0be
:101e580045fa5b46022203439b463b7892469343ee
:101e68003b70013a3b005421200004f07dfa5f46a4
:101e7800082107432000fef739fd01210743200010
:101e8800fff790fe2b00074301221421200004f0e5
:101e980025fa03222b78074313432b7001222b00ca
:101ea8001421200004f060fa414607432000fef7a1
:101eb800cbfe4246012341460743200053709670eb
:101ec800fef746fe2b00074301226421200004f0a0
:101ed80005fa10222b78074393432b700f3a2b00f7
:101ee8006421200004f040fa2b000743012251210d
:101ef800200004f0f3f90c222b7890469343042237
:101f080013432b7007432b0001225121200004f0ba
:101f18002bfa2b00074301225321200004f0def99d
:101f280018222b7807439343082213432b7001226e
:101f38002b005321200004f017fa5e4b4a46e65462
:101f480004230743137076214b460122200004f036
:101f58000bfa4a46584b074313800d234a219370c6
:101f680020004b46032204f0fff90743b9460b272c
:101f78006f443b000122762120003e7004f0f4f902
:101f88004b4603439946434601222b7057212b00a9
:101f9800200004f0e9f94b46882203439846474b52
:101fa8005200e25260239b465a46454b7621e25442
:101fb800032326643b705f3a3b00200004f0d4f909
:101fc80043460343984601222b002e21200004f0ab
:101fd80085f943465246034398462b782e2193436e
:101fe8002b70013a2b00200004f0bef9434603434e
:101ff800984601222b003221200004f06ff9434655
:102008005a46034398462b78322193432b705f3a04
:102018002b00200004f0a8f9434603439846012208
:102028002b003721200004f059f943465a46034350
:1020380098462b78372193432b705f3a2b0020006a
:1020480004f092f943460343984601222b003c21b1
:10205800200004f043f943465a46034398462b7838
:102068003c2193432b705f3a2b00200004f07cf94d
:1020780045463b0005430122762120003e7004f0ce
:1020880073f9104b0122e118002352420a604b6099
:102098008621090161180a604b600b4905438c468b
:1020a80064442e002260636057e6c046b80b000007
:1020b80038890000690800000d0d00007408000050
:1020c80072080000580800007808000003ab994621
:1020d80001227c21200004f001f94b460c221b78d8
:1020e800050013434a467c21137020004b46012209
:1020f80004f03af928430643e3682000984706436a
:102108003fe603ab994601227c21200004f0e6f863
:102118004b4603221b78050093434a467c211370e3
:1021280020004b46012204f01ff92843064328e605
:10213800f0b5de46454657464e46e0b591b002aa90
:102148000623944663441980090b9b460b0380467b
:10215800029366d104af3900fef736fc08ae0400de
:1021680031004046fef792fc0cad0443290040467e
:10217800fef7d6fbbb7804439a46b3785246994695
:10218800ab7801934b46012a39d0012b41d0ab786b
:10219800012b2cd05b4602226021404604f0e4f873
:1021a800bb780443534506d0534639004046bb70bc
:1021b800fef74afd0443b3784b4506d04b46310041
:1021c8004046b370fef7dcfd0443ab78019a9342b6
:1021d80005d029004046aa70fef7bafc0443200047
:1021e80011b03cbc90469946a246ab46f0bd0023d0
:1021f80029004046ab70fef7abfc0443cae7029bdc
:1022080039004046bb70fef71ffdb3780443012b2d
:10221800bdd1002331004046b370fef7b1fd044341
:10222800b5e70b246442dae770b582b06b46012249
:1022380006335421050004f051f8002830db6b46c2
:1022480008269b7928001e40fdf742ff002812d07f
:1022580080246404002e0bd06b46de1d330001225f
:102268004d21280004f03af8337824015b071ad48a
:10227800200002b070bd6b46dc1d230001224d21f9
:10228800280004f02bf8237804241c4063425c41a6
:10229800064b64421c4080235b049c466444d9e797
:1022a80001246442e4e7024ce2e7c0461111110040
:1022b8000080841e30b583b06b46dc1d23000122ec
:1022c8004d21050004f00af823785b0702d507487a
:1022d80003b030bd2800fdf7fbfe431e9841044bb8
:1022e80040421840034b9c466044f1e70080841e3e
:1022f800efeeeeff1111110101484c307047c04656
:1023080038890000002370b50024084d2b606b68e5
:1023180080229c46ab686101181961445200103450
:1023280003f0a4fd402cf2d170bdc0460c2400205f
:10233800034b10b51b68002b01d0fff7e3ff10bd5e
:102348000c240020214bfa22190010b574311a60b0
:10235800c83a5a6059630022202101205a5418397a
:1023680059841b49d88359621a4998858868cc686a
:10237800986308699c62d86317486024143018640d
:102388000420986015481a55586415481b639864ca
:1023980014481a615a619a611a77da60d864124847
:1023a80018651248586508001430986524200c5c9c
:1023b800002c01d0da650a540b68002b01d0fff716
:1023c800a1ff01210a4800f099ff10bd3c20002020
:1023d800000108000c240020bc2000206d5a0000d9
:1023e800d9590000295a0000055c0000cd5b0000a7
:1023f8009c210020f0b56c252b00c64643431c4e9b
:1024080000b5f3181b7f07005d4375199846ab6844
:10241800002b0add0024ab6b20019c46604403f0ce
:1024280067fdab680134a342f5dc43466c255d4388
:102438007519eb68002b0add0024eb6b20019c4624
:10244800604403f055fdeb680134a342f5dc6c23ce
:102458005f43f6190023320033617361b3612032a0
:10246800243633700120137004bc9046f0bdc0467a
:102478003c2000206c235843074b10b51b181a004a
:102488002c3212780020012a00d010bd2d33187884
:1024980001f0bcf80120f8e73c20002070b5051ecb
:1024a800074c06d06c2068432418a06b03f036fd57
:1024b80070bd2000216b083007f04af8f2e7c046eb
:1024c8003c20002010b5fff7e9ff012010bdc046f1
:1024d8006c2343430448c0180200002320322430f0
:1024e800137003707047c0463c2000206c234343a0
:1024f8000248c018243000787047c0463c200020ad
:102508006c23434370b50e4deb181a002032598cda
:1025180012784a43002908d094005a6b00231219f4
:102528000024013310c29942fbdc6c2358432d1858
:10253800a86b6b3b0022002106f082fb70bdc046f1
:102548003c2000206c2343430c4930b5cb181c00b9
:10255800203422780132d2b2227005342478651ee4
:10256800aa4202d1012524331d70a24205d36c234f
:1025780058430023091820310b7030bd3c2000203f
:102588006c22054b424319009b18083110b5881876
:102598001b6d984780b210bd3c2000206c22054b73
:1025a800424319009b18083110b588185b6d98478d
:1025b80080b210bd3c200020002300b56c2283b0ff
:1025c8000193054b424319009b18083188185b6c2e
:1025d80001a9984703b000bd3c20002010b56c2429
:1025e800044b01001800624308309b1880189b6c4c
:1025f800984710bd3c20002070b501006c24084ba2
:102608004c4318001c190830e36c98470500012852
:1026180001d0280070bda06b03f07cfcf9e7c04630
:102628003c20002030b5154c83b0237f984201d060
:1026380003b030bd0028fbd00020fff7ddff050008
:102648000128f5d10020fff75bff0023200001934c
:1026580001a9636c083098472022a35c0133dbb2e0
:10266800a3540532a25c511e8b4201d1242165542a
:102678009342ddd320230022e254d9e73c200020f6
:102688006c224243044b10b59b181b7f834202d136
:102698001800fff7c7ff10bd3c20002070b56c2460
:1026a8000d4b44431d0008352d191c192800636d76
:1026b800984780b201280bd1236d28009847074b13
:1026c8000004000cc3185a1e93415b42184070bda9
:1026d80001204042fbe7c0463c2000200100ffffec
:1026e800f0b5c6466c24304d00b52f00544308376a
:1026f8003f192c1982b00100a36c380016009847c6
:1027080000283ed03000fff777ff012839d130008c
:10271800fff7f6fe002301a9984601933800636c81
:102728009847012833d13800636d984780b2012853
:102738002ad1236d380098471c4b0004000cc3189d
:102748005a1e93415b4218406c237343eb181900df
:1027580020310a780132d2b20a70053109784c1e4c
:10276800a24202d1012424331c708a4205d36c236f
:102778005e430023ad1920352b7002b004bc90468f
:10278800f0bd01204042f8e701204042dce7230089
:1027980042462033243430001a702270fff77efe40
:1027a80002204042e9e7c0463c2000200100ffff2c
:1027b800f0b56c24504f54433e00083636193c1986
:1027c80083b00100a36c300015009847002800d1a1
:1027d80071e02800fff710ff012800d06be0280007
:1027e800fff78efe002301a901933000636c984720
:1027f800012863d1230024331b78002b36d0300006
:10280800636d984780b2012800d071e0236d3000d5
:1028180098473a4b0404240ce3185a1e93415b4230
:102828001c406c236b43fb181b7f9d4202d1280080
:10283800fff7f8fe6c236b43fb18190020310a7868
:102848000132d2b20a7005310978481e824202d19b
:102858000120243318708a4205d36c235d4300237a
:102868007f1920373b70200003b0f0bd237f9d42c5
:1028780002d12800fff7d6fe6c236b43fb18190022
:1028880020310a780132d2b20a7005310978481e1f
:10289800824202d10120243318708a4205d36c2366
:1028a8006b43ff18002320373b7002242800fff7f2
:1028b800f5fd6442d7e701246442d4e7237f9d42b3
:1028c80002d12800fff7aefe6c226a43ba18110045
:1028d80020310b780133dbb20b7005310978481ec3
:1028e800834202d10120243210708b42d7d2dce718
:1028f8000124644295e7c0463c2000200100ffff08
:10290800f0b56c24494e5443370008373f19341941
:1029180083b00100a36c38001500984700283bd00d
:102928002800fff769fe012836d12800fff7e8fde7
:10293800002301a901933800636c9847012831d11d
:10294800230024331a78002a51d03800636d984741
:1029580080b2012823d1236d38009847344b0404f2
:10296800240ce3185a1e93415b421c406c236b43b2
:10297800f3181b7f9d420bd06c206843301802006f
:1029880000232032243013700370200003b0f0bd00
:102998002800fff747feefe701246442f5e701242a
:1029a8006442e3e7237f9d4202d12800fff73afe05
:1029b8006c236b43f318190020310a780132d2b224
:1029c8000a7005310978481e824202d10120243359
:1029d80018708a4205d36c200023684330182030d1
:1029e800037002242800fff759fd6442cde7210057
:1029f80020310a7825340132d2b20a7021784c1e6f
:102a0800a24200d118708a4205d36c2300226b437e
:102a1800f31820331a706c2068433018037f9d42e6
:102a2800dfd12800fff7fefddbe7c0463c20002091
:102a38000100fffff8b5de4657464e464546934629
:102a4800e0b5002a20dd6c245c43124b8ab21c19c5
:102a5800002391464a009246070000259846a36b3a
:102a68002e019c464846664403f0eaf94b4682b27a
:102a78003900300003f000fa4346013523616361f1
:102a8800a3615744ab45ead13cbc90469946a2465f
:102a9800ab46f8bd3c200020f0b583b00600fff738
:102aa800abfd01283dd130006c24fff729fd204df6
:102ab80000232f00744308373f192c19019301a9eb
:102ac8003800636c984701282bd13800636d98470c
:102ad80080b2012828d1236d38009847154b00048f
:102ae800000cc3185a1e93415b4218406c23734371
:102af800eb18190020310a780132d2b20a70053178
:102b080009784c1ea24202d1012424331c708a4247
:102b180005d36c235e430023ad1920352b7003b019
:102b2800f0bd01204042fae701204042dee7c046fe
:102b38003c2000200100fffff0b5c64600b582b07a
:102b48000500fff759fd804601283fd128006c2475
:102b5800fff7d6fc344e002337006c4308373f1983
:102b68003419019301a93800636c9847012830d1c2
:102b78003800636d984780b201284fd1236d380023
:102b880098472a4b0004000cc3185a1e93415b4215
:102b980018406c236b43f318190020310a7801326e
:102ba800d2b20a70053109784c1ea24202d1012422
:102bb80024331c708a4205d36c235d4300237619a5
:102bc8002036337002b004bc9046f0bd012040426c
:102bd800f8e72200203213780133dbb21370053294
:102be8001278511e8b4202d14146243421709342ff
:102bf80005d36c2300226b43f31820331a70280086
:102c0800fff74cfc6c236b43f618337f9d4208d1c9
:102c18002800fff707fd02204042d3e70120404289
:102c2800b7e702204042cde73c2000200100ffff2b
:102c3800f0b583b00600fff7dffc012843d1300070
:102c48006c24fff75dfc344f00233d0074430835c6
:102c58002d193c19019301a92800636c9847012894
:102c680031d120239c462200a444634625321278a1
:102c78001b78511e8b4229d12800636d984780b27a
:102c8800012842d1236d28009847244b0404240cc2
:102c9800e3185a1e93415b421c406c237343fb1894
:102ca8001b7f9e420bd06c237343fb181900002234
:102cb800203124330a701a70200003b0f0bd3000b0
:102cc800fff7b0fcefe701246442f5e765460133fe
:102cd800dbb22b70994201d1243420709a4205d876
:102ce8006c2300227343fb1820331a703000fff75f
:102cf800d5fb6c237343fb181b7f9e4208d102242b
:102d08003000fff78ffc6442d6e701246442c4e731
:102d180002246442d0e7c0463c2000200100ffffa7
:102d280010b504000020002c00d010bd044b2d303d
:102d38009c6a185c13000a00210000f007fbf4e706
:102d48003c20002010b504000020002c00d010bd4d
:102d5800024c2d30205c00f0f9faf8e73c20002006
:102d680000207047002070470120704710b56c2480
:102d78004443064b1b192c331c780023012c01d02b
:102d8800180010bd00f012fc0123f9e73c200020d8
:102d9800002805dc6c2343430248c018806d704747
:102da8000020fce73c2000206c2343430148c01866
:102db800c08c70473c2000206c234343084810b562
:102dc800c018c38c002b09d0040000232634826a63
:102dd800d25cca54228801339a42f8dc10bdc0463e
:102de8003c2000206c234343084830b5c018c48ced
:102df800002c09d0050000232635846ae45ccc54f5
:102e08002c8801339c42f8dc147030bd3c20002033
:102e18006c23434330b5084cc000e3181a0024184b
:102e280018692532844615786268013d6a43db8b50
:102e380062445a430a6030bd3c2000206c2343435f
:102e48000248c018253003780b6070473c200020ea
:102e58006c234343074ac000d3181900121850685e
:102e68001a69253194460978db8b01394843604457
:102e7800584370473c2000206c2343430148c01846
:102e8800006970473c2000206c2343430148c01868
:102e9800806870473c200020f0b54e46de46574615
:102ea8004546e0b56c2683b0009200227043194e67
:102eb80001933618b3688a4691469346002b21dd64
:102ec8005346002b18dd4b461b0198465b46009a7b
:102ed8005d00019b14009c46130053441f00654489
:102ee800b36b21004344180002f0fcff0134288032
:102ef8000235bc42f4d1d34401239c46b368e14473
:102f08004b45dddc03b03cbc90469946a246ab4637
:102f1800f0bdc0463c2000206c225043084a30b522
:102f28001218d38c0020002b08d0140026340b5c18
:102f3800956a2b54238801308342f8dc30bdc046a3
:102f48003c2000206c22064b424319009b18083194
:102f580010b588181b6d98470004000c10bdc046ba
:102f68003c20002000207047002070476c2343431a
:102f78000148c018406970473c2000206c23434337
:102f8800074ac000d318190025310978121850686b
:102f9800013948435a69121ad88b50437047c046c2
:102fa8003c2000206c2343430248c018603000785e
:102fb8007047c0463c2000206c2343430a4830b584
:102fc800c018030060331b78002b0bd0c48c002c76
:102fd80008d000230022406ec5580132cd5004337a
:102fe800a242f9db30bdc0463c2000206c2343439d
:102ff8000a4830b5c018030060331b78002b0bd08b
:10300800c48c002c08d000230022806ec5580132e1
:10301800cd500433a242f9db30bdc0463c2000202d
:103028006c2343430548c018030060331b78002b0a
:1030380001d0c06e70470248fce7c0463c20002023
:10304800000080bf6c2343430548c0180300603369
:103058001b78002b01d0006f70470020fce7c046aa
:103068003c2000207047c046f0b54746ce460b7856
:1030780080b590461a4a9c46430018181368c00049
:103088001b185b88002b20d000260024154b99467e
:103098001b685f881d89bd420dd9b44519d97500d3
:1030a800ad196d0045442f809f8801366f80df88f9
:1030b800f6b2af800e70156801342d186d88e4b231
:1030c800db68a542e5d84a4613600cbc9046994691
:1030d800f0bd62460a704a46db681360f5e7c046f1
:1030e800580a00204819002030b50c78002c0fd061
:1030f8000021084d2b68588801311080988889b2c2
:103108005080d888db6890800632a142f3d32b60c8
:1031180030bdc04648190020f0b501234546804619
:103128004e46de46574699464346e0b5944683b038
:10313800002b49d00023424600269b4601930123d9
:103148009a4600251300d3440135db68002901d0d5
:1031580043455bd0002b01d04d45f5d14f46002d9e
:103168001bd0002f42d0002b40d050885c88001b19
:1031780000283bddd868013f1c00002902d000234d
:10318800804500d00300002e3bd0f4606046002844
:1031980000d026612600002de3d1002f33d0002b6c
:1031a800e8d1002916d06346019af260002b00d0be
:1031b80016615b46012b11dd4b465b009946019b6e
:1031c80098464346002bb5d10023002601939b4621
:1031d8000029e8d15b46f160012beddc019803b0d2
:1031e8003cbc90469946a246ab46f0bdd068013d2e
:1031f8001400002902d000228045c4d00200002e0d
:10320800c3d10194c2e71a1e99d1cae70023a5e7e2
:103218007047c0460368002b0cd000290ad0ca6842
:103228008b4208d00b69002a01d013610b69002b6f
:1032380000d0da6070470260ca680b69002af4d1ce
:10324800f5e7c04640884b88c01a704710b500287b
:1032580002d0fff761ff10bd0020fce710b5054c58
:103268002068002803d001220121fff755ff2060c4
:1032780010bdc04648190020f0b5c6460021174bbe
:1032880000b51a6843001b18db00d3185e8883b2a8
:10329800984613488e4213dd4c1ca3008a001b1964
:1032a800521892009b00c5188718fd604546855244
:1032b800002902d0283bc3183b6121008e42ebdc79
:1032c8004346013903808b0059188900054b411882
:1032d800c8600161186004bc9046f0bd580a00201f
:1032e8006819002048190020024b1860024b002082
:1032f80019717047580a002048190020024b1860bd
:10330800024b002019717047580a00204819002004
:1033180010b50c4b04001979002911d00a4b1b6811
:103328001a7882420cd01833002005e018331a00ae
:10333800183a1278a24204d00130c0b28842f5d1be
:10334800002010bd48190020580a0020f0b5474653
:10335800ce4680b59c46224bc0b21f79214b1b68d4
:10336800002f10d01c7884420dd01d000024183581
:1033780005e018352e00183e3678864225d00134ef
:10338800e4b2bc42f5d15f88d888b84225d99e8876
:1033980038b28046002e09d0c500d8688146002082
:1033a8004d440c5c2c540130b042fadb186941469c
:1033b80080466046890041440880012001374a80e0
:1033c8005f800cbc90469946f0bd60000419e4008b
:1033d8001b195f88d888b842d9d801204042f0e745
:1033e80048190020580a0020f0b5d6464f464646f0
:1033f800c0b53d4bc0b21c793c4b1d68002c10d0a9
:103408002b7883420dd02a000023183205e01832a9
:1034180011001839097881425dd00133dbb2a3422b
:10342800f5d16b88002b51d0314b002698461423d8
:10343800434400240027994604e06b8801340a3687
:10344800a3422ddd6b6921009a5f404606f0acf877
:103458006b69991900228b5e002beeda2a7a002a12
:103468003ed00120002384460231c85c0133b842b3
:1034780002d9dfb2bc4607009342f6db624693b23c
:103488009a462100484606f08ff82a69a300944618
:10349800524663445a806b8801340a36a342d1dc11
:1034a800002b13d000216c69287a9d00ed18a21c0e
:1034b8006d0055190023002803d0d15401338342ed
:1034c800fbdb0a3221800a349542f3d11cbc9046ba
:1034d8009946a246f0bd5a00d318db00ed18a0e7c4
:1034e800012301229a46cce748190020580a0020f7
:1034f800987e0000f0b5d6464f464646c0b5284be4
:10350800c0b21c79274b1d68002c10d02b78834241
:103518000dd02a000023183205e01832110018399e
:103528000978814237d00133dbb2a342f5d16b88e9
:10353800002b2bd0002398461b4b0026994634239a
:103548004f464b449a464c376b6941469a5f504602
:1035580006f02af82b7a0022002b0cd06b69541c39
:103568009b199b189a782100380006f01df82b7ad1
:1035780022009c42f2db4846483006f015f8012349
:103588009c466b88e0440a364345dddc1cbc90460b
:103598009946a246f0bd5a00d318db00ed18c6e7dd
:1035a80048190020580a0020987e0000f0b5154bf5
:1035b800c0b21e79144b1f68002e10d03b7883428e
:1035c8000dd03c000023183405e018342500183dc0
:1035d8002d78854210d00133dbb2b342f5d138697a
:1035e8008b008446634458881b88c9001380fb6895
:1035f800508059185160f0bd5800c318db00ff18ff
:10360800ede7c04648190020580a002070b5194e49
:10361800194b3479c0b21d68002c10d02b78834226
:103628000dd02a000023183205e01832110018398d
:103638000978814217d00133dbb29c42f5d10020d2
:1036480000236b8033600d4b012519000024f531f0
:10365800ff316d421a88824201d11d809c8014334b
:103668008b42f7d170bd5a0098b2d318db00ed1821
:10367800e6e7c04648190020580a002068190020cb
:1036880030b50f4bc0b21c790e4b1d68002c10d002
:103698002b7883420dd02a000023183205e0183217
:1036a800110018390978814205d00133dbb2a342f1
:1036b800f5d1688830bd5a00d318db00ed18f8e75b
:1036c80048190020580a0020f0b5de464e465746f5
:1036d8004546e0b55e4e8b46317987b004000292cc
:1036e800002900d1afe05b4b98461b681a788242ec
:1036f8000dd01833002006e018331a00183a127853
:10370800a24200d19be00130c0b28842f4d1002728
:103718000020fff7b1fd0023029a30601370434682
:103728001b68dc196388002b5ad04b4b3a0099462a
:1037380000234f469a460025030091461ce00129c4
:1037480036d00020022953d090420ad242499a88a2
:103758008f4200d16ee0974203d0022117000298f1
:1037680001704246126814334a443360013514002c
:103778005288adb2aa4233d92169aa008c46624464
:1037880051881288998051461a81dd805980e17ae2
:103798000029d4d1e068ea008018a38805aa594610
:1037a80005f0befc059a336890b258801a89cbe7b9
:1037b800002202abda72e36802a99c46a388e800fb
:1037c800604400938c4632000b2308326344594608
:1037d80005f0c8f902aa3368d07a1a895880b3e785
:1037e800002007b03cbc90469946a246ab46f0bdc7
:1037f800002202abda72637aa0881900039304f0fe
:103808000ffae168eb00c918039b0200009303005c
:10381800584605f0cbff43461b684b44597a9888b5
:1038280004f0fef9010005f0c3ff336880b2588048
:103838001a8989e7012102981700017091e747006a
:103848003f18ff0065e7034b00200027984660e714
:1038580048190020580a0020ffff0000f0b5184d55
:10386800184b2e79c0b21c68002e10d023788342e2
:103878000dd022000023183205e018321100183943
:103888000978814216d00133dbb2b342f5d166889c
:10389800002e0ed000222b6859881889884203d937
:1038a800d88827698000c1530132db68b242f3db54
:1038b8002b60f0bd5a00d318db00e418e7e7c046d8
:1038c80048190020580a0020f8b5ce46474680b56a
:1038d800264d0e00297991469846002911d0244b8f
:1038e80000241b681a781833824206d13be018334b
:1038f8001a00183a127882422fd00134e4b28c426e
:10390800f5d1002400201b4f00233a0003e00133c7
:103918001432192b23d011888142f8d19a00d31878
:103928009b00ff18380001220121fff7f5fb070073
:10393800114bb6002b61114bae196b61104b42460f
:10394800ab61104b4946eb61336920002f60984703
:103958002f600cbc90469946f8bda0b2d3e72f68fb
:10396800002fdfd1e4e700200024cce7481900202d
:10397800580a00206819002071300000f13000005a
:103988006d30000019320000f0b585b06b46dc1dc3
:1039980000232370234b05001f79234b1e68002f3b
:1039a80010d0337883420dd032000023183205e05e
:1039b8001832100018380078a8421ad00133dbb248
:1039c800bb42f5d16b469f1d0123220028003b70a6
:1039d800fff77afe23785a1e012a0fd9002b04d14b
:1039e800b37a012b15d0002b11d002ab588805b043
:1039f800f0bd5a00d318db00f618e3e702ac280044
:103a0800b17a23003a00fff75fff6088efe70748c5
:103a1800ede702ac280023003a000121fff754ff2c
:103a28006088e4e748190020580a0020ffff0000da
:103a3800f0b5c64600b582b06b46dc1d0023237086
:103a4800244b8c461979244b050017001e68002961
:103a580010d0337883420dd032000023183205e0ad
:103a68001832100018380078a8421fd00133dbb292
:103a78008b42f5d106236b449846012342466146a2
:103a8800137028002200fff71ffe23785a1e012a10
:103a980011d9002b06d1b37a012b13d0002b01d1f9
:103aa800013b7b8002b004bc9046f0bd5a00d3189d
:103ab800db00f618dee7b17a3b0042462800fff744
:103ac80003ffefe73b00424601212800fff7fcfe19
:103ad800e8e7c04648190020580a0020f0b54746d4
:103ae800ce4680b59846264b0500c7b21879254bb7
:103af80083b0894614001e68002810d03378bb4272
:103b08000dd032000023183205e0183211001839a0
:103b18000978b9422cd00133dbb28342f5d1002cad
:103b280002d0337aa3420ad21748583005f03cfd38
:103b38000120404203b00cbc90469946f0bd0023da
:103b48006a46494638005380fff772ff6b460f4ab2
:103b58005b88934204d0a3420fd02800fff77efe73
:103b68004346220049462800fff7f0fb0120e1e721
:103b78005a00d318db00f618d1e70020dae7c04670
:103b880048190020580a0020987e0000ffff000016
:103b9800f0b5284b83b01f79274b1600c0b21d68bb
:103ba800002f10d02b7883420dd02a000023183222
:103bb80005e018321400183c2478844229d00133d7
:103bc800dbb2bb42f5d1002e02d02b7ab34205d22c
:103bd8001a48583005f0e8fc03b0f0bd6a46fff714
:103be80027ff6b465988b14218d09b889a00d21893
:103bf80050006a691218108801381080701e121857
:103c08009078013090700d483200783005f0ccfc87
:103c1800e2e75a00d318db00ed18d4e76b469b881f
:103c28009a00d21850006a69121810880130108062
:103c3800e4e7c04648190020580a0020987e000092
:020000040000fa
:103c4800f0b59bb013930b6815900d934b681291c8
:103c580004938b680e930b691893cb6806931368cb
:103c68000b9353680b98089300220023089905f0da
:103c780011f900280dd10d9b5b073ad408200d9b44
:103c880003400c930e9b07930c9b002b0fd0202313
:103c980006e0802212069446089b634408932d236d
:103ca800069a13700e9b013b079301230c93089b04
:103cb8000b995b005b08984a00291ed193421cd1de
:103cc800069c139ba4460c9a413b624493491000fe
:103cd800192b10d805f0c6fd069805f087fd0d9b39
:103ce8000200009306990e9b159804f05efa1bb02b
:103cf800f0bd2b23d4e70431ece7934203d810d16d
:103d08000b9b002b0dd0069c139ba4460c9a413ba1
:103d1800624482491000192b01d80831dae70c31c6
:103d2800d8e7002200230b98089905f0dbfa002653
:103d38007b4f002833d000230393139805f07efdb2
:103d4800c3b20f93049b002b00dae8e10f9b0a93a0
:103d5800672b00d0f1e0049b002b00d1dae1039b34
:103d6800043304db039b049a934200dae0e0652302
:103d7800f9e026002f00039b013303930022694bcf
:103d88003000390002f05afc0b9a089b04000d0021
:103d980005f0bef80028ecd00024012524e00390ab
:103da800ece7039b1a00604b9a4212da002c10d100
:103db80000225e4b0b98089902f040fc00220b9001
:103dc800089130003900594b02f038fc2c000600ed
:103dd8000f00544b30003900002203f097fc060016
:103de8000f00039b013b039332003b000b9808999b
:103df80005f050f80028d4d19fe700230024109341
:103e08001194fee0089609970a9b039d652b00d044
:103e180019e1002517e1002f0ad1002d08da2e2319
:103e2800069a149901365354079b0137013b0793af
:103e3800a21933009446302102e0069ad154013386
:103e48009c45fad1079aa319141b069a30305e1cb8
:103e5800d054631e0793002421e0129b14961b691b
:103e68000493053bb34200d8f7e0089a099b0b98e6
:103e7800109903f04bfc03f01ffe0490059105f028
:103e880083f9092800dd092010230d9a1340034304
:103e9800c1d10f9b672bbed1002dc9da0134802018
:103ea8000006844610990b9a61440b000498059902
:103eb80000920193089a099b05f0b8fc80231b0621
:103ec800cb180b901093089809990022154b03f012
:103ed8001dfc013d08900991bbe00d9bdb0600d459
:103ee800bee02e23069a93550136b9e003983900af
:103ef80003f0e0fe069b3031013c19550398390068
:103f080003f08efe079b0390013b0793bfe0069ae0
:103f1800125c1a540138ede00000f07f249800008c
:103f28000000f03f00002440d4feffff0000504393
:103f3800039b002b16da66230a93049b0133049330
:103f48000a9b662b10d1039b002b03da0023002663
:103f5800764f03930f9b672b04d0039a049b9446d8
:103f68006344049366230a930023109611970b9dcc
:103f7800089c1493109a119b2800210003f0c6fb9b
:103f880003f09afd1690179105f0fef880212a009b
:103f98000906631819900092019316981799109ab8
:103fa800119b05f043fc80231b06cc180022604bb4
:103fb80005001098119903f0a9fb149b109011911a
:103fc80001331493149a049b9342d3d10022594b82
:103fd80002f034fb1090119102000b002800210020
:103fe80004f058ff002800d007e7109a119b28001a
:103ff800210005f077f9002803d0199bdb0700d4ce
:10400800fbe6109a119b0b98089902f017fa002208
:104018000b901091464b3000390002f00ffb0b9ac1
:10402800109b0890099104f073fe002800d1e9e67e
:10403800039b013303930a9b662b00d0e4e6049ba1
:10404800039d0133049300242700049b0c9eeb1a64
:104058001693169b9d4200d0ffe6002f00d13ce747
:104068000025069b9b1904931d700a9b652b31d173
:10407800189b5c1e069b1d55039bab4202da5b42f4
:104088000393013503230a27189a9b1a0893039b65
:10409800002b00d02ae7089b1b19002b00dd25e721
:1040a800621e2d23002d00d1023b0699023c8b5441
:1040b800139b413b192b01d845230a93069b1919d9
:1040c8000a9b0b70079b023b0793a64202da0498ef
:1040d80005f0c8fb03230d9a1340022b00d0fbe523
:1040e800079b002b00dcf7e5069805f07ffb069b95
:1040f800079a9b180c9a824200dc08e71300069a7c
:104108003021944663441800079a05f067fb0023a2
:104118000e93e1e50123049321e60623fbe70f9bb9
:10412800672bfad00a930623049306e70000f03fb2
:084138000000244000001440c7
:020000040000fa
:10414000f0b599b014930b68566809934b681390b7
:104150000d938b68cf680c930b6931001193136832
:10416000002207930798002304f098fe00280cd142
:10417000099b5b0732d40820099b0c9d03400593e3
:104180000cd02023013d3b7006e080231b06f6186f
:104190002d233b700c9b5d1e01230593079a730032
:1041a0005b08002a1cd1b24a934219d1149bb14c2e
:1041b000059a413bb8182100192b00d9211d05f0a3
:1041c00055fb201d05f016fb099b020000933900ea
:1041d0000c9b139803f0edff19b0f0bd2b23d8e72b
:1041e000a34a934203d812d1079b002b0fd0149bf4
:1041f000a04c059a413bb8182100192b05d808316d
:1042000005f034fb20000c30dce70c31f8e7059baf
:1042100005995a1c30237b54149b413b0e930e99f5
:104220005823192900d920330599bb540231ab1efc
:1042300005910893002200230798310005f056f8f5
:10424000002800d164e100238b4c06930293039471
:104250000d9b1093002b01da18231093029b039cf3
:104260000a930b9434000023079d129328000a9aa6
:104270000b9b210003f04efa03f022fc0a9a0b9be1
:104280001690179102f0def902000b0028002100c1
:1042900005f0a0fa794b05000c000a980b99002252
:1042a00002f0d0f9129b0a900b9101330f930d9bf2
:1042b000002b07da002200232800210005f016f861
:1042c000002806d1109b129a934200dd26e10133ab
:1042d0000f9300220a980b99694b02f0b3f90a90e8
:1042e0000b9102000b002800210004f0d7fd0028ec
:1042f00000d015e10a9a0b9b2800210004f0f6ff7c
:10430000002806d01698179904f042ffc30700d47e
:1043100006e10a9a0b9b0798310002f093f812917c
:1043200049000a904908002803d1514b994200d115
:104330003ce70025059c10950795119b2600053b41
:10434000a34230d9029a039b0a98129903f0e2f92a
:1043500003f0b6fb1490159104f01aff031e00d071
:10436000e3e0079a002a00d1dfe00135029a039bbf
:104370001498159902f066f902000b000a98129938
:1043800005f028fa00220a9012913c4b02980399fa
:1043900002f058f9079b0290039101330793079aa3
:1043a0000f9b9342c9d1109b002b1ad1002d00d135
:1043b000fce00d9b002b00dcf8e0099bdb0700d53f
:1043c000f4e02e2230213b191a702a19ba185970bc
:1043d00001339a42fbd12c19ed43089b0134eb18b1
:1043e000089300263b191e700293119b5d1e069bcd
:1043f0007e55b34202da5b42069301360223119adc
:104400009b1a0793069b002b00d0bbe0079b5b1910
:10441000012b00d1b6e06a1e2d23002e00d1023bf5
:10442000bb540e9a023d5023192a00d92033791922
:104430000b70ac4202da029805f018fa0323099acd
:104440001340022b12d1089d023d002d0edd3800d5
:1044500005f0d0f97b19059a904200dba2e0b8186c
:1044600030212a0005f0bef900230c933800a9e69c
:104470000000f07f149800000000f03f0000b03f03
:1044800000002040069b0294039501330693029a94
:10449000039b1000190001f0d5ff04000d0002007d
:1044a0000b000798310004f0f9fc0028ead0029aca
:1044b000039b0798310004f0f1fc002800d1c7e607
:1044c0000298039900223d4b02f0bcf80022002321
:1044d00004f00cff00280fd0029803990022384bfb
:1044e00002f0b0f8002202900391354b079831009a
:1044f00002f0a8f80e000790304b029803990022b2
:1045000002f0a0f8069b02900391013b0693cee7d0
:1045100000232c4c069002930394b8e70f9ba4e66b
:10452000002300240a930b94f3e6109a002a0ad180
:10453000079a002a07d02e22ba55089a0134013a68
:104540000892012210922e1902e030223a550134cd
:10455000b442fad11800089a5730551b092b01dcd8
:10456000303318000e9b192b06d820230343613be0
:10457000192b01d805f06df96b1e741cb855089302
:104580000025f3e606980a2103f098fb013d30313f
:10459000795506980a2103f047fb089b0690013bda
:1045a00008932fe73a5c1a54013854e7099bdb065d
:1045b00000d416e72e233b55013412e70000e03ffc
:0845c000000050430000f03f31
:020000040000fa
:1045c800302100201c000000000000005c0a0020d0
:1045d80004000000000000007c1f0020c000000054
:1045e80000000000682100200c000000000000000e
:1045f800802100200800000000000000701d00203d
:104608000c02000000000000742100200a000000d5
:1046180000000000600a0020e00a0000000000001e
:104628000c2400202c000000010000000100000004
:1046380000000020000a0020d8200020000a0020e6
:1046480056979a317d1941d2b4ee6e15b599b2805c
:1046580001000000000000203c200020a400000011
:104668000000000000000020400a000000000000d8
:104678004c23002060000000010000000000000042
:1046880000c88ac50000e2430100000000a0bac4c7
:1046980000a0c7430200000000557049a3782752c4
:1046a80003000000343aa6403554db4a04000000f9
:1046b80059ae4740ba559b490500000000004040ec
:1046c800005c91450600000000c0bdc400c436452a
:1046d80007000000d0451740e8b25c454c21002097
:1046e8001c00000000000000400a00201800000024
:1046f800000000004819002014020000000000001b
:10470800580a002004000000000000009c2100203e
:104718004401000001000000000019000800190011
:104728000701010018220020b42100200000000029
:104738009c000300590001009e0004005e00030075
:1047480078000300890002009a000600c8000500ee
:10475800620003007a000100a90004006900060055
:104768006a000300c80002004b0001007b0004003f
:1047780058000300c80003005b0003006b0003003f
:10478800bb0001008700060091000100c800060078
:10479800c80003001446201ef74a70eb5b58191333
:1047a8001c4b945a2f740201a6125cc45b880c0639
:1047b800201b7e6334550e0375137fad65b4080462
:1047c800111350564a4d1717565b878a9e73ccc1f2
:1047d80051dbf4924475281a46469ca8505a36363e
:1047e800287a9e8645a10404271f6175275a262228
:1047f800a362a3c7625d170626279369e3903b0a65
:104808001918a74d50881b1225489b89111d0101b5
:10481800dd0e62ec54823f233048ae811e400d030a
:10482800e51982e22f522020aa3c7fc759902c26f6
:104838002a416685697a120c18378659341a141475
:10484800744777ab4f772c2b28617c7a2856141243
:10485800913f86b43f902d1b2f4aa28d5c1b0020f0
:104868000400000000000000902100200400000067
:1048780000000000e02000205000000000000000c0
:10488800e02200206c00000001000000ec22002063
:10489800e8220020ec220020000000002500000093
:1048a800481500200004000000000000000000007f
:1048b80000000000000000000000000000000000f0
:1048c8000000000000000000b9980000000000008f
:1048d8000000000000000000000000003585000016
:1048e80000000000000000000000000000000000c0
:1048f800000000000000000040150020080400002f
:104908000000000038240020200000000100000002
:10491800010000000300000000000000000000008b
:1049280000000000000000000000000088210020b6
:1049380088210020080000000000000094210020c9
:104948000400000000000000601b002010020000ae
:1049580000000000ac2300206000000001000000ff
:10496800010000000300000000000000000000003b
:10497800000000000000000000000000d5870000d3
:10498800000000000000000000000000799800000e
:104998000b7a00000000000000000000000000008a
:1049a80000000000000000000000000000000000ff
:1049b80000000000000000000000000000000000ef
:1049c8009821002004000000000000000000000002
:1049d800000000004444444444444444444444449f
:020000040000fa
:1049e8007047c0460b4b1a6801321a605a68002a91
:1049f80003d09a6859688a4202d900229a6070479f
:104a0800596801329a608a42f9d18021024a090123
:104a1800d161f2e7600a002000440041f0b5124c71
:104a2800124d83b06359002b03d1114e337b002bf9
:104a380001d003b0f0bd3700103701a9380001f0ec
:104a4800dffb019b002b02d101333373f1e7010037
:104a5800200001f0e5f960510028ead10121380071
:104a680001f0f2fbe5e7c046200c00209c0800009e
:104a7800600a002030b50c4c83b0283401a920000e
:104a880001f0befb050000f05bfe002802d0019b90
:104a9800002b01d103b030bd044b01211b8d200038
:104aa8002b7001f0d1fbf5e7600a0020001c0042e2
:104ab80010b50c0000f0befd431e98414042044072
:104ac800200010bd10b5044b0a002833010018005f
:104ad80001f0eefa10bdc046600a0020014b00212b
:104ae80018687047600a0020064b10b51c6802f071
:104af80035f963011b1b9b001b19db0018180021eb
:104b080010bdc046600a0020f8b50700fff7e6ffb1
:104b1800002600250400fff7e1ff001ba9418e4293
:104b280001d18742f7d8f8bdf8b50700fff7dcffd9
:104b3800002600250400fff7d7ff001ba9418e427d
:104b480001d18742f7d8f8bdf0b5de4657464e4644
:104b58004546e0b5002083b003f066fe00218b488f
:104b680002f02cf902f0d2f80a2004f0effd884c8c
:104b78000c23200020221030864901f079fa002801
:104b880000d0cee02000012328308022824901f0a5
:104b98006ffa002800d0c4e00423804a804e917d3b
:104ba80030000b43937501f0b1f8002800d0e0e025
:104bb800300001f0fff8071e00d0e0e0794d290031
:104bc80028004c31583004f0effc280064216c3088
:104bd80004f0eafc744d102128000c3004f0e4fcc9
:104be8002800fa214430c90004f0defcfdf7aafbd6
:104bf800380003f06ffe3800fef7caf807002800f7
:104c0800743004f0d1fc694b39781d001c3528003c
:104c18009a4604f0c9fc0123984602339946434654
:104c2800b8461f0043462800d95d013704f0bcfc94
:104c38000f2f0dd04b463b42f4d12d2004f086fdba
:104c480043462800d95d013704f0aefc0f2ff1d19f
:104c580047462800f97b04f0a7fc0a2004f076fdfb
:104c6800002253490c2002f099f900238022802168
:104c78006360504b120149039a6199614901996136
:104c8800090999615a61fa2327005b0063601037ac
:104c9800494bf3589846002b3dd1237b002b4fd02e
:104ca8005046483004f0e8fb434663608023802286
:104cb8001b019b469204914659463e4d3f48ab61c5
:104cc8005b02ab61aa611209aa616961494669611f
:104cd800fff71aff802359465b038022a961ab6165
:104ce8004b469203ab613649aa610c20002202f0c0
:104cf80055f9380001f0d8f9434600222c490c2018
:104d0800237302f04bf9fa235b0063602a4bf358d4
:104d18009846002bc1d05046274b2430f15804f058
:104d280043fc0023802280216360224b12019a6198
:104d380052029a61890352019a6199615a61fee7a8
:104d480001a9380001f048fa019b5a1e0192002b74
:104d58009ed00500062102f0b7ff0121380001f0be
:104d680063fa019b0c355a1e01922800002bf0d1e2
:104d78008ee7114b0b48f15804f016fcd1e70e4ba7
:104d88000848f158203004f00ffccae7ed4900004c
:104d9800600a0020a00a0020c0140020001c004265
:104da800200c00201069000090690000106a0000c3
:104db800254a0000004400419c08000088130000b8
:104dc800e9490000f0b54546de4657464e46e0b58f
:104dd80085b05d00149b884600920135002b00daef
:104de80023e1022b00dc90e0062b00dd1de10e9b89
:104df8001e016b109a46119b8619012b00d132e1d6
:104e0800fe239b050393002d00dc97e143469bb2ec
:104e1800a946002400271d00e91989b2300001f0d5
:104e28003bf8013724184f45f6d14d46129b012b0c
:104e380000d151e1109b002b00d01ee1a146009b40
:104e48005f1b00239b46002f00dc34e143469bb2e6
:104e58005a1e92b20192521992b29a4400927a1c46
:104e6800d0460292aa460127350008e0109ba144cb
:104e7800002b00d015e1029b01379f4228d0019bef
:104e8800beb2f11889b2280001f006f8009b241a76
:104e9800f11889b2280000f0ffff129b0419012bba
:104ea800e4d1e217a31853409944109b002be2d099
:104eb8004644b1b2280000f0efff53465843001ba8
:104ec800c317c01858408344029b01379f42d6d16c
:104ed800504604f00dfb109b041c002b00d1eee0a3
:104ee800584604f005fb039902f030fd211c02f03e
:104ef80085ff139b041c012b00d1e2e0149b052bba
:104f080000d10de1159b1c6092e00e9b1e016b10f9
:104f180086199a46002d00dc0ee18bb2a9460024c2
:104f280000271d00e91989b2300000f0b5ff0137ec
:104f380024184f45f6d14d46109b002b00d0e0e0d9
:104f4800009b591b002900dc7ae0434650469ab280
:104f5800531e5b199bb29b1a80b2013301311b1a95
:104f68000091029301212b00171835008046bfb22b
:104f7800a246a1460e009b460be0a24500dda246d4
:104f8800109b0137002b19d1009b0136bfb29e42fe
:104f980027d04346f91a89b2280000f07dff029b0a
:104fa800241af91889b2280000f076ff04194c4534
:104fb800e3dd109ba1460137002be5d0b9b22800ec
:104fc80000f06aff5b465843019b001b98422adcad
:104fd800039b8342d8dd009b01360390bfb29e42fb
:104fe800d7d1584604f01efb109b06000f00002b7b
:104ff8002dd0019804f016fb32003b0002f086fb2e
:1050080003f0c6fa041c039804f00cfb3b003200c2
:1050180002f07cfb03f0bcfa011c201c04f0cefb60
:10502800159b186004e00190aee7494b159a136090
:10503800012005b03cbc90469946a246ab46f0bd5f
:10504800280004f0effaa24606000f00a1464846e1
:1050580004f0e8fa32003b0002f058fb03f098fa3b
:10506800041c5046d0e70f9804f042fa011cfe20b9
:10507800800502f0c3fe0390c5e65146414489b25b
:10508800300000f009ff6843031b9b46a146009bc4
:105098005f1b002f00ddd9e6280004f029fa041c64
:1050a8001ee74644b1b2280000f0f6fe53465843c6
:1050b800001b834408e7280004f01afa041c484639
:1050c8000fe7002104f0adf8002800d01ae780238c
:1050d8001b069c46644411e7e217a31853409946ff
:1050e800109b002b00d1aae65146414489b23000fa
:1050f80000f0d2fe6843001bc217831853409b463a
:10510800c5e75146414489b2300000f0c5fe684306
:10511800009a031b0393511b002911dd019314e727
:105128000021201c04f07df8002800d0eae6802346
:105138001b069c466444e5e60024fde6002475e66b
:10514800280004f06ffa039b06000f00019350e754
:045158002b529a44f8
:020000040000fa
:10515c000023f0b506001500afb005910193059939
:10516c000b78002b00d10fe101235b420a930eabad
:10517c0000240c93802309940b940d930b5d002b4e
:10518c0001d0252b2ad1002c06d02200300003f0b0
:10519c008dff059b1b190593059b1a78252a00d0ba
:1051ac00e7e0013302930593022310219c46082764
:1051bc00059803782b2b1bd025d8202b1bd0232b09
:1051cc001dd02a2b2ad003f023fe0b90059b1a78b6
:1051dc00303a092a33d801330593f7e70134cde788
:1051ec000122099b80180393134309930590dfe771
:1051fc000423099a0ee0099b03933b430be0099ba4
:10520c0003930b4307e02d2bead0302bd9d1624608
:10521c00099b0393134309930130e7e72b68013093
:10522c001a1d1b6805902a600b93002b07da099a4c
:10523c005b420392012203990b934a400992099b0a
:10524c00da0702d5022293430993059b1a782e2a7a
:10525c000ed10022581c0a9205905a782a2a28d17d
:10526c00023305932b681a1d1b682a6003930a935b
:10527c0005a803f0a1ff059b0700187804f0dcfae1
:10528c00692800d183e035dc632800d1d6e01bdc33
:10529c00252800d1dfe0612859d0252306aa1370f8
:1052ac00029b0593002309930b93013b0a93023352
:1052bc00b2e003f0adfd0a90059b1a78303a092a4a
:1052cc00d6d801330593f7e7642860d06728e4dc6f
:1052dc002a00390006a804f0a2f8002800d1a9e0a1
:1052ec00059b09a95a1c05921b7806aa3000fef7eb
:1052fc00a5fc3de0702800d17de016dc6e2800d1c5
:10530c0091e06f28c9d12b000022390006a802f0c9
:10531c005dfa002800d18de0059b06aa013309a98e
:10532c003000059303f02af822e0752840d0782845
:10533c004fd07328b1d1802f00d07be0059b2a6819
:10534c0001330593131d2b601268002364e02a00bf
:10535c00390006a804f063f8002800d16ae0059b28
:10536c0009a95a1c05921b7806aa3000fef7e2fe2a
:10537c002418019b1c19a34200dc74e04f223b4b08
:10538c001a6001235b42019301982fb0f0bd2b00f2
:10539c000122390006a802f019fa00284ad0059b10
:1053ac0006aa013309a93000059302f0ddfbdfe703
:1053bc002b000022390006a802f008fa002839d088
:1053cc00059b06aa013309a93000059303f082fa64
:1053dc00cee72b000022390006a802f0f7f90028ce
:1053ec0028d0059b5a1c05921b7806aa09a93000e7
:1053fc0001f0d1fbbce72b000022f02106a802f043
:10540c00e5f9002816d0059b079a01330593069bf6
:10541c00134306d1164a163209a9300003f02afbb1
:10542c00a6e77823e1e7019b39001a1906a82b009f
:10543c0003f046f8059b013305939ae7802ff9d1c9
:10544c00059b013305932b681a1d1b682a6006aa5d
:10545c0013700123e0e7802fecd1059b06aa0133e2
:10546c0005931070f5e7019479e6c0469021002071
:04547c006496000032
:020000040000fa
:105480008022064b1a76793a5a831a7e520704d53f
:1054900004211a8d1a7e1142fbd17047001c004274
:1054a000094a0a4b13600a4b9381c0239b02536045
:1054b000d369002bfcd1022113680b431360024a0d
:1054c000d369002bfcd17047001c0042040110403e
:1054d0002bf6ffff00487047006cdc02f8b50a00ad
:1054e000041e45d003680020002b40d0002900d1c5
:1054f000394a190191423dd9d900914244d8590bfa
:10550000d804002303f0aafc802102254902091acd
:10551000002000292bd0314b02301a6882431a60d8
:10552000da69002afcd189b299816168a6686d03a5
:10553000e468022943d01868294a31431040802288
:105540000543520415431d605a68264802400a4329
:1055500022435a60214ad369002bfcd102211368ef
:105560000b4313601d4ad369002bfcd10120f8bd09
:105570000020fce7190b1805002303f06ffc8021c5
:105580004902091a0025c3e75900c91800209142b1
:10559000edd8002118001e000f0036184f41801969
:1055a00079410b04050c1d4306042900300000233b
:1055b00003f054fc80214902091a0425a8e71a685f
:1055c00007490a401543310047221d6058682143ae
:1055d000904301435960bde7006cdc02001c0042af
:1055e000ff1ffff0b8dfffff072310b5054a548bfc
:1055f0001c4004d0528b134201d0fff741ff200022
:1056000010bdc046001c00428023044a5b02516862
:105610000b435360d369002bfcd17047001c004240
:10562000044a054953680b405360d369002bfcd1f1
:105630007047c046001c0042fffffeff30b5002847
:1056400017d000290fd0012407250b4a0139137efa
:105650001c42fcd053682b40012b06d0037801304c
:1056600013850029f2d1012030bd03880230138553
:10567000f7e70020f8e7c046001c00420120024b7b
:105680001b7e18407047c046001c0042024b187e2b
:105690008007c00f7047c046001c00420121034a2a
:1056a000137e1942fcd080b210857047001c004266
:1056b0008023044a9b0251680b435360d369002b3b
:1056c000fcd17047001c0042044a054953680b4056
:1056d0005360d369002bfcd17047c046001c0042c8
:1056e000fffffdff70b504000d00002822d0154b10
:1056f0005b8b5b0720d10020002d20d004210726e2
:10570000104a137e1942fcd0538b1e4212d15368ab
:105710003340012b0ad0138d2370013401308542b0
:10572000efd1281a45426841c0b204e0138d2380ae
:105730000234f3e7002070bdfff7a2fedbe728008c
:10574000efe7c046001c0042024b187e4007c00f26
:105750007047c046001c0042014b188d80b2704754
:10576000001c0042f0b557464546de464e46804690
:1057700008000721e0b59246554a83b052681140af
:10578000019107d0002800d08ce0002b02d0da076e
:1057900000d58ae04246541ea24152421040524671
:1057a000002a00d183e04a4a127e520705d504251b
:1057b000474a916a117e0d42fbd10425444a548b1d
:1057c0002c4380255483147e2c431476002291466a
:1057d000984201d21a1a9146019a002a5cd10124fa
:1057e0003b4d2a7e1442fcd00022002704260125ce
:1057f0008346374c5f4511d0791c8c4601990029ae
:105800002bd14146c95d6746a1625846002b14d191
:10581000217e0d42fcd083465f45edd149460029eb
:105820002dd00199002927d1ff31a16201214942e0
:105830008c465846e144002bead0217e0e42fcd033
:105840008346a06a9342d5d9511c8c460199002900
:105850000bd1514688546246cce741467f00795ac5
:105860006746c905c90da162cfe7c1055046520080
:10587000c90d11526246bde71649a162d6e7022260
:1058800013490b7e1a42fcd0012003b03cbc904669
:105890009946a246ab46f0bd4a4652085b0840080e
:1058a00091469ce7c20700d46fe70020ede7084a65
:1058b0000023147e610700d579e70425548b2c431f
:1058c00080255483147e2c4314760022914683e76e
:1058d00000080042ff0100008023074a9b0253603a
:1058e000d369002bfcd103331373044b1360024aba
:1058f000d369002bfcd17047000800420e00303005
:1059000070b50500081e00d11c4802221c4c2368fb
:1059100093432360e369002bfcd1002d2bd02b682f
:10592000590002f001fb821e03000020fe2a19d854
:105930002268144968680a402260aa682168024304
:105940000a4322600722013bdbb22373636893435f
:105950006360ea6863681343094a6360d369002b94
:10596000fcd101200221064a13680b431360d3695e
:10597000002bfcd170bd0020f4e7c046006cdc02b7
:1059800000080042ffffffcf10b50400002905d03a
:10599000002803d02000fff7e5fe10bd0020002bfb
:1059a000fbd0002af6d1f8e710b50023002905d076
:1059b000002803d00022fff7d5fe0300180010bd19
:1059c000020010b50020002905d0002a03d00b00ea
:1059d0000021fff7c7fe10bdf8b500230e00032716
:1059e000104c05002360013363602100836b0322a8
:1059f0003000a76003f00cfe042262600132a26056
:105a0000aa6b4300944621006344300003222760c0
:105a100003f03ef9286b2a68a96b03f081f8012096
:105a2000f8bdc046400a0020f8b56c244c43041968
:105a30002169206b00f010fb061e12dd00250a4fc5
:105a400002e00135ae420cd023690022013323610c
:105a50003900a36a200003f075fd0028f1d0012071
:105a600001e001204042f8bd400a0020f0b5d646d2
:105a70004f4646460400c0b5638b007e4f4d4343fe
:105a80009a460123e26a99462b60534694460026c3
:105a900088464b4f9b0082b06344019329003b0032
