:020000040000fa
:10000000f87f002065860000558f0000598f0000a2
:1000100000000000000000000000000000000000e0
:10002000000000000000000000000000f369000074
:100030000000000000000000f369000035710000be
:10004000f3690000f3690000f3690000f369000040
:100050000d6f0000f3690000f3690000f369000010
:10006000f3690000f3690000f3690000f369000020
:10007000f3690000f3690000714d0000f3690000ae
:10008000f3690000f3690000ed6a0000f369000005
:10009000f36900000000000000000000f3690000a8
:1000a000f3690000f3690000f3690000f3690000e0
:020000040000fa
:1000b000f8b5c046f8bc08bc9e46704745860000af
:1000c000f8b5c046f8bc08bc9e4670471d860000c7
:020000040000fa
:0800d000b06300000100000014
:020000040000fa
:1000d80070b582b06b469d1d2b0001224e21060093
:1000e80006f01af96b46dc1d01224d212300300071
:1000f80006f012f92a7821780020130703d4032385
:100108001340022b01d002b070bd0120c908414044
:1001180001200840f7e7c0460278437812021343eb
:100128000b80704700b583b06b4607331970012206
:10013800762106f037f903b000bdc046f0b5d646c3
:1001480046464f46c0b582b06b46dd1d01230122ed
:1001580098462b7076212b00070006f023f96b4692
:100168000400053301227a21380006f0d5f86b46e1
:100178000443063301227c21380006f0cdf8002321
:1001880004432b7001222b007621380006f00af96f
:10019800434601ae04433370012233001121380075
:1001a80006f000f9044306d0200002b01cbc9046bb
:1001b8009946a246f0bdfa20800005f0e1fb4346cf
:1001c80001222b7076212b00380006f0ebf86b46e5
:1001d8008146053301227a21380006f0e3f84b46c0
:1001e8000343994601222b00762138002c7006f033
:1001f800d9f84b4603439946012233002d21380094
:1002080006f08af84b461022034399463378924603
:100218001a424ed0380006f047f8434601222b70a8
:1002280076212b00380006f0bdf84b46034399466b
:100238006b46012206337c21380006f0b3f84b46a2
:1002480003439946012233007b21380006f064f805
:100258004b4606220343994633787b219343022277
:100268001343337001223300380006f09bf84b46e5
:100278000343994601222b00762138002c7006f0a2
:1002880091f84c463300044301224c21380006f013
:1002980043f85246337804431a401300064abb54c5
:1002a8003b7e022b00d07fe7fb6838009847044369
:1002b8007ae70c24644277e76808000010b50b0061
:1002c8000122752106f028f810bdc046f0b583b0ac
:1002d8006b46dc1d23000f0001224d21060006f0ad
:1002e8001bf823780500002f0bd1082293432370b5
:1002f800012223004d21300006f054f8284303b0b2
:10030800f0bd08221343f2e7f0b54546de465746ee
:100318004e46e0b583b06b465e1d330001224e2188
:100328000400032705f0f8ff3378050098461f40be
:10033800022f01d01b0755d50023994601ab9a46d9
:10034800534601225221200005f0e6ff53461a7851
:100358000f2313406c4a0543a25c522113435246b3
:10036800200013705346012206f01cf833000543a1
:1003780001224e21200005f0cfff032233780543e8
:100388009343022213433370012233004e2120008d
:1003980006f008f80543c82005f0f2fa022f00d14c
:1003a80081e043461b0708d44b46c82b00d98ae096
:1003b80000212000fff78aff0543544be358072b21
:1003c80043d80022514be250002f03d1504be35c3d
:1003d800002b6fd1280003b03cbc90469946a2463a
:1003e800ab46f0bd06236b449946012250212000fc
:1003f80005f092ff4b461a780f231340013b054343
:100408000e2b54d8434a9b009b589946082120003c
:10041800fff75cff434605431b0700d08ee73c4bc4
:1004280001aae35c9246002b52d107236b449b46fa
:1004380001224c21200005f06fff5b461a7810233b
:100448001340354a0543a3547ae76b469e1d502155
:1004580033000122200005f05fff0f239946327810
:100468000543134098460e3b591e8b4149460d33b0
:100478008a4313434131012233702000330005f0d1
:1004880091ff0543c82005f07bfa4a46337850218e
:10049800934342461343337001223300200005f092
:1004a80081ff05438de70022184be25092e71b4b72
:1004b8009946abe705f060fa86231b019c46644425
:1004c8002060616086e74846c83805f059fa6fe74a
:1004d80013005f210122200005f01eff53461a7801
:1004e8000323514613430b700d4b0543e35c002b6c
:1004f80002d013231a430a70534601225f212000b9
:1005080005f050ff054390e7720800006c080000f2
:100518006a080000288500006808000000c4090077
:1005280069080000f0b54746ce4680b583b06b46f3
:100538009d1d2b0001224e21040005f0edfe052231
:1005480003262b786a4407001e409046022e4ed0a0
:100558001b0738d0434601225221200005f0dcfe5b
:1005680043461a780f231340464a0743a25c522198
:1005780013434246200013704346012205f012ff40
:100588002b00074301224e21200005f0c5fe03225f
:100598002b780743934313432b7001222b004e21e2
:1005a800200005f0fffe0743c82005f0e9f9002efa
:1005b80003d1354be35c002b3bd1380003b00cbcb6
:1005c80090469946f0bd304be35c002b3ad10723a7
:1005d8006b44994601224c21200005f09dfe4b46b4
:1005e8001a7810231340294a0743a354b2e71b077c
:1005f800b0d407236b44984601225021200005f00f
:100608008bfe43461a780f231340013b07430e2bfa
:1006180034d81f4a9b009b58984608212000fff7b2
:1006280055fe0743404605f0abf905236b44984651
:1006380090e705f0a1f986231b019c4664442060dd
:100648006160bae713005f210122200005f064fe13
:1006580043461a780323414613430b700d4b074357
:10066800e35c002b02d013231a430a70434601228d
:100678005f21200005f096fe0743a8e7064b984641
:10068800cbe7c046740800006a080000680800004c
:10069800288500006908000000c40900f0b5ce46ae
:1006a80047466f4b80b5c418236883b006000133f2
:1006b80000d176e005f060f922686368994252d962
:1006c800801a9941002900d1c2e06b469c1d230085
:1006d80001224e21300005f01ffe0c25032322784d
:1006e800804615401340022b60d06b465f1d1307f0
:1006f80041d03b0001225221300005f00dfe434657
:100708000f22034398463b7852219343554a3000c1
:10071800b25c13433b7001223b0005f043fe4746a1
:100728002300074301224e21300005f0f5fd0c227d
:1007380023780743934313432370012223004e2158
:10074800300005f02ffe0743c82005f019f9002de9
:1007580003d1454bf35c002b51d1380003b00cbcde
:1007680090469946f0bd994245d00124002564423f
:1007780000196941a4e73c4bf35c002b47d10723e0
:1007880001226b444c213000994605f0c5fd4346d3
:10079800034398464b461a7810231340334ab35400
:1007a800a7e76368002b00d084e78ee76b465f1de0
:1007b80013079ed407236b44994601225021300029
:1007c80005f0aafd4b461a780f2347461340013b14
:1007d80007430e2b39d8264a9b009b589946082177
:1007e8003000fff773fd0743484605f0c9f86b462c
:1007f800b8465f1d7de7904200d961e7b5e705f08f
:10080800bbf81c4b9c46664430607160a5e73b0012
:1008180001225f21300005f07ffd434603439846df
:1008280003233a7813433b70134bf35c002b02d03d
:1008380013231a433a703b0001225f21300005f070
:10084800b1fd43460343984699e70c4b9946c6e7e2
:100858000b4b984200d938e70a277f427de7c0460c
:1008680078080000750800006a08000068080000a1
:1008780028850000580800006908000000c4090025
:10088800f049020070b582b06b46dc1d23000122de
:100898005421060005f040fd022223780500934309
:1008a80013432370012223005421300005f07afd00
:1008b800284302b070bdc04670b582b06b46dc1ddf
:1008c800230001225421060005f026fd0222237888
:1008d800050093432370013a23005421300005f0aa
:1008e80061fd284302b070bdf0b583b06b46dc1dd6
:1008f80023000e0001225421070005f00dfd0822f7
:100908002378050093431e43073a230054213800f7
:10091800267005f047fd284303b0f0bd0023f0b56d
:10092800ce4647469946002380b583b001ad2b805b
:100938004b46ab706b46df1c04230c003b70012256
:100948003b007621804605f02dfd2b000600032292
:100958004f21404605f0e0fc4b4606433b70012220
:100968003b007621404605f01dfd01232a783043df
:10097800511119402170d110194061709110521015
:100988001a40e2706a781940a1701111194021715a
:100998005110194061719110d2101a40e271aa7871
:1009a8001940a17151111940217211111940617238
:1009b800d11019401340a172637303b00cbc904668
:1009c8009946f0bd0023f0b5ce4647469946002328
:1009d80080b583b001ad2b804b460c00ab70022272
:1009e8002b006521804605f097fc6b46df1c04232d
:1009f80006003b7001223b007621404605f0d2fc00
:100a08006b460643063301224d21404605f084fc1f
:100a18004b4606433b7001223b007621404605f0d9
:100a2800c1fc01232a783043911119402170d1105b
:100a380019406170911052101a40e2706a7819409a
:100a4800a170d11019402171190011406171511024
:100a580092101a40e271aa781940a17151111940f7
:100a68002172111119406172d1101940a1725110ef
:100a78001940e1729110194013402173637303b058
:100a88000cbc90469946f0bd0023f0b5ce464746cb
:100a98009946002380b583b001ad2b804b460c00ee
:100aa800ab7002222b006821804605f035fc6b46ae
:100ab800df1c042306003b7001223b0076214046e0
:100ac80005f070fc6b460643063301224e21404672
:100ad80005f022fc4b4606433b7001223b00762181
:100ae800404605f05ffc01232a78304391111940f4
:100af8002170d11019406170911052101a40e270a3
:100b08006a781940a170d11019402171190011405b
:100b18006171511092101a40e271aa781940a171be
:100b2800511119402172111119406172d1101940e7
:100b3800a17251101940e1729110194013402173ac
:100b4800637303b00cbc90469946f0bdf0b5c64639
:100b5800002300b582b001ad2b80ab706b46de1c64
:100b680004230c003370012233007621804605f0ff
:100b780019fc2b00070003224f21404605f0ccfb4f
:100b88002e222b780743934322785bb2002a01d0a8
:100b9800202213436278002a01d008221343a27846
:100ba800002a01d004221343e278002a01d002224d
:100bb80013431e222b706b78934322795bb2002a71
:100bc80001d0102213436279002a01d00222134374
:100bd800a279002a01d004221343e279002a01d025
:100be800082213436b703923217aa8784a1e914151
:100bf800627a9843531e9a4113019c46a37a647bf8
:100c08005a1e9341621e9441624640b220434901f4
:100c180001430a43db001343ab7003222b004f212f
:100c2800404605f0bffb0023074333700122330021
:100c38007621404605f0b6fb384302b004bc904626
:100c4800f0bdc046f0b5d6464f4646460023c0b56f
:100c580082b001ae0c003380b370022233006521ec
:100c6800804605f059fb6b46df1c042305003b70ea
:100c780001223b007621404605f094fb6b46054374
:100c8800063301224d21404605f046fb4e223378bb
:100c98000543934322785bb2002a01d040221343d4
:100ca8006278002a01d008221343a278002a01d0d2
:100cb80004221343e278002a01d00222134333703e
:100cc8000f2372789a43237952b2591e8b41617966
:100cd800db00481e81410a431343a279002a01d050
:100ce80002221343e279002a01d0042213437370cd
:100cf8003f23b078984343b2207a9946411e8841f1
:100d08004301607a9c46411e8841a17a00014a1e2f
:100d18009141e27ac900531e9a4153009a46237bb7
:100d2800647b5a1e9341621e94414a4614436246ac
:100d380014435246204301430a439b001343b370b4
:100d48006b46012206334d21404605f02bfb00235c
:100d580005433b7001223b007621404605f022fb0b
:100d68003300054302226521404605f01bfb28435a
:100d780002b01cbc90469946a246f0bdf0b5d646d6
:100d88004f4646460023c0b582b001ae0c00338002
:100d9800b370022233006821804605f0bdfa6b4625
:100da800df1c042305003b7001223b0076214046ee
:100db80005f0f8fa6b460543063301224e214046fa
:100dc80005f0aafa4e2233780543934322785bb2a2
:100dd800002a01d0402213436278002a01d0082259
:100de8001343a278002a01d004221343e278002a90
:100df80001d00222134333700f2372789a43237968
:100e080052b2591e8b416179db00481e81410a4369
:100e18001343a279002a01d002221343e279002a5f
:100e280001d00422134373703f23b078984343b230
:100e3800207a9946411e88414301607a9c46411eaa
:100e48008841a17a00014a1e9141e27ac900531ee5
:100e58009a4153009a46237b647b5a1e9341621e33
:100e680094414a4614436246144352462043014380
:100e78000a439b001343b3706b46012206334e218d
:100e8800404605f08ffa002305433b7001223b00e2
:100e98007621404605f086fa330005430222682190
:100ea800404605f07ffa284302b01cbc904699469c
:100eb800a246f0bdf0b58fb06b46012206332d2156
:100ec800050005f029fa041e03d16b469b791b0720
:100ed80002d420000fb0f0bd02ab02221d21280071
:100ee80005f01afa474b0400eb5c102b51d06a4608
:100ef800517a127a090207ab0a435a8203ae3300c9
:100f080006221f21280005f007fa3e4f0443eb5d37
:100f1800102b59d071783278090207ab0a43da806e
:100f2800f178b27809020a431a8171793279090293
:100f38000a435a8105ae330006222521280005f010
:100f4800ebf9304f0443eb5d102b28d071783278e1
:100f5800090207ab0a439a81f178b27809020a4379
:100f6800da817179327909020a431a826b6a002b95
:100f780001d007a8984702232a7e9a43a9d16b4635
:100f880007331a7075210132280005f00bfa044363
:100f98009fe72e2102a86944fff7bef8aee70aa929
:100fa8003000fff7b9f8eb5d102b23d12a2116206a
:100fb80069446844fff7b0f8eb5d102b20d10ba90a
:100fc80006a8fff7a9f8d1e7222130006944fff706
:100fd800a3f8eb5d102b11d10e2009a96844fff787
:100fe8009bf8eb5d102b07d1262104a86944fff775
:100ff80093f89fe707abafe707ab96e707ab8fe739
:1010080007abaee76808000001380e2803d8034b89
:101018008000c05870470248fce7c0462885000099
:1010280000c40900f0b5c64600b582b06b46dc1da9
:10103800230001220f004e21050005f06df903235e
:10104800227880461340022b1fd0114beb580133f6
:101058000f4a5021ab506b469e1d330001222800d9
:1010680005f05af90f223378040093431f430e3ad0
:10107800330050212800377005f094f94346204387
:10108800184302b004bc9046f0bd0023e0e7c04618
:101098006c080000f0b583b06b46dc1d23000e0021
:1010a80001224f21070005f037f90f2223780500a8
:1010b80093431e430e3a23004f213800267005f053
:1010c80071f9284303b0f0bdf0b583b06b46dc1d61
:1010d80023000e0001225021070005f01df91f23ef
:1010e8002278050013401e430122230050213800b6
:1010f800267005f057f9284303b0f0bdf0b583b06a
:101108006b46dc1d23000e0001224f21070005f06d
:1011180003f91f232278050013401e4301222300f0
:101128004f213800267005f03df9284303b0f0bd83
:1011380030b50d4b83b0c35c0d00002b03d00b4bb7
:10114800c35c012b0cd06b46dc1d2300012250210f
:1011580005f0e2f81f22237893432b7003b030bdcb
:10116800002300200b70f9e7690800006a080000f6
:1011780030b50d4b83b0c35c0d00002b03d00b4b77
:10118800c35c012b0cd06b46dc1d230001224f21d0
:1011980005f0c2f81f22237893432b7003b030bdab
:1011a800002300200b70f9e7690800006a080000b6
:1011b800f0b5c64600b582b06b46dc1d0e002300b4
:1011c80001225221050005f0a7f80f278046237851
:1011d80001223b403343237052212300280005f0ad
:1011e800e1f843460343181e02d1034bbe43ee54b5
:1011f80002b004bc9046f0bd72080000f0b5c646c7
:1012080000b582b06b46dc1d0e002300012252217e
:10121800050005f081f80f278046237801223b401e
:101228003343237052212300280005f0bbf84346be
:101238000343181e02d1034bbe43ee5402b004bc54
:101248009046f0bd74080000f0b5c64600b582b0ff
:101258006b46dc1d0f00230001225221050005f01a
:101268005bf80f26804623780122b3433b43237063
:1012780052212300280005f095f843460343181e21
:1012880002d1034b3e40ee5402b004bc9046f0bd80
:1012980075080000f0b5c64600b582b06b46dd1d86
:1012a80001222b004e21060005f036f82a780700a7
:1012b800130703d003231340022b28d16b460122c6
:1012c80006331621300005f027f805236b449846ad
:1012d80000234246040013701621434601223000c1
:1012e80005f060f86b4604430633012216213000ee
:1012f80005f058f83c430443434601227521300069
:1013080005f00af8204302b004bc9046f0bd6b46d5
:10131800022205331a704b21013a300005f042f8d9
:101328003843f0e7f0b583b06b469d1d2b000122d2
:101338004e21040004f0f0ff0c222b781a421bd136
:10134800224e093a9343a25d002a17d00121204a70
:101358002b70a1542b0001224d31200005f022f8fa
:10136800002105002000fef7b1ffa35d0543002b17
:1013780012d1280003b0f0bd032293432b70012241
:101388002b004e21200005f00df80021050020005b
:10139800fef79cff0543ece76b46df1d3b0001228f
:1013a8005f21200004f0b8ff13223b780600934326
:1013b8003b70123a3b005f21200004f0f3ff064324
:1013c8002000fff767ff35430543d2e76a080000ae
:1013d8006b080000f0b583b06b469d1d2b00012201
:1013e8004e21040004f098ff03232a7806001340d6
:1013f80034d1404f0c339a43e35d002b32d00121a6
:101408003d4b2a70e15401222b004d31200004f09d
:10141800c9ff3043050004f0affa384be3181860f1
:101428005960e35d002b2dd06b46df1d3b00012288
:101438005f21200004f070ff13223b7806009343dd
:101448003b70123a3b005f21200004f0abff3043b1
:1014580005432000fff71eff054313e0022b14d0bd
:101468000c239a432b002a704e210122200004f0fd
:1014780099ff3043050004f07ffa204b9c466444f2
:1014880020606160280003b0f0bd08212000fef74d
:101498001dff0c2207002b784e2193432b700b3a2b
:1014a8002b00200004f07eff3d00054304f064faa1
:1014b800124b0122e318186059606b46df1d3b0090
:1014c8005021200004f028ff0f233a7835431340b9
:1014d800013b05430e2b0bd8094a9b009858400046
:1014e80004f04efa00212000fef7f0fe0543c9e79c
:1014f8000448f5e76a0800006b0800007808000057
:101508002885000000881300f0b5de46574645469a
:101518004e46e0b58fb004aa9446072363449a4622
:101528000023524613706346012206332d2104001e
:1015380004f0f2fe051e04d1062204ab9b791a4280
:1015480007d128000fb03cbc90469946a246ab464e
:10155800f0bd06ab043a2e21200004f0ddfe002881
:1015680000d04de104ab5b7a04aa127a1b021a433d
:101578000092e6d0d84be35c002b00d042e1102368
:1015880098469946237e022b00d08ce1009b2700c9
:101598004d460026994644373b002a00302120005a
:1015a80004f0bafe002800d0bae10136b6b24744ca
:1015b8004e45f1d100230025984607ae0ce11000f6
:1015c8001700911c0291111d03914431611801917a
:1015d800c24944308b46615c46372018e719102908
:1015e80000d127e1a2184078443212780002024361
:1015f800f280029a7978a71844373a7809020a43a0
:101608003281019a5178039a0902a2184432127859
:101618000a4372810735adb29a0629d528002f00f2
:101628002a1d4432a2180192ac4a44309346a25c67
:1016380046372018e719102a00d119e162194178b4
:101648004432127809020a43b281aa1c7978a71891
:1016580044373a7809020a43f281019a51782a1ddf
:10166800a2184432127809020a4332820635adb212
:1016780060221a421dd0503a1a4200d1c6e0280012
:10168800964a4430a25c2018102a00d11be1621946
:1016980041784432127809020a437282904a122031
:1016a800315e0235adb2914203d0102231680a434f
:1016b80032600c221a421dd02800884a4430a25cad
:1016c8002018102a00d1afe062194178443212780c
:1016d80009020a43b28004220235adb21a4206d08a
:1016e8008049615c002902d131680a4332600021d7
:1016f8007c4aa154102240211a40194227d0784927
:101708000627f05f884222d00827f05f88421ed063
:101718000a27f05f88421ad0002a0ed06119080003
:1017280044300078000930750800463145300078ab
:101738000978000909097075b175862109016718ca
:101748003968013100d1d9e0590700d406e199067a
:1017580027d563490c27f05f884222d00e27f05f17
:1017680088421ed01027f05f88421ad0002a0fd076
:101778006019010044310f780f210f40f7750700f9
:1017880045373f7846300f4037760078014071760c
:10179800554967183968013100d1b8e05b0700d4b2
:1017a800c3e0002a01d00335adb2636a002b01d033
:1017b800300098470222237e934305d15346013acd
:1017c8007521200004f0eefd434601339bb2984694
:1017d800009b984500d189e0002333602b004433f7
:1017e8009946a1444b461b786a1c59b292b200290b
:1017f80000da7de04021194200d0e0e615000be751
:1018080005009ee6142398469946bbe661194431c3
:101818000978013549b27182adb2803100d148e70b
:1018280031680a43326044e708a9fef775fc4b4665
:101838001b7850e704ab9c4602316144fef76cfc10
:101848005b46e35c102b00d0a4e009a93800fef742
:1018580063fc5b46e35c102b00d098e004ab9c462d
:10186800162101986144fef757fc4b461b78d1e6d8
:101878000aa9fef751fc5b46e35c102b00d08fe011
:1018880004ab9c461a2138006144fef745fc5b46d0
:10189800e35c102b00d080e00ba90198fef73cfc1c
:1018a8004b461b78e2e64246009b30215a43230010
:1018b8002000443304f030fd051e00d17ae62000f4
:1018c800fff7e8fc3de604ab9c461e216144fef7a9
:1018d80023fc4b461b78e1e6690800006808000015
:1018e8000080ffff6b08000058080000454628e606
:1018f80001252000fff7cefc6d4222e67968002919
:1019080000d021e730680131014331601fe7796871
:10191800002900d042e7022331680b43336040e7d7
:1019280005002000fff7b6fc0be604f025f83a683e
:101938007b68801a9941002902d11b4b984208d92b
:101948000122002352423a607b600223326813432b
:1019580033604b4610221b781a4022e704f00cf83b
:101968003a687b68801a9941002902d10f4b984246
:1019780008d90122002352423a607b600123326871
:10198800134333604b4610221b781a40dfe64b4660
:101998001b7836e64b461b782be64b461b785ce6f5
:1019a8004b461b7851e6c0465fea00001f4e000018
:1019b800f0b5134e83b0835d04000025002b05d0dd
:1019c80028000f4a0133a35403b0f0bd6b46df1d56
:1019d8003b000122542104f09ffc10223b780500b3
:1019e800934313433b7001223b005421200004f031
:1019f800d9fc0543c82003f0c3ffa35de0e7c04658
:101a080054080000f0b5114e0400835d83b0002037
:101a1800002b04d00d4a013ba35403b0f0bd6b4624
:101a2800df1d3b0001225421200004f075fc102228
:101a38003b78050093433b700f3a3b00542120004c
:101a480004f0b0fca35d2843e4e7c0465408000056
:101a5800f0b5c646042300b582b001ad0e002b7068
:101a680001222b004b21804604f09cfc6b46df1cb6
:101a7800012304003b7001223b007621404604f01c
:101a880091fc2b00044303226221404604f044fced
:101a9800002304433b7001223b007621404604f0ba
:101aa80081fcf0216b782a781b029b18aa7809031d
:101ab80012040a409b182043336002b004bc9046cd
:101ac800f0bdc046f0b5c64600b582b005006b460d
:101ad800002946d0df1d012301223b7076213b00ff
:101ae80004f060fc6b469e1d0400330001227b213c
:101af800280004f011fc062233780443934304229f
:101b08009046424613433370012233007b2128005c
:101b180004f048fc002304433b7001223b0076217b
:101b2800280004f03ffc3300044301224d21280023
:101b380004f0f2fb042233780443934342461343f0
:101b48003370012233004d21280004f02bfc0821ba
:101b580004432800fef7c8fe204302b004bc9046a8
:101b6800f0bd9e1d330001224d2104f0d5fb042257
:101b78003378040093433370033a33004d2128002f
:101b880004f010fc2043e8e710b582b06b46dc1d7a
:101b9800230001224d2104f0bffb20784007c00f2d
:101ba80002b010bd0122024bc25400207047c0464b
:101bb800690800000022024bc25400207047c0464a
:101bc80069080000f0b5c646002200b586b00023bb
:101bd80090466a460293039304939382484b050008
:101be8000f1ec15460d001295bd1d61d33000122dc
:101bf8004c2104f091fb20223378040093434022c7
:101c080013433370012233004c21280004f0cafb2f
:101c1800802304433370012233001621280004f086
:101c2800c1fb3300044301225421280004f074fb53
:101c380001223378044313433370012233005421c3
:101c4800280004f0affb3300044301225f21280081
:101c580004f062fb03223378044393432c2213439a
:101c68003370012233005f21280004f09bfb33000e
:101c78000122044360212800377004f093fb02a975
:101c880004432800fef79efe6b464246044302a921
:101c980028005a72fef7d6ff204306b004bc9046cf
:101ca800f0bd01204042f8e74346d61d33700122bb
:101cb8003300162104f076fb3300040001225f2173
:101cc800280004f029fb03223378044393430c22b1
:101cd80013433370012233005f21280004f062fbb4
:101ce80002a904432800fef76dfe01236a46044357
:101cf80002a928005372fef7a5ff2043cde7c0468e
:101d08006a080000f0b5de46454657464e46e0b53f
:101d180017008822040089b012010d00002107f085
:101d2800e5f8230007cd07c307cd07c32a68e748ae
:101d38001a6003f025fe04ab98460123424676213b
:101d4800137020004346012204f02cfb237e06007a
:101d5800012b1ad0002b00d1e3e1022b00d1c5e101
:101d6800002342467621137020004346012204f0e6
:101d780019fb30430b2676420643300009b03cbcc1
:101d880090469946a246ab46f0bd03ab994602235e
:101d98004a467a21137020004b46012204f002fbc8
:101da8000643002342467621137020004346012251
:101db80004f0f8fa0643e0d14246c54b67623c336b
:101dc80023cb23c21b8820001380fef7b7f902af8c
:101dd8003b00050001224f21200004f09dfa054335
:101de800ab4609256d442b0001225021200004f048
:101df80093fa5b4603439b461f233a784f211a40c8
:101e08003a702a7820001340402213432b70012295
:101e18003b0004f0c7fa5f462b000743012250211c
:101e2800200004f0bffa6b46dd1d2b00074301229a
:101e3800162120002e7004f0b5fa2b00074301226a
:101e48006221200004f068fa70222b78074393433c
:101e58002b706f3a2b006221200004f0a3fa07438d
:101e6800bb460a276f443b0001225421200004f09e
:101e780053fa5b46022203439b463b7892469343c0
:101e88003b70013a3b005421200004f08bfa5f4676
:101e9800082107432000fef727fd01210743200002
:101ea800fff790fe2b00074301221421200004f0c5
:101eb80033fa03222b78074313432b7001222b009c
:101ec8001421200004f06efa414607432000fef773
:101ed800b9fe4246012341460743200053709670dd
:101ee800fef734fe2b00074301226421200004f092
:101ef80013fa10222b78074393432b700f3a2b00c9
:101f08006421200004f04efa2b00074301225121de
:101f1800200004f001fa0c222b7890469343042207
:101f280013432b7007432b0001225121200004f09a
:101f380039fa2b00074301225321200004f0ecf961
:101f480018222b7807439343082213432b7001224e
:101f58002b005321200004f025fa5e4b4a46e65434
:101f680004230743137076214b460122200004f016
:101f780019fa4a46584b074313800d234a21937098
:101f880020004b46032204f00dfa0743b9460b27fd
:101f98006f443b000122762120003e7004f002fad3
:101fa8004b4603439946434601222b7057212b0089
:101fb800200004f0f7f94b46882203439846474b24
:101fc8005200e25260239b465a46454b7621e25422
:101fd800032326643b705f3a3b00200004f0e2f9db
:101fe80043460343984601222b002e21200004f08b
:101ff80093f943465246034398462b782e21934340
:102008002b70013a2b00200004f0ccf9434603431f
:10201800984601222b003221200004f07df9434626
:102028005a46034398462b78322193432b705f3ae4
:102038002b00200004f0b6f94346034398460122da
:102048002b003721200004f067f943465a46034322
:1020580098462b78372193432b705f3a2b0020004a
:1020680004f0a0f943460343984601222b003c2183
:10207800200004f051f943465a46034398462b780a
:102088003c2193432b705f3a2b00200004f08af91f
:1020980045463b0005430122762120003e7004f0ae
:1020a80081f9104b0122e118002352420a604b606b
:1020b8008621090161180a604b600b4905438c466b
:1020c80064442e002260636057e6c046b80b0000e7
:1020d80028850000690800000d0d00007408000044
:1020e80072080000580800007808000003ab994601
:1020f80001227c21200004f00ff94b460c221b78aa
:10210800050013434a467c21137020004b460122e8
:1021180004f048f928430643e3682000984706433b
:102128003fe603ab994601227c21200004f0f4f835
:102138004b4603221b78050093434a467c211370c3
:1021480020004b46012204f02df92843064328e6d7
:10215800f0b5de46454657464e46e0b591b002aa70
:102168000623944663441980090b9b460b0380465b
:10217800029366d104af3900fef724fc08ae0400d0
:1021880031004046fef780fc0cad04432900404670
:10219800fef7c4fbbb7804439a46b3785246994687
:1021a800ab7801934b46012a39d0012b41d0ab784b
:1021b800012b2cd05b4602226021404604f0f2f845
:1021c800bb780443534506d0534639004046bb709c
:1021d800fef738fd0443b3784b4506d04b46310033
:1021e8004046b370fef7cafd0443ab78019a9342a8
:1021f80005d029004046aa70fef7a8fc0443200039
:1022080011b03cbc90469946a246ab46f0bd0023af
:1022180029004046ab70fef799fc0443cae7029bcd
:1022280039004046bb70fef70dfdb3780443012b1f
:10223800bdd1002331004046b370fef79ffd044333
:10224800b5e70b246442dae770b582b06b46012229
:1022580006335421050004f05ff8002830db6b4694
:1022680008269b7928001e40fdf732ff002812d06f
:1022780080246404002e0bd06b46de1d330001223f
:102288004d21280004f048f8337824015b071ad45c
:10229800200002b070bd6b46dc1d230001224d21d9
:1022a800280004f039f8237804241c4063425c4178
:1022b800064b64421c4080235b049c466444d9e777
:1022c80001246442e4e7024ce2e7c0461111110020
:1022d8000080841e30b583b06b46dc1d23000122cc
:1022e8004d21050004f018f823785b0702d507484c
:1022f80003b030bd2800fdf7ebfe431e9841044ba8
:1023080040421840034b9c466044f1e70080841e1d
:10231800efeeeeff1111110101484c307047c04635
:042328002885000004
:020000040000fa
:10232c00f0b516001f00446a9db00390259d0696db
:10233c000797002c08d1102006f084fd039b446005
:10234c00586284600460c460039b5b6a196800294e
:10235c000bd05a68012393404a608b60039806f0b7
:10236c00adfb0022039b5b6a1a60002f1cda012371
:10237c002b607b005b080793079dba4b2a001893d0
:10238c001a409a421cd1b84b249a28031360069b1e
:10239c00000b1843b54b01d100f081fd269a002aa1
:1023ac0005d10933059308e000232b60e4e71a00fc
:1023bc00093205920c33269a136005981db0f0bdb6
:1023cc00069b079c109311941098119900220023de
:1023dc0005f01efe041e0ed00123249a1360a34b9d
:1023ec001a000d320592269a002ae6d01a00269978
:1023fc000e320a60e1e71aab01931bab0093039812
:10240c00109a119b05f09cfb6e000490760d00d188
:10241c007ee010981199119b954a1b031b0b1a43d4
:10242c001100944b1694f6180022934b00f048fdc3
:10243c00924a934b02f0e2f9924a934b01f0daf88c
:10244c00040030000d0005f0cbfe904a904b02f0da
:10245c00d5f902000b002000290001f0cbf8040094
:10246c000d0005f031ff002202900023200029000e
:10247c0005f0d4fd00280bd0029805f0b1fe2b001e
:10248c00220005f0c5fd43425841029b1b1a0293e2
:10249c0001231393029b162b0fd810981199da0075
:1024ac007c4b9b181a685b6805f0b8fd00284bd074
:1024bc00029b013b0293002313931a9b9e1b002348
:1024cc0008933300013b0b9304d501239b1b08930a
:1024dc0000230b93029b002b38db029a0b9b944638
:1024ec0063440b93002312920d93229b0124092b1e
:1024fc0000d985e0052b02dd0024043b2293229bae
:10250c00981e032800d985e006f0b0fc296b697889
:10251c001a9b1b9a9e18604bf218202a0fdd402341
:10252c009b1a9d405d4b0698f318d840284305f044
:10253c006bff01235a4c013e0919169374e72023b3
:10254c0006989b1a9840f2e71390b6e7089b029afc
:10255c009b1a089353420d9300231293c5e7002353
:10256c000f93239b002b59dc01230c930a93239389
:10257c00039a556a00226a600432100014306968ac
:10258c0098424fd9039805f067fe039b28605b6a5d
:10259c001b6805930a9b0e2b00d9f7e0002c00d189
:1025ac00f4e0029b002b00dc7ee01a000f21394b7b
:1025bc000a40d2009b181e685f68029b02241d1102
:1025cc00eb060ad5374b0d401a6a5b6a10981199c5
:1025dc0001f086fb069007910134324b36e0012363
:1025ec00bee70023239a0f939446029b63440c93fb
:1025fc0001330a93002bbbdc0123b9e70123f1e77c
:10260c0000230f942293013b00220c930a932392f4
:10261c001333ade701230f93023bf5e7239b0c9398
:10262c000a93a5e7013169605200a6e701231d4218
:10263c0009d0e4180e9b30001a685b68390002f070
:10264c00ddf806000f000e9b6d1008330e93002d65
:10265c00ecd10698079932003b0001f041fb069043
:10266c0007913ce00000f07f0f270000048f000072
:10267c000000f03f01fcffff0000f83f61436f6377
:10268c00a787d23fb3c8608b288ac63ffb799f507f
:10269c001344d33f487800003204000012040000b9
:1026ac00000010fe088c0000029b0224002b16d0a8
:1026bc00109811995d420f23d54a2b40db00d3189b
:1026cc001a685b6802f09af80127002306900791bc
:1026dc00d04e2d11002d00d089e0002bbfd1139bc3
:1026ec00002b00d18ee0069e079f0022ca4b3000c3
:1026fc00390005f093fc002800d183e00a9b002be5
:10270c0000d17fe00c9b002b3cdd029b3900013b90
:10271c000e930022c14b300002f070f80690079126
:10272c000c9f0134200005f05bfd069a079b02f01c
:10273c0065f80022ba4b00f05dff14901591149cc3
:10274c00159d159bb74a9e18002f5fd106980799c7
:10275c000022b54b00f0b4fb220033000690079129
:10276c0005f070fc002800d0a0e2b0481599844612
:10277c0061440b0006980799220005f04ffc0028d5
:10278c0000d08de2109b119c069307941b9b002b91
:10279c0000da5fe1029a0e2a00dd5be19c4bd2006d
:1027ac009b185c681b6808930994239b002b00db27
:1027bc00cfe00a9b002b00ddcbe000d073e2089841
:1027cc0009990022984b02f019f8069a079b05f01c
:1027dc0043fc0a9d2e00002800d046e2059b059a7a
:1027ec005f1c31231370029b0133029341e23d4283
:1027fc0005d03268736802f001f83b0001346d10ab
:10280c00083667e7029b0a9f0e938be77a1e804b74
:10281c00d2009b18186859680f9b002b4bd00200f4
:10282c000b000020824901f05bfa3300220000f01b
:10283c0047fb05000e00059b1493fb181793069895
:10284c00079905f041fd040005f0cafc02000b00dd
:10285c000698079900f034fb149b30345f1c1c70f5
:10286c002a0033000690079105f0d8fb002864d1ac
:10287c00069a079b0020684900f022fb2a003300cf
:10288c0005f0ccfb002800d0b0e0179bbb4200d178
:10289c0078e70022614b2800310001f0afff0022e5
:1028ac0005000e00069807995c4b01f0a7ff1497e2
:1028bc0006900791c3e72200330001f09fff059caf
:1028cc0014901591e31919930698079905f0fcfcdf
:1028dc00179005f085fc0b0002000698079900f094
:1028ec00effa179b050030332370199b01340e004f
:1028fc009c4227d114981599059b0022df194c4b4b
:10290c0000f078fe02000b002800310005f09afb65
:10291c0000286bd1149a159b0020454900f0d0fa81
:10292c0002000b002800310005f078fb002800d1d4
:10293c0028e77b1e1a78302a02d00e9b029343e0c4
:10294c001f00f6e70022354b01f058ff0690079167
:10295c00bae7059c0a9a2300069d079e013b9b182b
:10296c000693089a099b2800310001f0b9f905f08b
:10297c00abfc0a9005f034fc089a099b01f03eff71
:10298c000b0002003100280000f09afa0a9b671c29
:10299c0030332370069ba3424ed102000b0000f093
:1029ac0029fe089a099b04000d0005f04bfb00283a
:1029bc001ad1089a099b2000290005f029fb002850
:1029cc0002d00a9bdb070fd40499039806f076f823
:1029dc0000233b70029b249a01331360269b002b2f
:1029ec0000d1eae41f60e8e4029b0e937b1e1a7888
:1029fc00392a08d1059a9a421cd10e9a05990132ae
:102a0c000e9230220a701a7801321a7095e7c0467d
:102a1c0048780000088c00000000f03f00002440c3
:102a2c0000001c400000c0fc000014400000c07cf2
:102a3c000000e03f1f00d9e700229f4b01f0defeb3
:102a4c000022002305000e003c0005f0e1fa0028ee
:102a5c0087d0b9e70f9a002a00d189e0229a012a7f
:102a6c006ddc169a002a66d0944a9b180d9d089c22
:102a7c00089a0121d21808920b9a0398d3180b9339
:102a8c0006f007fa0600002c0edd0b9b002b0bdd6d
:102a9c000b9a2300944200dd1300089ae41ad21a10
:102aac0008920b9ad31a0b930d9b002b1dd00f9be6
:102abc00002b61d0002d10dd31002a00039805f0a9
:102acc00e9f8049a01000600039803f0f3fe0700ee
:102adc000499039805f0f2ff04970d9b5a1b04d040
:102aec000499039805f0d6f804900121039806f098
:102afc00d0f9129b0500002b40dd1a000100039851
:102b0c0005f0c8f8229b05000027012b3edc0027ae
:102b1c00069bbb4236d1079b1b03bb4232d1189b91
:102b2c00079a13422ed0089b0137013308930b9b55
:102b3c0001330b9326e036231a9a9b1a96e70a9bcd
:102b4c005d1e0d9bab4208db5d1b0a9b002b0cda58
:102b5c00089b0a9a9c1a00238ae70d9b0d95ea1a8a
:102b6c00129b00259b181293efe7089c0a9b7fe7aa
:102b7c000d9d089c0f9e86e70d9ab1e7229b0027be
:102b8c00012bc4dd129b0120002b08d02b690333d1
:102b9c009b00eb18586805f043ff2023181a0b9b79
:102bac00c0181f23184046d001331b1a042b3fdddd
:102bbc001c23181a089b24181b1808930b9b1b1812
:102bcc000b93089b002b05dd1a000499039805f064
:102bdc000df804900b9b002b05dd29001a000398bf
:102bec0005f004f80500139b002b26d0290004984f
:102bfc0005f030ff002820da029b0a22013b0293e9
:102c0c0004990023039805f0adfa0f9b0490002b58
:102c1c0000d14de1002331000a22039805f0a2fafd
:102c2c000c9b0600002b51dc229b022b4edd0ce092
:102c3c00042bc6d018001c30bce70a9b002b3fdcd1
:102c4c00229b022b3cdd0a9b0c930c9b002b0cd182
:102c5c0029000522039805f085fa05000100049867
:102c6c0005f0f8fe002800ddb8e5239b059fdb434b
:102c7c00029300230a932900039805f01fff002eee
:102c8c0000d1a1e60a9b002b05d0b34203d019005a
:102c9c00039805f013ff3100039805f00fff93e63e
:102cac003d003e00e1e700252e00dee70e9b3d00d7
:102cbc0002933e0092e5c04600002440330400001d
:102ccc000f9b002b00d1ade00a9b0c93002c05dd73
:102cdc0031002200039804f089ff06003000002f19
:102cec0011d07168039805f0b7fa3100040033690c
:102cfc000c319a1c92000c3006f0c2f80122210013
:102d0c00039804f073ff0a960600059b08932900ac
:102d1c00049803f0f7fe0a990d900400049805f04e
:102d2c0099fe32000e902900039804f0abfe0123ab
:102d3c000b93c36830340700002b04d101000498b6
:102d4c0005f088fe0b903900039805f0b7fe0123bf
:102d5c00069a0b991a40089b5f1c229b0b4313434a
:102d6c0009d1392c21d00e9b002b01dd0d9c313467
:102d7c00089b1c707fe70e9b002b03db22990b43f7
:102d8c0013431cd10b9b002bf2dd049901220398f9
:102d9c0004f02cff2900049005f05cfe002802dcf6
:102dac00e6d1e307e4d5392ce0d13923089a137026
:102dbc007b1e1a78392a67d001321a705be70b9b9d
:102dcc00002b03dd392cf0d00134d1e7089b059a98
:102ddc001c7001239b1a089a9b180c9a9a423ed09d
:102dec0000230a220499039805f0bcf90a9b04906d
:102dfc00b34209d100230a220a99039805f0b2f9cb
:102e0c000a900600089782e70a9900230a22039881
:102e1c0005f0a8f900230a900a223100039805f066
:102e2c00a1f9eee70a9b0c93059b0a9329000498e1
:102e3c0003f068fe0a9b30305f1c18700c9a059bdf
:102e4c000400fb1a9a4208dd00230a220499039815
:102e5c0005f088f90a970490e8e700230a9304998f
:102e6c000122039804f0c2fe2900049005f0f2fd43
:102e7c0000289ddc01d1e3079ad47b1e1a78302af6
:102e8c0000d0f8e61f00f8e7059a9a4205d1029b9c
:102e9c000133029331231370ede61f0088e7269a65
:102eac0005930833002a01d0fff785fafff785fa5e
:102ebc000c9b002bb8dc229b022b00ddc5e6b3e794
:020000040000fa
:102ecc00f0b5574645464e46de46e0b50f037f0a41
:102edc00450f3d43ac465d004e00cc0f690d8a4654
:102eec001f03ca49550f83b0c0007f0ad200760d6c
:102efc008046db0f2f4301928a4500d1c0e0554636
:102f0c00751ba9460125ab465d466b409b469c4212
:102f1c0000d190e04d46002d00dcbbe05346002b69
:102f2c0000d1d4e08e4200d19fe280231b041f43ca
:102f3c004b46382b00dd64e11f2b00dd16e24946c1
:102f4c0020233d005b1a11009a409d40531e9a416c
:102f5c004b46a8464d46df406346e9404546db1be1
:102f6c009c460d431543451ba84280416346414294
:102f7c00591a0b0200d41ce149024b0a98464346ed
:102f8c00002b00d130e1404605f0bafc0300083bb1
:102f9c00202229004746d21a9f40d1409d400f4322
:102fac009e4200dd1ce19e1b731c1f2b00ddb2e159
:102fbc0020222800d21a390095409140d8406a1e30
:102fcc00954101430d4339000026d9406b0709d0c8
:102fdc000f232b40042b05d02b1dab42ad416d4272
:102fec0049191d000b0200d4e6e0721c874b5605f4
:102ffc00760d9a4200d1eee0854fed080f40780730
:10300c00284382467a02120b00211203130b0a0d7d
:10301c0012051a437f4b3605134033435b00e4071c
:10302c005b0823435046190003b03cbc90469946bc
:10303c00a246ab46f0bd4d46002d5bdd5346002b42
:10304c0000d19ae08e4200d109e180231b041f437a
:10305c004b46382b00dd6ee11f2b00dca5e139005f
:10306c00203bd9404b46202b05d040234d465b1bc3
:10307c009f403a430192019d6f1ebd410d435ee19d
:10308c0065493d0089461543b144002d2dd09b4622
:10309c009c422fd0494600294ad1604d711c2942cf
:1030ac0000d0bde03d00614615430143aa46002e09
:1030bc0000d0f8e1002900d1bee1002d00d0fde1e7
:1030cc006346c0085a0702439246d9087de03b008c
:1030dc00134300d1bbe04b46013b002b00d1bbe1bd
:1030ec00894500d1bbe0994622e701256b409b4600
:1030fc009c42cfd14946002900d0b8e0711c8a46c9
:10310c00554646490d4245d161460143002e00d03b
:10311c0070e1002900d10de23b00134300d00fe217
:10312c006346c0085b07184363468246d9084ce0e7
:10313c005146891b89465c46002e00d0c4e063468c
:10314c00034300d150e10b00013b002b00d1e8e11f
:10315c002e4d9946a94200d0bfe0d2087b071a43f6
:10316c009246f90853460b4300d13be280221203ee
:10317c000a431203120b254e46e73b00134300d1c2
:10318c007ae14b46013b002b00d121e1894566d009
:10319c0099465de71d4b9a4500d1dee182188242cb
:1031ac0089415646674449427918cd075208154360
:1031bc0049086b0700d00be74b07ed081d43aa46e7
:1031cc00b146c908114b9945ccd04b460a035e0554
:1031dc00120b760d18e71600002300229a4613e70f
:1031ec000b49f61a3940f1e6280005f089fb03007b
:1031fc0018331f2b00dccbe6083885402f00002548
:10320c00cee63a4315006a1e9541ace6ff07000076
:10321c00ffff7fffffff0f8001f8fffffe0700009d
:10322c006146851acb1ba842894149428846190040
:10323c004346c91a0b0088461b0200d529e10b0036
:10324c002b439a4600d09ae600210024bde7634642
:10325c00c0085b07184363468246d908b2e7634649
:10326c00c0085b07184363468246d9087ae7534681
:10327c009b1b9946002e00d189e0d84b9a4500d172
:10328c00e4e0802361461b0419438c464b46382be3
:10329c0000dd25e11f2b00dd6ae1494620234e4667
:1032ac005b1a6546010098409d40f140431e9841d1
:1032bc000d4305436046f0403f18ad1895428941d7
:1032cc004942c91956463fe0c44b9a4500d1bde06e
:1032dc00802361461b0419438c464b46382b00dd7a
:1032ec00d1e01f2b00dd01e1494620234e465b1a3d
:1032fc006546010098409d40f140431e98410d43a6
:10330c0005436046f0403f1a551baa428941494289
:10331c00791a56462de63a001f3ef2401600202b35
:10332c0003d04022d31a9f403d436b1e9d41002188
:10333c00354300263de73a4315006a1e95412d188a
:10334c0085428041414261440b0200d431e7a34bda
:10335c0001369e4200d13fe70122a14f6b08394054
:10336c0015401d43cb071d4349082fe63900203b70
:10337c00d9404b46202b05d040234d465b1b9f402c
:10338c003a430192019d6f1ebd410d43ebe563462f
:10339c00034329d04b46013b002b00d116e18f4d46
:1033ac00a94500d1d9e6994670e7494620233d004e
:1033bc005b1a9d4011009a40a8464d46531e9a41f7
:1033cc004b46e9404546df400d431543bc44b6e748
:1033dc0085188542894167444942791801260b02b8
:1033ec0000d4e6e60226b7e7d2087b071a439246da
:1033fc00f908e7e6002929d063463e005d07c008be
:10340c00d90816432843002e00d188e080252d03cf
:10341c00294207d0fe082e4204d15c463100d20866
:10342c0078071043ca00410f1143c0004a07c00877
:10343c0010438246c90895e6002d00d104e77807b1
:10344c00d20810438246f9085c46bee67807d208db
:10345c0010438246f90885e6851a6346a8428041e6
:10346c00df1b4042391a012683e56346c0085a0720
:10347c0002439246d90875e66346c0085a070243d0
:10348c009246d9089ee6634603431d00681e85419b
:10349c003ae7151a6346aa429241ff1a5242bb1ae6
:1034ac0098465c466be5002932d1002d72d0790725
:1034bc00d2080a439246f9085c4653e66346851add
:1034cc00d91ba8429b415b42c91a0b024ad5151a5b
:1034dc006346aa429241ff1a5242b91a5c4675e5fc
:1034ec00634603431d00681e8541e6e66646203ba5
:1034fc00de404b46202b06d0494640235b1a6146e2
:10350c009940084380464546691e8d413543fbe68c
:10351c006346c0085e07d908002d3fd13043824670
:10352c0020e6151a6346aa429241ff1a5242b91a72
:10353c0001261ee5d2087b071a439246f90844e699
:10354c008518854289416744494279180b0200d499
:10355c002fe6234b012619402be60023564600226a
:10356c009a4651e52b000b439a4600d16ce620e6b7
:10357c006646203bde404b46202b06d04946402376
:10358c005b1a61469940084380464546691e8d4149
:10359c00354392e6802100240903e7e506438020a9
:1035ac000003014208d0fd08054205d1d2087f076f
:1035bc003a4316005c462900ca00710f1143f6000d
:1035cc004a07f60832439246c908cbe5851895425e
:1035dc00924167445142791800e7c046ff0700004a
:1035ec00ffff7fff0023024e9a461a000ce5c046ef
:1035fc00ff070000f8b54746ce460e034d00760a8d
:10360c00cc0f410f31438946190380b5490a570f36
:10361c005e000f436d0dc000760ddb0fb846d20077
:10362c009c4200d1a3e0af1b002f00dc83e0002ef6
:10363c0000d1c1e0c94b9d4200d188e180234146b5
:10364c001b0419438846382f00dd5de11f2f00dd78
:10365c0007e2202311004646db1b9e40f9409a40ae
:10366c000e434146531e9a41f9404b465b1a99460c
:10367c003243871ab84280414b464142591a0b02d9
:10368c0000d4d7e049024e0a002e00d12fe13000c1
:10369c0005f036f90300083b20223900d21a9e406f
:1036ac00d1409f400e439d4200dd1ce15d1b6b1c15
:1036bc001f2b00ddaae12021c91a3d0030008f40ec
:1036cc008840dd40791e8f4131002843d9400025c8
:1036dc0007437b0709d00f233b40042b05d03b1d30
:1036ec00bb42bf417f42c9191f000b0200d4a4e0aa
:1036fc006a1c9a4b55056d0d9a4200d1aae0984a66
:10370c00ff080a405007384384465202120b00212e
:10371c001203130b0a0d12051a43924b2d0513407d
:10372c002b435b00e4075b082343604619000cbc89
:10373c0090469946f8bd002f4cd18b4e691c3142f6
:10374c0000d0e7e04646494616430143b446002df7
:10375c0000d00ee2002900d1cfe1002e00d010e203
:10376c004b46c0085f070743bc46d9086de0ab1b4e
:10377c00002b00dc9ee0002e3ed078498d4200d11b
:10378c00e5e080213e0009040e43b046382b00ddf5
:10379c004be11f2b00dc81e1190046462039ce405d
:1037ac00202b04d04021cb1a414699400a431700e4
:1037bc007a1e974137433de14346134300d1bde0a8
:1037cc007b1e002b00d1b2e164498f4200d1a7e1ee
:1037dc001f0038e7771b002d00d0efe0494601436e
:1037ec0000d177e1791e002900d119e25b4ca74288
:1037fc0000d14be20f00eae03900114300d1a0e107
:10380c00591e002900d158e1544eb34200d187e132
:10381c000b00bbe7514b9e4200d132e28218824230
:10382c00804149463500414440420918cf075208af
:10383c00174349087b0700d04de74807ff080743ab
:10384c00bc46c908454b9d4229d00a036d05120b95
:10385c006d0d5ce71500002300229c4657e74b4694
:10386c005f07d9084346c00813433843002b00d1e7
:10387c00f6e180231b03194208d04546ed081d4292
:10388c0004d143462900d20858071043ca00430ffd
:10389c001a43c0005707c0080743bc46d10863460b
:1038ac000b4300d112e2802212030a431203120bc3
:1038bc002a4d2ce7002b59d12b4b6e1c1e42a9d143
:1038cc004b460343002d00d00de1002b00d1b2e19b
:1038dc003b00134300d0b5e14b46c0085f073843ab
:1038ec008446d908b1e71e49ed1a3140f1e638009b
:1038fc0005f006f8030018331f2b00dccce63e0065
:10390c00083886400027cee6434613431a00571e5c
:10391c00ba41aee649464646871a8e1bb8428941e3
:10392c004942761a310200d519e13b0033439c46db
:10393c0000d0a9e600210025002486e74b46c008ec
:10394c005b0718434b468446d9083d007ae74b4643
:10395c00c0085f070743bc46d908a0e7ff07000073
:10396c00ffff7fffffff0f80fe070000731b002d82
:10397c0000d185e0d8498e4200d173e180214d46bb
:10398c0009040d43a946382b00dd0ee11f2b00dd89
:10399c0084e12021c91a05004f4688408f40411e02
:1039ac0088414946dd40d9402f4307438844bf181e
:1039bc009742924151424144350040e0c6498e4203
:1039cc0000d1a5e080214c4609040c43a146382fb8
:1039dc0000ddbee01f2f00ddede020210500c91b3e
:1039ec004c4688408c40fd40411e884149462c4342
:1039fc002043f9404446611a8846171aba4292414c
:103a0c0041465242891a1c00350038e630001f3df1
:103a1c00e840202b03d04021cb1a9e4037437b1e1d
:103a2c009f4100210743002504e7434613431f0031
:103a3c007a1e97413f1887428041414249440b020c
:103a4c0000d4f7e6a44b01359d4200d103e7a34a0d
:103a5c007b080a4001210f401f43d3071f43510825
:103a6c0037e63b004646203bde40202f04d0402367
:103a7c004146db1b99400a43571eba413243f8e5d5
:103a8c004946014300d1f4e0591e002900d115e14b
:103a9c00914dab4200d1e5e00b0074e72021c91a2f
:103aac00160047468a408f40511e8a414146de40ef
:103abc00d940374317438944bce7871849468742a6
:103acc009b4141445b42c91801250b0200d4b1e66d
:103adc000225bce74146d208480702439446c90870
:103aec001c003d00aee6002b00d0b8e63b00d2082f
:103afc007f071743bc46d908d1e6002e00d18ce0d5
:103b0c004146d2084f073a439446c9081c009ce62c
:103b1c004146d2084f073a439446c9081c00bee6fa
:103b2c004b46c0085f0738438446d908b7e6871a66
:103b3c004b464246b8428041991a4042091a012527
:103b4c009de54a46c008570738438446d1081d00f6
:103b5c0078e6494601430800471eb8414de7171a5d
:103b6c0041464846ba42b641091a76428e1b1c00a1
:103b7c008ae500292ed1002ecad180210024090308
:103b8c0091e649464646871a8e1bb84289414942fe
:103b9c00711a0e023cd5171a41464846ba42924158
:103bac00091a5242891a1c0093e54b4603431f0025
:103bbc00781e8741fbe639004c462039cc40202f3b
:103bcc0004d040214d46c91b8d402843411e8841dd
:103bdc00204312e74946c0084d072843c908002e68
:103bec003ed080252d03294208d04646f7082f42a7
:103bfc0004d11c003900d20870071043ca00430fcf
:103c0c001a43c000c008570738438446d10846e61b
:103c1c003b000b439c4600d00ce60021002414e62c
:103c2c00171a41464846ba429241091a5242891a19
:103c3c001c00012523e53b00d2087f071743bc4637
:103c4c00d90802e68718494687429b4141445b42aa
:103c5c00c9180b0200d4ede5204b01251940e9e50c
:103c6c0084461ce63b00d2087f073a439446d908a9
:103c7c0015e63900d2087f073a439446c9081d005f
:103c8c00e0e50023350000229c4640e54146d20881
:103c9c004f071743bc46c9081c0000e619004d46e7
:103cac002039cd40202b04d04021cb1a49469940d5
:103cbc0008430700781e87412f4378e6871849464a
:103ccc0097429b4141445b42c918fde60023024ddb
:103cdc009c461a001be5c046ff070000ffff7fff54
:103cec00f0b557464e464546de46e0b581460500e2
:103cfc000c03480085b092461f00240b400dce0fdc
:103d0c00002800d1ade0864b984200d1c8e06b0f83
:103d1c00e4001c4380231b0423439846814bed0095
:103d2c009b4600239946834400933c037b005046fa
:103d3c00240b5b0dff0f002b00d177e0784a9342e8
:103d4c0018d07849420f8c46e4001443594680221f
:103d5c0063441204cb1a14439b46c2000020330068
:103d6c007b409a464b460f2b00d9ede06e499b00e9
:103d7c00cb589f466d4b52469c462243e344002a47
:103d8c0000d0aee0494602231943894600240220a4
:103d9c00e5e73e00a04615000090009b022b00d1e9
:103dac000be2032b00d19de1012b1fd0b246604fdb
:103dbc005f44002f00dcdae16b0700d00ee2ed0867
:103dcc004346db0106d542465a4b80271a409046a3
:103ddc00ff005f44584b9f4224dc43465b071d4366
:103dec0043467f055c02240b7b0d03e0b2460023a7
:103dfc000024002500212403270b0c0d24053c4333
:103e0c001f054e4b28001c40534627437f00db0701
:103e1c007f081f43390005b03cbc90469946a2462a
:103e2c00ab46f0bd3e4b00240025e3e7524622434f
:103e3c0050d0002c00d18ae1200004f061fd02007a
:103e4c000b3a1d2301009b1a52460839da408c406c
:103e5c00144352468a403a4b58449b4683440020b4
:103e6c007de74b46234398462cd0002c00d15ee1d5
:103e7c00200004f045fd02000b3a1d239b1a4a4614
:103e8c000100da4008398c4013004d462343984614
:103e9c008d402c4b1b1a9b4600239946009344e7fc
:103eac004b462343984606d108239946063b0025ea
:103ebc008346009339e70c239946093ba046834679
:103ecc00009332e70423994600239b4601330025d7
:103edc0000932ae74946012319438946002401200f
:103eec003de74a4603231a4391460320524636e7e0
:103efc00002380249a4624030025094b7ae780236b
:103f0c0041461b03194200d1ece01c4200d0e9e011
:103f1c001c432403240bba461500014b6ae7c04628
:103f2c00ff07000001fcffff8c88000001f8ffff79
:103f3c00ff030000fffffffefe070000ffff0f80e6
:103f4c00f30300000dfcffff444500d2d6e000d186
:103f5c00d1e001235b429c462e0040460025e34401
:103f6c00130e24021c431302994623041b0c210c30
:103f7c000093019102f0d8fe009a0b044243310cdd
:103f8c00070019438a4207d90919013f8c4203d80b
:103f9c008a4201d9871e0919881a019902f0c4feb8
:103fac0009048c4631046646009a090c424303000e
:103fbc0031438a4204d90919013b8c4200d807e1ec
:103fcc003f041f43891a4b464a461e0c1204380cf8
:103fdc000296160c3200039646433b04b846370053
:103fec00029e1b0c5a4373437043db19160cf618d4
:103ffc00b74203d980235b029c466044330c120405
:10400c003604120c1818b618814200d280e07cd00d
:10401c00ae1b091ab54280419b4f4042081a5f44bf
:10402c00844200d1fde0019902f07efe009a0b045f
:10403c004243310c050019438a4207d90919013d45
:10404c008c4203d88a4201d9851e0919881a019914
:10405c0002f06afe09048c4631046646009a090c8b
:10406c004243030031438a4207d90919013b8c4270
:10407c0003d88a4201d9831e0919039e2d041d43be
:10408c003300891a2a04120c53430093029b280c08
:10409c0046435a435843009b92191b0c9c4662445e
:1040ac00964203d980235b029c466044009b160c0d
:1040bc001b0412041b0c3018d218814206d302d0f8
:1040cc0001231d4375e6002a00d172e661186b1eb0
:1040dc00a14200d290e0814200d2a8e000d1cfe012
:1040ec001d00ede78024434624031c432403240bca
:1040fc00b246664b7ee6aa4200d92ae74346de0763
:10410c0058086b081e43ed072ae7b54200d37fe73a
:10411c0043464d445a1e4d459b415b421b19c918e1
:10412c008c424fd2884271d86ed0904670e7484688
:10413c0004f0e6fb03001a00153220301c2a00dcc8
:10414c009be64a46083b9a4000259046a1e604f0bf
:10415c00d7fb03001a00153220301c2a00dc70e655
:10416c005446083b00229c4075e601256d42012116
:10417c00c91b382900dd3ae61f2962dc2a004346b8
:10418c004348ca4058448340854013436a1e9541b6
:10419c0044462b43cc405a0709d00f221a40042a1c
:1041ac0005d01a1d9a429b415b42e418130022026f
:1041bc005fd50123002400251ce6b246334b0024b6
:1041cc00002517e68c42b0d1a945abd990461fe724
:1041dc008a4200d8f4e6831e0919f1e60f232b401e
:1041ec00042b00d1ebe505235b42ab429b4104352c
:1041fc005b42ed089844e3e51d00814200d05fe787
:10420c00914500d05ce7d4e5ae428ed902234d44f3
:10421c005b429c464d459b415b421b19e044c918cf
:10422c00f6e6002fa1dd012300259844c8e54b4696
:10423c005e004e459b415b421c19023d0919b1467b
:10424c00dbe71f2243465242d71bfb40202904d0f8
:10425c00444610485844844025436a1e95412b43dc
:10426c00072500241d4007d00f2200241a40042ae1
:10427c0097d165076402240bdb081d430023b9e5c5
:10428c009145d4d31d00bbe7ff030000ff070000de
:08429c001e0400003e040000b6
:020000040000fa
:1042a400f0b595b00c00079208931a9d069004f09f
:1042b40053fe036818000d9304f02afe237e0e902b
:1042c4000a93236807220c930c992b68c9054bd5d4
:1042d4009b1893431a0008322a601a685b68a26428
:1042e400e364a36c01221e00e76c0b937d006d0850
:1042f4005242ae4b3000290004f07afb002835d13d
:104304000122aa4b52423000290003f095fe0028f6
:104314002cd1002200230b98390003f083fe0028df
:1043240003d023002d2243331a70a14b09930a9b17
:10433400472b02d9099b04330993032300270c9ac2
:10434400236101339a4322600b97089b12aa0093be
:104354002100079b069803f035f9431c00d018e1af
:104364000120404215b0f0bd0733b2e70b9a3b0081
:104374000b98390004f03cfb002808d08c4b1a0041
:10438400083209920a9a472ad7d90c33d4e7202253
:104394000a9d636895435a1c00d083e00733636029
:1043a40080230c9adb0013430022236066680f927b
:1043b400974205da802109067b181f002d230f93ed
:1043c4000322462d05d02b00453b59424b41013a6f
:1043d400f61812ab049311ab039310ab0293009243
:1043e40001960b9a3b000698fdf79eff0990472d16
:1043f40060d10c9bdb075dd4129b099a9f1a109b1a
:10440400472d00d084e0da1c03db62689a4200dbab
:10441400aee00a9a023ad2b20a9222000a995032c3
:104424005d1e0b92117010952b22002d02da0125ce
:104434000232ed1a230051331a70092d00dc82e098
:1044440027260aabf618731e0a2128000c9301f0e4
:1044540029ff731e3031197028000a2101f03cfe37
:10446400632d68dc23002722023e30300aa9307015
:10447400523352181900964260d30b9bcb1a0b93fc
:10448400fb182361012f02dc2268d20701d5013316
:1044940023610f9b002b00d157e723002d224333c8
:1044a4001a7052e7472d00d07ae7002b00d077e747
:1044b400013374e7099b9b190c93462d13d1099b77
:1044c4001b78302b0ad1002200230b98390003f00b
:1044d400a3fd002802d101239e1b1096109a0c9b69
:1044e400944663440c93002200230b98390003f094
:1044f40093fd002801d00c9b1293129b302203e001
:10450400591c12911a70129b0c999942f8d873e7ae
:104514000a9a652a81d90a9a662a2bd16268002be5
:104524001add2361002a02d12168c9071cd5013292
:10453400d218226118e00c9e050084e73178013618
:104544001970013396e73022230021005233ad184d
:104554001a7054315d7090e7002a03d1012120685c
:10456400084200d0911c2161a36500230b9390e7be
:1045740067220a92bb4205db22682361d207f3d586
:104584005a1cd6e70122002b01dc9218d21ad21948
:10459400cfe7226853050dd42369099a0799069831
:1045a400089da847431c2ed1dae6c046ffffef7fe3
:1045b400848700000a9b652b00d8cfe0a06ce16cd7
:1045c4000022002303f028fd002833d08c4a012365
:1045d400103207990698089da847431c00d1bfe6ee
:1045e400109bbb4202db2368db070cd5089d0e9ba6
:1045f4000d9a07990698a8470025431c00d1afe6f9
:104604007b1eab420adc23689b0700d5f6e0129bb5
:10461400e068984200dba5e61800a3e62200012327
:104624001a3207990698089eb047431c00d197e6b2
:104634000135e5e7109b002b2bdc714a0123103276
:1046440007990698089da847431c00d188e6109b4b
:104654003b4302d12368db07d5d5089d0e9b0d9af9
:1046640007990698a8470025431c00d178e6109bbb
:104674005b42ab4201dc3b008fe7220001231a328c
:1046840007990698089eb047431c00d168e6013597
:10469400ede7a66dbe4200dd3e00002e08dd3300ce
:1046a400099a07990698089da847431c00d157e624
:1046b40000230a93f343db170b930ce0220001233e
:1046c4001a3207990698089da847431c00d147e66b
:1046d4000a9b01330a930b9ba56d0a9a3340eb1a8c
:1046e4009342ebdc109bbb4219db2368db0716d437
:1046f400109bfe1a9d4200db7e1b002e09dd099be8
:1047040007995a1906983300089da847431c00d1fd
:1047140026e600230993f343db170a9315e00e9b67
:104724000d9a07990698089eb047431ce0d117e6f6
:10473400220001231a3207990698089da847431cb2
:1047440000d10de6099b01330993109b0a9afb1ac9
:1047540032409b1a099a9342eadc54e7012f02dca7
:1047640001231a4237d00123099a07990698089d14
:10477400a847431c00d1f3e50e9b0d9a07990698b0
:10478400089da847431c00d1eae5a06ce16c002217
:1047940000237e1e03f040fc00281ad13300099a3e
:1047a400013207990698089da847431c0dd1d7e507
:1047b400220001231a3207990698089fb847431c20
:1047c40000d1cde50135ae42f2dc22000b9b503224
:1047d400e4e60025f7e7099ae3e72200012319320a
:1047e40007990698089eb047431c00d1b8e50135e7
:1047f400e368129a9b1aab42efdc08e70025f7e75f
:0448040084870000a5
:020000040000fa
:10480800f0b557464e464546de46e0b50c03060071
:10481800480087b092469846240b400dcf0f0028d9
:1048280000d178e07b4b984200d190e0730fe40010
:104838001c438023784a1b041c43944603006344aa
:104848000093002399469b46f500434642461e03c3
:10485800d20f5b005046360b5b0d904600d180e0ce
:104868006c4a93421dd06c49420f8c4600996344b0
:10487800f6008c46164380229c4412046346164375
:10488800c200002000930099434601318c464946f6
:104898007b4001930f2900d9c6e0604b8900595825
:1048a8008f465c4952468c46009b324363440093d2
:1048b800002a00d08de04946022319438946002684
:1048c8000220e0e7434601933400150083465b4627
:1048d800022b64d0032b00d1f1e1012b00d05ee163
:1048e80000220026002500213603340b0e0d360564
:1048f80026434b4c120534401443019b6400db07ec
:1049080064081c432800210007b03cbc9046994627
:10491800a246ab46f0bd2500354352d0002c00d14d
:1049280076e1200003f0eeff02000b3a1d230100a0
:104938009b1a3200350008398c40da408d40144308
:10494800384b1b1a0093002399469b467de7350098
:1049580025432fd108239946063b002400909b4607
:1049680073e7524632431ed0002e00d142e1300098
:1049780003f0c8ff02000b3a1d2301009b1a5246a0
:104988000839da408e40164352468a40009b254932
:10499800181a03008c4663440093002073e71d4aed
:1049a800002600259fe7494601231943894600262a
:1049b800012068e70c239946093b350000909b4687
:1049c80043e70423994600230093013300249b46c0
:1049d8003be74a4603231a4391460320524652e7cf
:1049e800019774e700238026019336030025094abe
:1049f80079e780231b031c4200d1f3e01e4200d05c
:104a0800f0e01e43434636031500360b0193014a76
:104a180069e7c046ff07000001fcffffcc880000e3
:104a2800ffff0f800dfcffff2f0c2d042d0c2b001a
:104a3800110c1204120c53439846130028007b43b0
:104a4800994648434844834640460b00000c82463a
:104a580058467b4350440293814506d99a468023a1
:104a68005b029946ca4453460293030c9b4643464d
:104a78001b0400041b0c9846030043440493330ca6
:104a880099462b003604360c7343984633007b4313
:104a98009a464b465d435f4343465544180c4019bc
:104aa800824503d980235b029a465744050ceb19cb
:104ab800059343461d042d0c00044019250c2404bd
:104ac800240c270057436a4390462a003b0c9a4619
:104ad8004a436143414451448344884503d9802370
:104ae8005b02984642443f040b0c3f0c0904c91969
:104af800270098464b4677435c436e435d433b0c27
:104b08009946a4194c4442440395a64204d98023eb
:104b18005b02984645440395029b3f045b441e0094
:104b28008342804123049846059b3f0c474498469e
:104b380076188e428941474440423d18a84649426a
:104b480093468a46c344da449f42bf418045804128
:104b5800039b934592418a45894198465346404272
:104b68007f420743240c524249420a433c19a41885
:104b7800da0d049b75021d43681e85415346444463
:104b88006402f60d144335435a021543e30173d505
:104b980001216a080d401543e207154364084b4a92
:104ba8006244002a43dd6b0709d00f2129400429fc
:104bb80005d0291da942ad416d4264190d00e301dc
:104bc80004d5434a14408022d200624441498a42b3
:104bd80000dde4e66107ed08640252050d43260b8b
:104be800520d80e68026360326433603360b01979e
:104bf800394a78e603f086fe03001a0015322030a1
:104c08001c2a00dcb8e65646083b00229e40bde65a
:104c1800300003f077fe03001a00153220301c2afa
:104c280000dc83e63400083b00259c4088e601212f
:104c3800891a382900dd53e61f2920dc274822007d
:104c480060442e0085408240ce40681e8541324334
:104c58002a43cc40530709d00f211140042905d01d
:104c6800111d914292415242a4180a0023021fd5f5
:104c780001220026002536e6009b9c468fe71f2070
:104c88004042821a2000d040202903d0144a6244ae
:104c9800944025436a1e95412a0007250243154082
:104ca8000026002d07d00f21002411400429d7d158
:104cb80065076402260bd2081543002213e68026f6
:104cc800360326433603360b034a0ce6ff0300007f
:104cd800fffffffefe070000ff0700001e040000a4
:104ce8003e0400007047c046084b1a6801321a603b
:104cf8005a68002a06d09a68596801329a608a422e
:104d080000d0704700229a60fbe7c04608000020e8
:104d1800f0b5124c124d83b06359002b03d1114edc
:104d2800337b002b01d003b0f0bd3700103701a949
:104d3800380001f099f9019b002b02d1013333733c
:104d4800f1e70100200000f0a9fe60510028ead137
:104d58000121380001f0acf9e5e7c046c8010020a0
:104d68009c0800000800002030b50c4c83b02834a3
:104d780001a9200001f078f9050000f0e5fa002803
:104d880002d0019b002b01d103b030bd044b01219f
:104d98001b8d20002b7001f08bf9f5e7080000202f
:104da800001c0042014b00211868704708000020d1
:104db800064b10b51c6801f05ffe63011b1b9b00ce
:104dc8001b19db001818002110bdc0460800002080
:104dd800f8b50700fff7e6ff002600250400fff7f7
:104de800e1ff001ba9418e4201d18742f7d8f8bde7
:104df800f8b50700fff7dcff002600250400fff7e1
:104e0800d7ff001ba9418e4201d18742f7d8f8bdd0
:104e1800f0b5de46454657464e46e0b5002085b01b
:104e280003f0a8fb0021884801f056fe01f0fcfdc4
:104e38000a2003f0f9fe854d0c23280020221030ab
:104e4800834901f049f8002800d0a4e02800012394
:104e5800283080227f4901f03ff8002800d09ae0ee
:104e68007d4c00e0238d00f06ffa0028fad104236e
:104e7800794a917d0b439375784b1800994600f059
:104e880083fd002800d0cfe0484600f0d1fd061e83
:104e980000d0d0e0724c210020004c31583003f093
:104ea800f5fd200064216c3003f0f0fd0c236d4cff
:104eb8009a460433984627002000a244a044143799
:104ec8000093424653463900183003f0dffdfa23b9
:104ed8002000db000093424653463900583003f067
:104ee800d5fd320060490c2001f0feff80228021b0
:104ef8005e4b120149036e609a619961490199619b
:104f0800090999615a61fa235b006b60584b9a460c
:104f18004b4652469e58002e36d12b7b002b50d143
:104f28002f001037380001f07df80028f0d003a9d1
:104f3800380001f085f8039b0600002be8d0a52374
:104f48000b2498466c44434601212000237000f04e
:104f580075f90c21300000f071f923780121db4349
:104f68002000237000f06af9039b0121013b3800ff
:104f7800039301f08df8039b0c36002be3d14b46cd
:104f880052469e58002ec8d04b465246394899582a
:104f9800103003f07bfd00238022802101206b600c
:104fa800324b12019a6152029a61890352019a6145
:104fb80099615a6105b03cbc90469946a246ab46f9
:104fc800f0bd2c488027343003f048ff80231b01b4
:104fd80098464246254c6e60a3615b02a361bf04fc
:104fe8009b465b00a7612448a36162616761fff784
:104ff800effe42468023a2615a469b03a2611f49e5
:105008000022a7610c20a36101f06eff2800103078
:1050180000f07eff002214490c202e7301f064ff7b
:10502800fa235b006b6073e74a46114b0c48d15872
:1050380003f02cfdafe74a460d4b0948d158203004
:1050480003f024fda7e7c046f14c0000080000204b
:1050580048000020680a0020001c0042c801002007
:105068007c670000fc670000194d00000044004107
:105078009c0800007c68000088130000ed4c0000cc
:105088008022064b1a76793a5a831a7e520704d53b
:1050980004211a8d1a7e1142fbd17047001c004270
:1050a800094a0a4b13600a4b9381c0239b02536041
:1050b800d369002bfcd1022113680b431360024a09
:1050c800d369002bfcd17047001c0042040110403a
:1050d8002bf6ffff00487047006cdc02f8b50a00a9
:1050e800041e45d003680020002b40d0002900d1c1
:1050f800394a190191423dd9d900914244d8590bf6
:10510800d804002303f09efb802102254902091ad6
:10511800002000292bd0314b02301a6882431a60d4
:10512800da69002afcd189b299816168a6686d03a1
:10513800e468022943d01868294a31431040802284
:105148000543520415431d605a68264802400a4325
:1051580022435a60214ad369002bfcd102211368eb
:105168000b4313601d4ad369002bfcd10120f8bd05
:105178000020fce7190b1805002303f063fb8021ce
:105188004902091a0025c3e75900c91800209142ad
:10519800edd8002118001e000f0036184f41801965
:1051a80079410b04050c1d43060429003000002337
:1051b80003f048fb80214902091a0425a8e71a6868
:1051c80007490a401543310047221d6058682143aa
:1051d800904301435960bde7006cdc02001c0042ab
:1051e800ff1ffff0b8dfffff072310b5054a548bf8
:1051f8001c4004d0528b134201d0fff741ff20001e
:1052080010bdc046001c00428023044a5b0251685e
:105218000b435360d369002bfcd17047001c00423c
:10522800044a054953680b405360d369002bfcd1ed
:105238007047c046001c0042fffffeff30b5002843
:1052480017d000290fd0012407250b4a0139137ef6
:105258001c42fcd053682b40012b06d00378013048
:1052680013850029f2d1012030bd0388023013854f
:10527800f7e70020f8e7c046001c00420120024b77
:105288001b7e18407047c046001c0042024b187e27
:105298008007c00f7047c046001c00420121034a26
:1052a800137e1942fcd080b210857047001c004262
:1052b8008023044a9b0251680b435360d369002b37
:1052c800fcd17047001c0042044a054953680b4052
:1052d8005360d369002bfcd17047c046001c0042c4
:1052e800fffffdff70b504000d00002822d0154b0c
:1052f8005b8b5b0720d10020002d20d004210726de
:10530800104a137e1942fcd0538b1e4212d15368a7
:105318003340012b0ad0138d2370013401308542ac
:10532800efd1281a45426841c0b204e0138d2380aa
:105338000234f3e7002070bdfff7a2fedbe7280088
:10534800efe7c046001c0042024b187e4007c00f22
:105358007047c046001c0042014b188d80b2704750
:04536800001c0042e3
:020000040000fa
:10536c00d40d00201c0000000000000004000020f0
:10537c000400000000000000540c0020c0000000dd
:10538c0000000000f00d00200c00000000000000e8
:10539c00fc0d0020080000000000000008000020a8
:1053ac00e00a000000000000040e002004000000d1
:1053bc0000000000740d0020200000000000000020
:1053cc00940d00202000000000000000b40d00200f
:1053dc002000000000000000080e00200400000067
:1053ec0001000000140d0020140d002060000000ce
:1053fc000100000000000000940d0020b40d0020fe
:10540c00740d0020000000000000000000000000ef
:10541c000000000000000000000000000000000080
:10542c000000000000000000000000000000000070
:10543c000000000000000000000000000000000060
:10544c000000000000000000000000000000000050
:10545c0000000000e80a00206c01000001000000c0
:10546c0043000000000000000000000000000000ed
:10547c000000000000000000000000000000000020
:10548c0043000000000000000000000000000000cd
:10549c000000000000000000000000000000000000
:1054ac0043000000000000000000000000000000ad
:1054bc0000000000000000000000000000000000e0
:1054cc00430000000000000000000000000000008d
:1054dc0000000000000000000000000000000000c0
:1054ec00430000000000000000000000000000006d
:1054fc0000000000000000000000000000000000a0
:10550c00430000000000000000000000000000004c
:10551c00000000000000000000000000000000007f
:10552c00430000000000000000000000000000002c
:10553c00000000000000000000000000000000005f
:10554c00218e0000f98c0000000000005c6f000050
:10555c00518f0000508f0000508f0000508f0000c2
:10556c00508f0000508f0000508f0000508f0000b3
:10557c00508f0000508f0000ffffffffffffffff69
:10558c00ffffffffffff00000100415343494900ab
:10559c0000000000000000000000000000000000ff
:1055ac000000000000000000000041534349490086
:1055bc0000000000000000000000000000000000df
:1055cc000000000000000000000000000c0e002095
:1055dc000400000000000000100e00200400000079
:1055ec00000000000000002004000000000000008b
:1055fc00140e002004000000000000000000000059
:10560c0000000000222222222222222222222222f6
:020000040000fa
:10561c00f0b557464546de464e4680460800072103
:10562c00e0b59246554a83b052681140019107d0bb
:10563c00002800d08ce0002b02d0da0700d58ae0dd
:10564c004246541ea241524210405246002a00d1fa
:10565c0083e04a4a127e520705d50425474a916acf
:10566c00117e0d42fbd10425444a548b2c438025da
:10567c005483147e2c43147600229146984201d216
:10568c001a1a9146019a002a5cd101243b4d2a7ebc
:10569c001442fcd000220027042601258346374cf7
:1056ac005f4511d0791c8c46019900292bd14146bc
:1056bc00c95d6746a1625846002b14d1217e0d426c
:1056cc00fcd083465f45edd1494600292dd0019988
:1056dc00002927d1ff31a162012149428c4658464d
:1056ec00e144002bead0217e0e42fcd08346a06a16
:1056fc009342d5d9511c8c46019900290bd15146a6
:10570c0088546246cce741467f00795a6746c90502
:10571c00c90da162cfe7c10550465200c90d115207
:10572c006246bde71649a162d6e7022213490b7ef9
:10573c001a42fcd0012003b03cbc90469946a246cc
:10574c00ab46f0bd4a4652085b08400891469ce7c0
:10575c00c20700d46fe70020ede7084a0023147e4f
:10576c00610700d579e70425548b2c43802554839d
:10577c00147e2c4314760022914683e700080042e5
:10578c00ff0100008023074a9b025360d369002b62
:10579c00fcd103331373044b1360024ad369002bff
:1057ac00fcd17047000800420e00303070b5050087
:1057bc00081e00d11c4802221c4c23689343236012
:1057cc00e369002bfcd1002d2bd02b68590001f084
:1057dc0025fa821e03000020fe2a19d822681449db
:1057ec0068680a402260aa68216802430a43226062
:1057fc000722013bdbb22373636893436360ea685f
:10580c0063681343094a6360d369002bfcd1012000
:10581c000221064a13680b431360d369002bfcd199
:10582c0070bd0020f4e7c046006cdc0200080042aa
:10583c00ffffffcf10b50400002905d0002803d0ce
:10584c002000fff7e5fe10bd0020002bfbd0002a46
:10585c00f6d1f8e710b50023002905d0002803d0b5
:10586c000022fff7d5fe0300180010bd020010b592
:10587c000020002905d0002a03d00b000021fff7df
:10588c00c7fe10bd0d4a10b51368002b14d00624aa
:10589c00015f19800824015f59800a24015f9980f7
:1058ac000c24015fd9800e24015f198119000c3181
:1058bc0011601021425e5a8110bdc04604000020c8
:1058cc00f0b5d6464f464646c0b582b0002b20d028
:1058dc00d7188b1a98464023140001ad124e9a46e5
:1058ec00994604e053460134b361bc4211d043469f
:1058fc007f221b191a4023782a706b704b460221a9
:10590c0073612800fff7a6ff0028ebd1012040426d
:10591c0000e000204022044b9a6102b01cbc90466f
:10592c009946a246f0bdc0460044004130b583b054
:10593c001d006b46d81d8023140040225b420b4394
:10594c0003700b4b01215a61fff784ff00280cd028
:10595c0029002000fff78aff01235840c0b24042c3
:10596c004022034b9a6103b030bd01204042f7e75f
:10597c000044004110b5fff719fa10bd10b5fff740
:10598c0035fa10bd70b5204b040082b0c01810223f
:10599c00002103f0a9fa882200231201a3501b490d
:1059ac001b4a1c4da1501c491c4a2000a1508921a6
:1059bc007f22090162501a4962500121194aa154ef
:1059cc00635188231b01e118174afcf799f9002150
:1059dc0060512000fcf7f4f86359034363516b46a4
:1059ec00de1d31002000faf767fc63590343635155
:1059fc003378472b03d0635901235b426351054b2a
:105a0c00e05802b070bdc0468c0800003959000047
:105a1c00840800009c080000cd5800008808000095
:105a2c0094080000980800009158000070b504001c
:105a3c000021fcf745f8174d0021635903436351ce
:105a4c002000fbf73ffb6359002103436351200007
:105a5c00fbf752fb63590821034363512000fbf70a
:105a6c00dffa63590821034363512000fbf710fb55
:105a7c006359034363512000faf752fd6359034302
:105a8c0063512000faf708fe6359034363516059d0
