:020000040000fa
:10000000f07f00207d9d0000dda60000e1a600003d
:1000100000000000000000000000000000000000e0
:10002000000000000000000000000000837d0000d0
:100030000000000000000000837d0000837d0000c0
:10004000837d0000837d0000837d0000837d0000b0
:10005000c5830000837d0000837d0000837d000058
:10006000837d0000837d0000f55a0000837d000041
:10007000837d0000837d0000015d0000837d000022
:10008000837d0000837d0000a57f0000837d00004c
:10009000837d00000000000000000000837d000060
:1000a000837d0000837d0000837d0000837d000050
:020000040000fa
:1000b000f8b5c046f8bc08bc9e4670475d9d000080
:1000c000f8b5c046f8bc08bc9e467047359d000098
:020000040000fa
:0800d00044770000010000006c
:020000040000fa
:1000d80010b513684a1c92b29c5c5a5c24022243f5
:1000e8000280ca1c92b29c5c8a1c92b29a5c24025e
:1000f800224342804a1d92b204319a5c89b25b5c09
:1001080012021343838010bd70b50c0015008c2bb0
:1001180000d16be00ad99c2b38d014d8942b4dd041
:10012800982b16d0902b00d178e070bd602b45d06d
:1001380013d9842b15d0882b01d0802bf5d1238897
:1001480006332380f1e7c02b50d0e02b1ed0a02b24
:10015800ebd123880e332380e7e7202b5ed0402b9a
:10016800e3d1049b21881a684e1d93889e42f2dad7
:100178002e7873009b199b00c018fff7a9ff2388ee
:10018800063323802b7801332b70cee72188049b1c
:100198000e001a68133693889e42dcda2e780e31e8
:1001a80073009b199b00c01889b2fff791ff238841
:1001b800143323802b7801332b70b6e72188049bf6
:1001c8000e001a680d3693889e42c4da2e780831dc
:1001d80073009b199b00c01889b2fff779ff238829
:1001e8000e3323802b7801332b709ee72188049be4
:1001f8000e001a680b3693889e42acda2e780631c8
:1002080073009b199b00c01889b2fff761ff238810
:100218000c3323802b7801332b7086e7238808332f
:10022800238082e770b50c0015008c2b5cd00bd9ad
:100238009c2b41d01ad8942b00d16be0982b1bd063
:10024800902b00d16ae070bd602b63d02cd9842b31
:100258002ed0882b01d0802bf5d1049b21881a68d9
:100268004e1d93889e425ddb2380ece7c02b3bd07c
:10027800e02b21d0a02be6d12188049b0e001a6820
:100288000d3693889e42efda2e78083173009b1959
:100298009b00c01889b2fff71bff23880e33238009
:1002a8002b7801332b70cee7202b37d0402bcad1c7
:1002b800238806332380c6e72188049b0e001a682a
:1002c800133693889e42cfda2e78083173009b1933
:1002d8009b00c01889b2fff7fbfe238814332380e4
:1002e8002b7801332b70aee72188049b0e001a6827
:1002f8000b3693889e42b7da2e7873009b199b00c1
:10030800c018fff7e5fe23880c3323802b780133d0
:100318002b7098e723880e33238094e723880833cb
:10032800238090e72e7873009b199b00c018fff775
:10033800cffe2388063323802b7801332b7082e786
:1003480013685a5c02704a1c92b29a5c42708a1c0a
:1003580092b29a5c8270ca1c92b29a5cc2700a1df0
:1003680092b29a5c02714a1d92b29a5c42718a1ddd
:1003780092b29a5c0731827189b25b5cc371704733
:1003880070b50c0015008c2b38d009d99c2b39d0ae
:1003980010d8942b14d0982b12d0902b46d070bd27
:1003a800602b0dd016d9842b18d0882b16d0802b13
:1003b800f5d113e0c02b21d0e02b23d0a02beed118
:1003c8002188049b0e001a680d3693889e4209db2b
:1003d8002380e4e7202b29d0402be0d12388063363
:1003e8002380dce72b78db00c018fff7a9ff238800
:1003f8000e3323802b7801332b70d0e723880c33fe
:100408002380cce72188049b0e001a681336938852
:100418009e42ddda2b78db00c018fff791ff2388b6
:10042800143323802b7801332b70b8e7049b218881
:100438001a68ce1d93889e42cada2b78db00c01852
:10044800fff77eff2388083323802b7801332b7036
:10045800a5e7c04603888a8830b59c1c944201db16
:10046800028030bd0d68ec18a278ed5c6478120447
:100478002a432402224303330a610380f1e7c0467a
:10048800f0b5c64614002a2200b56d469a5c0e00e7
:10049800a21892b2d11dc908c900691a00af8d46c9
:1004a800d9696d468846002920d0002c18d0997843
:1004b800012901d17f3108435b7801009c46130074
:1004c80060462a00c04700280dd10023ea5cf25498
:1004d80001339ab29442f9d8bd4604bc9046f0bda7
:1004e8000c204042f8e702204042f5e70120404254
:1004f800f2e7c04670b50d00002184b001ac0600db
:100508001300019102912172821d21001220fff730
:10051800b7ff002814d1019b62792b60237912025e
:100528001343ab80032e02d0a86004b070bd237ab9
:10053800a2791b041343e27912021343ab60f4e778
:1005480002204042f1e7c04610b582b00b00694670
:100558000400012207311b20fff792ff002804d175
:100568006b46db791b07db0f237002b010bdc0465a
:10057800f8b54746ce46804680b5894617001d1e09
:100588003ad01e6a002e37d0002a2fd09b78012b34
:1005980003d102007e331a4090462b7a112b03d0e8
:1005a8002b7c0024152b10d13b0068784a46414625
:1005b800b0476b6a060001209847002e19d1300019
:1005c8000cbc90469946f8bd2e6a4b461a1943460c
:1005d8001919c9b201236878b047013406006b6a5b
:1005e8000120e4b29847bc42eed3e6e70c267642f7
:1005f800e5e702267642e2e701267642dfe7c046d3
:100608000023f0b583b001ac06000f00150023806d
:10061800a3702100130055200322fff731ff0028a3
:100628001bd13b78164aa078d15c2278cb435bb2c9
:100638001a4018403378012b14d0002b13d0022b0a
:100648001ad0032b0bd10a4301432270a1702b004f
:10065800032221005520fff78bff03b0f0bd0420d3
:100668004042fae70a432270a0702b0003222100bf
:100678005520fff77dfff0e70143a1702270e6e700
:100688005058000070b582b0140000236a460e006e
:100698006946d37105002300012207315620fff770
:1006a800effe00281cd13378124ad05c6b46db7908
:1006b80001012a78c9b283438b43012a06d0002a54
:1006c80005d0022a11d0032a0cd101430b436a46f4
:1006d800d37169462300012207315620fff748ffee
:1006e80002b070bd04204042fae76a460343d37162
:1006f800efe7c04650580000f0b5ce46474680b5f3
:1007080083b06b46dc1d002306000d002370012218
:100718000b0053202100fff7b3fe00284cd1b1781d
:100728002078ca078b074f070907ff0fc90fbc4678
:10073800cfb2b9463778d20fdb0fb846012f40d079
:100748007f21084099014023d20110439843634612
:100758005a012023014399430a434b4610211b01a8
:100768008a431343237001222b0021005320fff7f3
:10077800fffe002820d120702b00012221005420e8
:10078800fff77efe002817d1b2783178d206237899
:10079800d20f012926d0202152018b4313430f2168
:1007a80072888b43d205120f1343237001222b004a
:1007b80021005420fff7dcfe03b00cbc904699469c
:1007c800f0bd0737b843d200024304209b008243a0
:1007d8001a436346023882435b00134342469343fd
:1007e8000b43bfe70f3112018b431343d7e7c046d2
:1007f80070b582b06b46dd1db623041e2b7024d065
:10080800436a002b21d00300012229007e20fff734
:10081800affe636a060001209847002e08d1a3782e
:10082800012b08d00a4a0b4b6260e360a260236187
:10083800300002b070bd2300012229007f20fff79d
:100848001ffe0028eed00600f2e701267642efe709
:10085800100803021408000210b5040082b083785f
:10086800002854d0c269002a49d0026a002a46d01a
:10087800426a012b30d02a230021c154002a28d0f3
:10088800002301222370210023000020fff7f8fd38
:100898002378d12b2ed02300012221000020fff73e
:1008a800effd2378d12b25d0230001222100002041
:1008b800fff7e6fd00281fd12378d12b1cd1ff2399
:1008c8002000e370fff794ff02b010bd2a23012235
:1008d800e25401204042f7e72a214354002af8d085
:1008e80069460300012207317f20fff7c9fd002870
:1008f800c6d0e9e70028e2d003204042e4e7012b14
:10090800e4d02a2300220120e2544042dce7ffde43
:1009180070b5040082b0002800d189e0436a002b3a
:1009280000d185e06b4600229a71037919001039cd
:10093800022900d96ce0017a99420dd1237b1a0073
:10094800143a012a01d9172b62d1227c00259a4238
:1009580029d1280002b070bd6b466946da71de1de8
:100968000122030006314020fff78afd051ef0d161
:100978006b4622799b79122a2bd05ab2002a4adb7d
:100988002300211d01227e20fff7f2fd237a0600b5
:100998000500102b02d10520636a9847237923723a
:1009a800002ed6d1cae72100230001220c317e2077
:1009b800fff7defd237c0500142b04d0227b172bc8
:1009c8001ed02274c5e75120636a9847227b22749f
:1009d800bfe7923a134369466a460631937140204d
:1009e80023000122fff7c4fd051eb2d12300022215
:1009f80031005820fff7bcfd0500002dc0d0a8e746
:100a0800152aded10a20636a9847227b2274a0e760
:100a180004256d429de77f22694613406a460631e8
:100a28009371402023000122fff7a2fd0500e4e7af
:100a380001256d428de7c04630b5040083b000281b
:100a480000d1aae0436a002b00d1a6e0002301ad43
:100a58002b800222030029004020fff711fd002807
:100a68002cd162790f2a00d994e0637a934205d099
:100a78000f212b780a408b4313432b70e379022b09
:100a880000d987e0e27a9a4203d070222b78934308
:100a98002b70a2790c2a00d97ce0a37a934205d066
:100aa8000f216b780a408b4313436b70230001229c
:100ab80029004020fff75cfd002801d003b030bdbd
:100ac8006946637901226372e3790531e372413043
:100ad8002300fff74dfd021ef0d1a3792880a372f1
:100ae8000232230029004220fff7cafc0028e5d182
:100af800627b0d2a4ed8637c934205d00f212b7858
:100b08000a408b4313432b70e27b022a42d83021e0
:100b18002b7812018b431343a27b2b70042a39d8fc
:100b2800a37c934205d06b7829398b430a40134341
:100b38006b702300012229004220fff719fd0028cd
:100b4800bcd16946637b01226374e37b0531e3749e
:100b580043302300fff70cfd0028afd1a37b200012
:100b6800a374fff7d5fe0028a8d12870230001221e
:100b780029000230fff784fc2b78db061b0f012bc2
:100b880014d0022b0fd0032b0ad0072b96d10920a3
:100b9800404293e70420404290e7012040428de71d
:100ba800082040428ae70720404287e70620404263
:100bb80084e7c04610b582b000236a460400d371aa
:100bc800002919d04b6a002b16d00b006946012268
:100bd80007310320fff754fc00280bd16b46da7964
:100be800032319001140a1709110121119401340ec
:100bf8006170237002b010bd01204042fae7c04680
:100c080070b5150002220e0003214407e40f013cd1
:100c1800944384b001400334002b00d188e00229ba
:100c280007d0032928d001291ed00520404204b04e
:100c380070bd002d7cd0002269460092019202927c
:100c48008a818a73002c49d106220c20fff718fcf0
:100c5800002870d1009b2b606b465a791b791202d1
:100c68001343ab80a860e2e7002e61d01a00310080
:100c78002000fff73ffcdae7002d59d0002e57d0af
:100c8800002269460092019202928a818a732200a8
:100c98000c3292b20c20fff7f3fb00284bd1009bdb
:100ca8002b606b465a791b7912021343ab806b4653
:100cb800da799b791202134333806b465a7a1b7a8e
:100cc8001202134373806b46da7a9b7a120213433b
:100cd800b380032c1fd0b060a860a8e722000c32b4
:100ce80092b269460c20fff7cbfb002823d1009b6a
:100cf8002b606b465a791b7912021343ab806b4603
:100d08006a469b7b127b1b0413436a46527b120282
:100d18001343ab608be76b466a469b7b127b1b04d5
:100d280013436a46527b12021343b360ab607ee7fb
:100d3800012040427be70220404278e7f0b5437843
:100d480083b005000c000d2b01d900f03ffed54af9
:100d58009b00d3589f46002901d100f0c3fd4b6a80
:100d6800002b01d100f07efd00236a46512013714b
:100d78000b00012201a9fff783fb002821d16b4654
:100d880040221b7901a993431a002b7a51309b0703
:100d9800db0f9b0113436a46137123000122fff7ff
:100da800e7fb00280dd121002800fff7a5fc00284b
:100db80007d1691c22002800fff764fc01e0fff757
:100dc8009bfc03b0f0bd002901d100f09bfdcb696d
:100dd800002b01d100f092fd0b6a002b01d100f02d
:100de80089fd4b6a002b01d100f080fd002301af83
:100df8003b7001220b0050203900fff741fb00280f
:100e0800dfd107223b7893432a79920601d400f078
:100e1800e5fc072213433b700123e3702300012202
:100e280039005020fff7a4fb0028cad12100280070
:100e3800fff762fc0028c4d1691c22002800fff7d4
:100e4800dffb0028bdd1387023000122390059305a
:100e5800fff716fb0028b4d17f212b793a78db06ff
:100e6800db0f0a40db0113433b70012223003900ea
:100e78005930fff77dfb0028a3d16b7901223b7025
:100e8800390023006030fff773fb002899d1230055
:100e9800012239006230fff7f3fa002800d090e70a
:100ea8002b793a7899070c308243090f11431a07b6
:100eb8002430920f814312010a4302219b06db0f63
:100ec8008a435b0013433b70012223003900323010
:100ed800fff74efb75e7002901d100f033fdcb6920
:100ee800002b01d100f01efd0b6a002b01d100f090
:100ef80015fd4b6a002b01d100f020fd002301af46
:100f08003b7001220b0050203900fff7b9fa021e8e
:100f180000d056e701202b793978184201d100f02a
:100f280056fc9e07f60f8143314302265807c00f2f
:100f38004000b143014304201b07db0f9b008143a2
:100f48000b433b70e2702300012239005020fff769
:100f58000ffb002800d034e721002800fff7ccfb66
:100f6800002800d02de738702300012239006230b4
:100f7800fff786fa002800d023e702223b781a42be
:100f880001d000f061fc691c22002800fff738fb43
:100f9800002800d015e738702300012239005930a5
:100fa800fff76efa002800d00be77f212b793a78fb
:100fb8005b06db0f0a40db0113433b700122230071
:100fc80039005930fff7d4fa002800d0f9e66b460b
:100fd800de1cd87038802300012231005f30fff713
:100fe8004ffa002800d0ece6032233783900934307
:100ff80033703b706b79013a7b705f302300fff7e9
:10100800b7fadee6002901d100f094fccb69002b89
:1010180001d100f08bfc0b6a002b01d100f036fceb
:101028004b6a002b01d100f02dfc002301af3b706f
:1010380001220b0052203900fff722fa002800d0c5
:10104800bfe608212b793a78db07db0f8a43db0000
:1010580013433b700122230039005230fff788fa0e
:10106800002800d0ade621002800fff745fb002846
:1010780000d0a6e6691c22002800fff7c1fa002864
:1010880000d09ee63f222b793880934300d0afe30f
:10109800054b3b802300022239007a20fff768facb
:1010a8008fe6c046bc53000015030000002900d19c
:1010b800e4e3cb69002b01d100f010fc0b6a002b94
:1010c80001d100f007fc4b6a002b00d1e2e30023ba
:1010d80001af3b7001220b0050203900fff7d0f917
:1010e800002800d06de66b7969781b073a78db0f2a
:1010f800042900d177e310211b018a4313433b7075
:101108000122230039005020fff732fa002800d0ce
:1011180057e621002800fff7effa002800d050e634
:1011280021002800fff7e8fa002800d049e6691cea
:1011380022002800fff764fa002800d041e6387042
:101148002300012239005820fff79af9002800d01f
:1011580037e608216b793a785b07db0f8a43db00b7
:1011680013433b700122230039005830fff700fa7f
:10117800002800d025e638802300022239006320a9
:10118800fff77ef9002800d01be66b783978032b2f
:1011980005d1aa8804339205520f99431143402080
:1011a8002a7981439306db0f9b010b4351063f309d
:1011b800c90fc90103400b431f213b707b78d2063e
:1011c8008b43d20e1a437a702300022239001c384e
:1011d800fff7cef9f5e5002900d1d3e3cb69002b61
:1011e80000d1cbe30b6a002b00d1c3e34b6a002b81
:1011f80000d1bbe300236a46502013710b00012283
:1012080001a9fff73df9002800d0dae56a46402633
:10121800ab791279db07db0fb2439b0113436a46b4
:1012280001a91371503023000122fff7a1f900280a
:1012380000d0c6e521002800fff75efa002800d09c
:10124800bfe5691c22002800fff7daf9002800d062
:10125800b7e56b460222988001a923006530fff7a5
:101268000ff9002800d0ace56b461a7903239a439e
:101278002b790c309907890f0a430c2152b2194077
:1012880082430a430f211b090a401b0113436a4684
:1012980013713f23527959309a436b799906890e15
:1012a8000a43310052b21940b2430a437f21db0995
:1012b8000a40db0113436a4601a953712300022245
:1012c800fff756f97de5002900d1d3e2cb69002b61
:1012d80000d11fe30b6a002b00d117e34b6a002be8
:1012e80000d157e300236a46502013710b000122f6
:1012f80001a9fff7c5f8002800d062e56a46117910
:101308007f226b790a401b07db0fdb0113436a4618
:1013180001a91371503023000122fff729f9002891
:1013280000d04ee521002800fff7e6f9002800d09c
:1013380047e5691c22002800fff762f9002800d061
:101348003fe56b460222988001a923006730fff72a
:1013580097f8002800d034e56b463f221b793021ee
:1013680093432a7967309206920e13436a461371a3
:101378006b7952795b079b0f8a431b011343aa8839
:1013880029395bb2d205520f8b4313436a4601a930
:10139800537123000222fff7ebf812e5002900d170
:1013a80000e3cb69002b00d1f8e20b6a002b00d1d7
:1013b80000e34b6a002b00d1f8e2002301af3b7039
:1013c80001220b0051203900fff75af8002800d0fd
:1013d800f7e401233978023099432b79da07d20fe1
:1013e8001143022281431a400a4304218a430b40d5
:1013f80013433b700122230039004f30fff7b8f840
:10140800002800d0dde421002800fff775f9002846
:1014180000d0d6e4691c22002800fff7f1f8002864
:1014280000d0cee438702300012239005830fff78d
:1014380027f8002800d0c4e47f212b793a789b064e
:10144800db0f0a40db0113433b7001222300390004
:101458005830fff78df8002800d0b2e400230122ad
:101468003b80bb70390023005c30fff709f8002887
:1014780000d0a6e43f212b793a78db069b0f0a407f
:101488009b0113433b70ab7903227b706b79390066
:10149800bb705c302300fff76bf892e4002900d1a1
:1014a80074e2cb69002b00d100e20b6a002b00d15b
:1014b800f8e14b6a002b00d1f0e1002301af3b704b
:1014c80001220b0051203900fef7daff002800d076
:1014d80077e40821ab793a78db06db0f8a43db0037
:1014e80013433b700122230039005130fff740f8c5
:1014f800002800d065e421002800fff7fdf8002847
:1015080000d05ee4691c22002800fff779f8002863
:1015180000d056e438702300012239005830fef715
:10152800afff002800d04ce47f21ab793a781b0745
:10153800db0f0a40db0113433b7001222300390013
:101548005830fff715f8002800d03ae40023694620
:101558003b80bb700122230006315c30fef790ff10
:10156800002800d02de40322a979bb78880793438b
:10157800800f03430420014083430b43bb706b7906
:1015880039007b702b7956303b702300fef7f0ff53
:10159800fff717fc002900d198e1cb69002b00d197
:1015a80090e10b6a002b00d188e14b6a002b00d137
:1015b80080e1002301af3b7001220b00522039006b
:1015c800fef75eff002801d0fff7fbfb01212b7916
:1015d800194203d03a788a430a433a7002211942e1
:1015e80003d03a788a430a433a7004221a4203d055
:1015f8003b78934313433b70230001223900522068
:10160800fef7b6ff002801d0fff7dbfb210028001a
:10161800fff772f8002801d0fff7d3fb691c2200fe
:101628002800fef7edff002801d0fff7cafb38704d
:101638002300012239005930fef722ff002801d08b
:10164800fff7bffb7f216b793a785b07db0f0a4016
:10165800db0113433b700122230039005930fef7a8
:1016680087ff002801d0fff7acfb6b46de1cd87063
:1016780038802300012231005f30fef701ff002887
:1016880001d0fff79efb0321ab883278db059b0e68
:101698000a409b00134333700122230031005f305e
:1016a800fef766ff002801d0fff78bfb230001221d
:1016b80031006230fef7e4fe002801d0fff781fb1d
:1016c80001223378390093436a7961309207d20f47
:1016d800134333707b70ab7902223b702300fef713
:1016e80047fffff76efb002900d13be1cb69002bd8
:1016f80000d133e10b6a002b00d12be14b6a002ba0
:1017080000d123e100236a46512013710b00012206
:1017180001a9fef7b5fe002801d0fff752fb6b4682
:1017280010221b7901a9934313436a465130137160
:1017380023000122fef71cff002801d0fff741fb20
:1017480021002800fef7d8ff002801d0fff739fb59
:10175800691c22002800fef795fffff732fb0029dd
:1017680000d183e04b6a002b6ad000236a465120df
:1017780013710b00012201a9fef782fe002801d097
:10178800fff71ffb6b4620221b7901a993431a0020
:101798002b7a5130db07db0f5b0113436a46137169
:1017a80023000122fef7e4fe002801d0fff709fb21
:1017b80021002800fef7a0ff002801d0fff701fb59
:1017c800691c22002800fef75dfffff7fafa0723dd
:1017d8009943f8333970e370fff7b5fb3b70ff238b
:1017e800e370fff71bfb1c315b018a43134386e45c
:1017f800402b00d1e2e0802b00d1e3e0c02b00d0e9
:1018080048e42300022239007a20fef739fe002836
:1018180000d03fe42a79397853079b0f1830814369
:10182800db000b4307219206520f8b4313436a795f
:101838003b707b7852078b43520f13437b7029e42c
:1018480001204042fff7bdfa93433b70013a230061
:1018580039006230fef78cfe002801d0fff7b1fa9c
:10186800fff791fb01204042fff7abfa012040420d
:10187800fff7a7fa01204042fff7a3fa01204042f0
:10188800fff79ffa01204042fff79bfa01204042f0
:10189800fff797fa01204042fff793fa01204042f0
:1018a800fff78ffa01204042fff78bfa01204042f0
:1018b800fff787fa01204042fff783fa01204042f0
:1018c800fff77ffa01204042fff77bfa01204042f0
:1018d800fff777fa01204042fff773fa01204042f0
:1018e800fff76ffa01204042fff76bfa01204042f0
:1018f800fff767fa01204042fff763fa01204042f0
:10190800fff75ffa01204042fff75bfa01204042ef
:10191800fff757fa01204042fff753fa01204042ef
:10192800fff74ffa01204042fff74bfa01204042ef
:10193800fff747fa01204042fff743fa01204042ef
:10194800fff73ffa01204042fff73bfa01204042ef
:10195800fff737fa01204042fff733fa01204042ef
:10196800fff72ffa01204042fff72bfa01204042ef
:10197800fff727fa01204042fff723fa01204042ef
:10198800fff71ffa01204042fff71bfa01204042ef
:10199800fff717fa01204042fff713fa01204042ef
:1019a800fff70ffa01204042fff70bfa01204042ef
:1019b800fff707fa01204042fff703fa133b3b7099
:1019c800fff768fb034b3b80fff764fb0020fff742
:1019d800f8f9c0461d07000030b583b000236a46f9
:1019e80005000c1ed37125d0cb69002b22d00b6ac1
:1019f800002b1fd04b6a002b1cd00b00694601221c
:101a080007317b20fef73cfd00280ed16b46db79c1
:101a1800012d0cd0082293436a466946d3710731d9
:101a2800230001227b20fef7a3fd03b030bd08226e
:101a38001343f1e701204042f7e7c04610b582b0f2
:101a480000236a4604009380002915d0cb69002b37
:101a580012d00b6a002b0fd04b6a002b0cd00b0056
:101a6800022201a97820fef70bfd002802d16b465f
:101a78009b88238002b010bd01204042fae7c0468f
:101a8800f0b54546de4657464e46e0b589b0029168
:101a980090461c1e6bd0db69002b68d0237dda07cb
:101aa80062d51b079b0f334a5b00d3181b8a00259e
:101ab8009a4604abde1d0023069307935346dbb218
:101ac80099464346cb46dbb2307003930093abb2e2
:101ad800019300270be02300012231004d20fef77f
:101ae80047fd636a07000a209847002f0ad0019b28
:101af8009845f0d8380009b03cbc90469946a246b3
:101b0800ab46f0bd2300524606a90420fef7b8fcf8
:101b1800002826d1d0451dd2039b9b46029a691ef8
:101b280094465a46012361445846002a07d0f25c7d
:101b3800ca5401335a1ed2b28242f8d383464a4667
:101b480033784d444b443370009bedb29b1adbb2a3
:101b58000093bce743465b1b5345dfda009b9b467b
:101b6800dce702277f42c5e705277f42c2e7012756
:101b78007f42bfe750580000f0b546464f46d6466c
:101b8800c0b582b01d006b46de1d89469046307098
:101b9800002d3bd02b6a002b38d0002a34d00123eb
:101ba8005b42434400249a4603e00134e4b24445ce
:101bb80023d22b00012249464f20fef7d9fc6b6a3d
:101bc80007000a209847002fefd12b00012231008f
:101bd8004e20fef7cdfc6b6a07000a209847002fbd
:101be800e3d15445e1da01239c46337801340133cb
:101bf800e4b2e14433704445dbd3380002b01cbc86
:101c080090469946a246f0bd0027f6e701277f4295
:101c1800f3e7c04670b5437d82b001ad5b002b7021
:101c28006946002304006b700122030005314c2033
:101c3800fef726fc061e02d0300002b070bd7f23de
:101c48006a784b201340227d9107c90fc9010b43c5
:101c5800032112078b43920f13436b700222230058
:101c68002900fef785fc636a06000a209847e3e727
:101c780010b5040082b000283cd0c369002b39d0cd
:101c8800036a002b36d0436a002b33d0037ddb0771
:101c98002dd56a46002393711923d11d0b7001229b
:101ca80003007e20fef764fc002811d10130636a2e
:101cb800984769462300012206316b20fef7e0fbb6
:101cc8006b4620229b7913436a469371002801d002
:101cd80002b010bd69462300012206316b30fef7c1
:101ce80047fc0028f4d12000fff794fff0e7052017
:101cf8004042ede701204042eae7c04630b50c001b
:101d080083b0002940d0cb69002b3dd00b6a002b53
:101d18003ad04b6a002b37d00b7ddb0731d50b004f
:101d2800012201004d20fef723fc636a05000a200a
:101d38009847002d02d0280003b030bd6946230023
:101d4800012207314420fef79bfb051ef3d16a46aa
:101d58006946237d07311b09d371442023000122e2
:101d6800fef706fc636a05000a209847002de2d1b9
:101d78000222237d200093432375fff74bff0500c4
:101d8800d9e705256d42d6e701256d42d3e7c04660
:101d980010b5002917d0cb69002b14d00b6a002b83
:101da80011d04b6a002b0ed003230a7d1340012b60
:101db80006d10b00082201000420fef761fb10bdcc
:101dc80005204042fbe701204042f8e770b50c00cf
:101dd80088b0002900d1aae0cb69002b00d1a6e089
:101de8000b6a002b00d1a2e04b6a002b00d19ee0c9
:101df800012817d0022810d1152308000b73fef70d
:101e080087fd051e00d166e0002d08db2000fef7e7
:101e1800effc002803d0050001e005256d422800ed
:101e280008b070bd11230b71093b8b710800fef7d8
:101e380003fe051ee8d12c2305ae337001222300d2
:101e480031004020fef794fb051eddd10d23012251
:101e58003370310023006d20fef78afb051ed3d1b5
:101e68003220636a9847220002a90020fef742fb4d
:101e7800051ec9d16b46d91d092301220b706d209f
:101e88002300fef775fb051ebed13220636a984712
:101e9800220031000020fef72dfb051eb4d10022e0
:101ea800b35e6a460821525e9b1a802292019342d1
:101eb8000fdd0221735e69460a20095e5b1a9342b0
:101ec80007dd0421735e69460c20095e5b1a9342a4
:101ed8009cdc02259ae705ae2300012231006d2023
:101ee800fef7cefa051e00d08ee7102233783100b7
:101ef80013433370012223006d20fef739fb051ec2
:101f080000d081e70f20636a98473220636a9847b8
:101f18002300012231001b20fef7b2fa051e00d073
:101f280072e733789b0700d570e701356ee7012526
:101f38006d4274e730b5040083b0002832d083695d
:101f48001a68002a2ed0002201ad5a81da601a617f
:101f58001a752900030002222220fef791fa6978f7
:101f68002a78002811d107230b40a1691b021343cb
:101f780088889ab290420ad98d798a80022d0ad02f
:101f8800096823002420fef77bfa03b030bd8d7961
:101f98000200022df4d118338342f1da193292b2d9
:101fa8008a80ede701204042efe7c04600b583b0e4
:101fb8006b46d91db0230b70002806d00300012200
:101fc8007e20fef7d5fa03b000bd01204042fae7b3
:101fd80070b582b0140000236a4605000e00d37164
:101fe800002c38d069462300012207314720fef72c
:101ff80047fa002812d101239d4306d06b46db79ae
:10200800012e24d06a46ab43d371694623000122ce
:1020180007314720fef7acfa002801d002b070bda6
:1020280069462300012207314730fef729fa0028c4
:10203800f4d16b461022d979a3690a40da710c00f1
:102048001f22944302220a401c729a71e6e71d433c
:102058006b46dd71d9e701204042dfe730b583b038
:1020680000236a4605000c1ed37117d00b00694681
:10207800012207314520fef703fa002801d003b0fa
:1020880030bd6b46db7969461d436b460122dd7125
:10209800073123004530fef76bfaf0e70120404294
:1020a800ede7c04610b582b06b46dc1dd87100293b
:1020b80007d00b00012221004620fef759fa02b092
:1020c80010bd01204042fae7f0b557464e46454656
:1020d800de46002380460020e0b587b005ac2380ab
:1020e80002ab0f00161e987200d1f4e09169002926
:1020f80000d1f0e00b68002b00d1ece0cb794a89e5
:102108009c4665468b88002d44d002aca4460b251e
:102118006544287003200e248146153064448446a3
:10212800b44460469c46ba4622800f0003901100d2
:10213800029661451fd24a463b689b465b5c9343c7
:1021480018004a1c403892b2c0b222805c2800d9dc
:1021580070e0624e800030588746634661462380af
:1021680052462b7812789a4233d0029b9f69bb88db
:102178009c466145dfd30a005746029e2b78002013
:102188003b70b3695a8107b03cbc90469946a24659
:10219800ab46f0bd2280087a8246402800d188e00c
:1021a800c02800d18be0602846d0e02800d18ce020
:1021b8001a0063463b70b36900205a81e3e7624521
:1021c800cbd2524602312b78127889b221809a42ba
:1021d800cbd10a005746029ed1e739002000fef70e
:1021e80039f92188bce76245b7d25b4602319b5c6e
:1021f80089b23b752180b3e70e326245addc0f3101
:1022080089b22180ace708326245a6dc093189b27f
:102218002180a5e7063262459fdc073189b221801b
:102228009ee7039a2100009240462a00fdf76cffc2
:10223800218895e7110093e73878c5002d1a6d00bd
:10224800adb2a9469d4200d999464d46adb2aa42c3
:10225800afd2182081463000b144d4462e004d46f6
:10226800b9464746804611e002a963460a228c46d1
:102278000095624421003800fdf746ff2288b242eb
:1022880011d243469969087a8b888446901c9842f3
:10229800eada0968885c8028e6d18a185278002a28
:1022a800e2d12380e0e702ab9b7a4f4646469c4644
:1022b8007fe73d78680081464d446d00c1e70c20fa
:1022c800814648463d784543bbe714208146484649
:1022d8003d784543b5e70120404254e7f4530000f8
:1022e800f0b557464e464546de4600238046002058
:1022f800e0b587b005ac238002ab0f00161e9872bc
:1023080000d1e6e091690b68002b00d1e1e0cb79c0
:102318008a899c4665468b88002d52d002aca4461b
:102328000b256544287003200e248146153064442b
:102338008446b44460469c46ba4622800f00039007
:1023480011000296614521d24a463b689b465b5c78
:10235800934318004a1c403892b2c0b222805c28cd
:1023680066d85d4e800030588746083262451cdcce
:10237800093189b2218052462b7812789a421cd0b2
:10238800029b9f69bb889c466145ddd30a0057467e
:10239800029e2b7800203b70b3699a8107b03cbc41
:1023a80090469946a246ab46f0bd63465246238006
:1023b80012782b7861469a42e2d10a005746029e6b
:1023c800e8e72280087a8246802870d0c02874d036
:1023d800a0282fd0e02876d01a0063463b70b36956
:1023e80000209a81dae7039a2100009240462a00e9
:1023f800fdf718ff2188bee706326245d5dc0731b4
:1024080089b22180b7e739002000fef723f8218838
:10241800b1e76245c9d25b4602319b5c89b23b7524
:102428002180a8e76245c0d2023189b22180a2e7a3
:102438001100a0e73878c5002d1a6d00adb2a94685
:102448009d4200d999464d46adb2aa42c5d2182040
:1024580081463000b144d4462e004d46b946474621
:10246800804611e002a963460a228c460095624420
:1024780021003800fdf7d6fe2288b24211d2434629
:102488009969087a8b888446901c9842eada096828
:10249800885c8028e6d18a185278002ae2d1238005
:1024a800e0e702ab9b7a4f4646469c4695e73d7867
:1024b800680081464d446d00c1e70c2081464846be
:1024c8003d784543bbe71420814648463d7845435f
:1024d800b5e70120404261e768550000f0b557466e
:1024e8004e464546de460023e0b51600002287b07a
:1024f80005ac238002ab80460f009a72002e00d1f3
:10250800dde0b1690b68002b00d1d8e0002800d1cc
:10251800d5e08888cb798246002b4fd002ab9c4609
:102528000b2565442a7003220e2491461532644413
:102538009446b44462468446cb89ba4623800392c3
:102548000f000296634521d23a68581cd15c934625
:102558004a4691430a00403a80b2d2b220805c2aaf
:1025680022d8584e9200b2589746063060451bdc78
:1025780007339bb2238051462a78097891421ad0b2
:10258800029a9769ba8894466345ddd35746029ef6
:102598002a7800203a70b269d38107b03cbc9046d3
:1025a8009946a246ab46f0bd514663462a7809785b
:1025b80023809142e4d15746029eeae78a89228025
:1025c8000d7aac46202d71d0bf25a94665464846f0
:1025d800603d05422ed06046e0286ad052463b70e6
:1025e800b3690020da81d8e7039b2a0000934046ac
:1025f8000b002100fdf7c4fe2388bce70c306045c2
:10260800d2dc0d339bb22380b5e76045ccd20233d0
:102618009bb22380afe739002000fdf71bff23881a
:10262800a9e76045c0d25a460233125c9bb23a759c
:102638002380a0e73878c5002d1a6d00adb2a946f1
:10264800554500d9d1464d46adb2aa42c7d2182346
:1026580099463000b14463462e004d46b946474678
:10266800804610e002a98c460a22009562442100a7
:102678003800fdf785fe2288b24212d24346996996
:102688008b889a460b7a901c5045ebda0968885c6f
:102698008028e7d18a185278002ae3d1524622804e
:1026a800e0e702ab4f4646469b7a98e73d78ed0057
:1026b800c5e71420814648463d784543bfe70120d9
:1026c80040426ae7dc56000030b5040083b00029b8
:1026d80037d0cb69002b34d00b6a002b31d04b6a32
:1026e800002b2ed00b00072269467120fdf7c8fe8b
:1026f8006b461b886d4623806b469b78a3706b46a0
:10270800997903231a00ed780a40ad0192032a4310
:102718006d4612b29211a2802d798a101a40920346
:10272800ad012a4312b29211e2806a460911527928
:102738000b409b03920113431bb29b11238103b0ef
:1027480030bd01204042fae7f0b5c64600b50700a3
:1027580086b00e00141e00d186e0d369002b00d18c
:1027680082e0136a002b00d17ee0536a002b00d16f
:102778007ae0130001a901227720fdf781fe0028e5
:1027880003d006b004bc9046f0bd6b461a797f238f
:1027980013407a797730d20113434022904641465c
:1027a80093433a7992010a4013436a4601a9137187
:1027b80023000122fdf7dcfe0028e2d16b465d1cf8
:1027c8000122230029006930fdf75afe424641469e
:1027d8003b789b0113402a788a4313433022797847
:1027e800934309010a4013430c22b97893438900a3
:1027f8000a4013430322904641469343fa780a401d
:1028080013432b700028bcd1230001222900693012
:10281800fdf7aefe0028b4d16a464346951cd11c8c
:1028280028700b70012223007e20fdf7a1fe0028ee
:10283800a7d121002800fdf787fe0b272b78002859
:1028480015d0012b0dd0636a192098472100280064
:10285800fdf77afe2b78012b12d0013fffb2002f33
:10286800f1d10b2040428ce70120404289e7012b3f
:10287800e9d12300142201a90c20fdf701fe80e70d
:102888000028eed121003000fff71eff002800d0fd
:1028980077e7eee770b582b0002a36d0d369002b0f
:1028a80033d0136a002b30d0536a002b2dd06c46de
:1028b8000b8823808b78a37004240b5f6c46e3702d
:1028c80006254c5f6d462c7108254d5f69464d7194
:1028d800402106794079b601c00131400143032007
:1028e8001b0a034019436b462d0a0540240a04407d
:1028f8002d012943a400214399716e3013006946c4
:102908000722fdf735fe02b070bd01204042fae70c
:1029180070b582b06b466946de1da0230500337092
:102928000122030006316a20fdf7aafd041e02d029
:10293800200002b070bd6b4602229b7969461343a2
:102948006a46063193716a202b000122fdf710feba
:10295800041eedd12b00012231007e20fdf708fe78
:10296800041ee5d169462b00012206311b20fdf724
:1029780087fd041edcd16b466a469b79db06db0fbc
:102988009371d5d16b6a19209847d1e770b50400c7
:102998000d0016000f2827d00020e30706d4a30750
:1029a8000bd4630711d4230717d470bd13001c3050
:1029b8000122fdf765fda307f3d53300691c012249
:1029c8001d20fdf75dfd6307edd53300a91c01222d
:1029d8001e20fdf755fd2307e7d5e91c330001222a
:1029e8001f20fdf74dfde0e713001c200422fdf732
:0429f80047fddae7d6
:020000040000fa
:1029fc00f0b516001f00446a9db00390259d069605
:102a0c000797002c08d1102007f0e0fd039b4460d1
:102a1c00586284600460c460039b5b6a1968002977
:102a2c000bd05a68012393404a608b60039807f0df
:102a3c00f1fb0022039b5b6a1a60002f1cda012356
:102a4c002b607b005b080793079dba4b2a001893f9
:102a5c001a409a421cd1b84b249a28031360069b47
:102a6c00000b1843b54b01d100f081fd269a002aca
:102a7c0005d10933059308e000232b60e4e71a0025
:102a8c00093205920c33269a136005981db0f0bddf
:102a9c00069b079c10931194109811990022002307
:102aac0006f0c4fe041e0ed00123249a1360a34b1f
:102abc001a000d320592269a002ae6d01a002699a1
:102acc000e320a60e1e71aab01931bab009303983b
:102adc00109a119b06f05efa6e000490760d00d1f0
:102aec007ee010981199119b954a1b031b0b1a43fe
:102afc001100944b1694f6180022934b00f048fded
:102b0c00924a934b02f0e2f9924a934b01f0daf8b5
:102b1c00040030000d0006f0b7fe904a904b02f016
:102b2c00d5f902000b002000290001f0cbf80400bd
:102b3c000d0006f057ff0022029000232000290010
:102b4c0006f07afe00280bd0029806f09dfe2b00b2
:102b5c00220006f06bfe43425841029b1b1a029363
:102b6c0001231393029b162b0fd810981199da009e
:102b7c007c4b9b181a685b6806f05efe00284bd0f5
:102b8c00029b013b0293002313931a9b9e1b002371
:102b9c0008933300013b0b9304d501239b1b089333
:102bac0000230b93029b002b38db029a0b9b944661
:102bbc0063440b93002312920d93229b0124092b47
:102bcc0000d985e0052b02dd0024043b2293229bd7
:102bdc00981e032800d985e007f00cfd296b697855
:102bec001a9b1b9a9e18604bf218202a0fdd40236b
:102bfc009b1a9d405d4b0698f318d840284306f06d
:102c0c0091ff01235a4c013e0919169374e72023b6
:102c1c0006989b1a9840f2e71390b6e7089b029a25
:102c2c009b1a089353420d9300231293c5e700237c
:102c3c000f93239b002b59dc01230c930a932393b2
:102c4c00039a556a00226a600432100014306968d5
:102c5c0098424fd9039806f08dfe039b28605b6a5f
:102c6c001b6805930a9b0e2b00d9f7e0002c00d1b2
:102c7c00f4e0029b002b00dc7ee01a000f21394ba4
:102c8c000a40d2009b181e685f68029b02241d112b
:102c9c00eb060ad5374b0d401a6a5b6a10981199ee
:102cac0001f086fb069007910134324b36e001238c
:102cbc00bee70023239a0f939446029b63440c9324
:102ccc0001330a93002bbbdc0123b9e70123f1e7a5
:102cdc0000230f942293013b00220c930a9323921e
:102cec001333ade701230f93023bf5e7239b0c93c2
:102cfc000a93a5e7013169605200a6e701231d4242
:102d0c0009d0e4180e9b30001a685b68390002f099
:102d1c00ddf806000f000e9b6d1008330e93002d8e
:102d2c00ecd10698079932003b0001f041fb06906c
:102d3c0007913ce00000f07f0f2700008ca60000fc
:102d4c000000f03f01fcffff0000f83f61436f63a0
:102d5c00a787d23fb3c8608b288ac63ffb799f50a8
:102d6c001344d33ff08b0000320400001204000027
:102d7c00000010fe90a30000029b0224002b16d032
:102d8c00109811995d420f23d54a2b40db00d318c4
:102d9c001a685b6802f09af80127002306900791e5
:102dac00d04e2d11002d00d089e0002bbfd1139bec
:102dbc00002b00d18ee0069e079f0022ca4b3000ec
:102dcc00390006f039fd002800d183e00a9b002b66
:102ddc0000d17fe00c9b002b3cdd029b3900013bba
:102dec000e930022c14b300002f070f80690079150
:102dfc000c9f0134200006f047fd069a079b02f059
:102e0c0065f80022ba4b00f05dff14901591149cec
:102e1c00159d159bb74a9e18002f5fd106980799f0
:102e2c000022b54b00f0b4fb220033000690079152
:102e3c0006f016fd002800d0a0e2b0481599844693
:102e4c0061440b0006980799220006f0f5fc002857
:102e5c0000d08de2109b119c069307941b9b002bba
:102e6c0000da5fe1029a0e2a00dd5be19c4bd20096
:102e7c009b185c681b6808930994239b002b00db50
:102e8c00cfe00a9b002b00ddcbe000d073e208986a
:102e9c0009990022984b02f019f8069a079b06f044
:102eac00e9fc0a9d2e00002800d046e2059b059afd
:102ebc005f1c31231370029b0133029341e23d42ac
:102ecc0005d03268736802f001f83b0001346d10d4
:102edc00083667e7029b0a9f0e938be77a1e804b9e
:102eec00d2009b18186859680f9b002b4bd002001e
:102efc000b000020824901f05bfa3300220000f045
:102f0c0047fb05000e00059b1493fb1817930698be
:102f1c00079906f067fd040006f0b6fc02000b00f2
:102f2c000698079900f034fb149b30345f1c1c701e
:102f3c002a0033000690079106f07efc002864d12d
:102f4c00069a079b0020684900f022fb2a003300f8
:102f5c0006f072fc002800d0b0e0179bbb4200d1f9
:102f6c0078e70022614b2800310001f0afff00220e
:102f7c0005000e00069807995c4b01f0a7ff14970b
:102f8c0006900791c3e72200330001f09fff059cd8
:102f9c0014901591e31919930698079906f022fde0
:102fac00179006f071fc0b0002000698079900f0d0
:102fbc00effa179b050030332370199b01340e0078
:102fcc009c4227d114981599059b0022df194c4b74
:102fdc0000f078fe02000b002800310006f040fce7
:102fec0000286bd1149a159b0020454900f0d0faab
:102ffc0002000b002800310006f01efc002800d156
:10300c0028e77b1e1a78302a02d00e9b029343e0ed
:10301c001f00f6e70022354b01f058ff0690079190
:10302c00bae7059c0a9a2300069d079e013b9b1854
:10303c000693089a099b2800310001f0b9f906f0b3
:10304c00d1fc0a9006f020fc089a099b01f03eff87
:10305c000b0002003100280000f09afa0a9b671c52
:10306c0030332370069ba3424ed102000b0000f0bc
:10307c0029fe089a099b04000d0006f0f1fb0028bc
:10308c001ad1089a099b2000290006f0cffb0028d2
:10309c0002d00a9bdb070fd40499039807f0baf807
:1030ac0000233b70029b249a01331360269b002b58
:1030bc0000d1eae41f60e8e4029b0e937b1e1a78b1
:1030cc00392a08d1059a9a421cd10e9a05990132d7
:1030dc000e9230220a701a7801321a7095e7c046a7
:1030ec00f08b000090a300000000f03f0000244093
:1030fc0000001c400000c0fc000014400000c07c1c
:10310c000000e03f1f00d9e700229f4b01f0defedc
:10311c000022002305000e003c0006f087fb00286f
:10312c0087d0b9e70f9a002a00d189e0229a012aa8
:10313c006ddc169a002a66d0944a9b180d9d089c4b
:10314c00089a0121d21808920b9a0398d3180b9362
:10315c0007f063fa0600002c0edd0b9b002b0bdd39
:10316c000b9a2300944200dd1300089ae41ad21a39
:10317c0008920b9ad31a0b930d9b002b1dd00f9b0f
:10318c00002b61d0002d10dd31002a00039805f0d2
:10319c00abff049a01000600039804f053fd0700ee
:1031ac000499039807f036f804970d9b5a1b04d02a
:1031bc000499039805f098ff04900121039807f0f7
:1031cc002cfa129b0500002b40dd1a00010003981d
:1031dc0005f08aff229b05000027012b3edc00270f
:1031ec00069bbb4236d1079b1b03bb4232d1189bbb
:1031fc00079a13422ed0089b0137013308930b9b7f
:10320c0001330b9326e036231a9a9b1a96e70a9bf6
:10321c005d1e0d9bab4208db5d1b0a9b002b0cda81
:10322c00089b0a9a9c1a00238ae70d9b0d95ea1ab3
:10323c00129b00259b181293efe7089c0a9b7fe7d3
:10324c000d9d089c0f9e86e70d9ab1e7229b0027e7
:10325c00012bc4dd129b0120002b08d02b690333fa
:10326c009b00eb18586806f087ff2023181a0b9b5d
:10327c00c0181f23184046d001331b1a042b3fdd06
:10328c001c23181a089b24181b1808930b9b1b183b
:10329c000b93089b002b05dd1a000499039805f08d
:1032ac00cffe04900b9b002b05dd29001a00039820
:1032bc0005f0c6fe0500139b002b26d029000498b0
:1032cc0006f074ff002820da029b0a22013b0293cd
:1032dc0004990023039806f05bfa0f9b0490002bd3
:1032ec0000d14de1002331000a22039806f050fa78
:1032fc000c9b0600002b51dc229b022b4edd0ce0bc
:10330c00042bc6d018001c30bce70a9b002b3fdcfa
:10331c00229b022b3cdd0a9b0c930c9b002b0cd1ab
:10332c0029000522039806f033fa050001000498e1
:10333c0006f03cff002800ddb8e5239b059fdb432e
:10334c00029300230a932900039806f063ff002ed2
:10335c0000d1a1e60a9b002b05d0b34203d0190083
:10336c00039806f057ff3100039806f053ff93e6dd
:10337c003d003e00e1e700252e00dee70e9b3d0000
:10338c0002933e0092e5c046000024403304000046
:10339c000f9b002b00d1ade00a9b0c93002c05dd9c
:1033ac0031002200039805f04bfe06003000002f80
:1033bc0011d07168039806f0ddfa3100040033690e
:1033cc000c319a1c92000c3007f01ef901222100de
:1033dc00039805f035fe0a960600059b0893290014
:1033ec00049804f0ebfd0a990d900400049806f083
:1033fc00ddfe32000e902900039805f017fd012325
:10340c000b93c36830340700002b04d101000498df
:10341c0006f0ccfe0b903900039806f0fbfe01235e
:10342c00069a0b991a40089b5f1c229b0b43134373
:10343c0009d1392c21d00e9b002b01dd0d9c313490
:10344c00089b1c707fe70e9b002b03db22990b4320
:10345c0013431cd10b9b002bf2dd04990122039822
:10346c0005f0eefd2900049006f0a0fe002802dc19
:10347c00e6d1e307e4d5392ce0d13923089a13704f
:10348c007b1e1a78392a67d001321a705be70b9bc6
:10349c00002b03dd392cf0d00134d1e7089b059ac1
:1034ac001c7001239b1a089a9b180c9a9a423ed0c6
:1034bc0000230a220499039806f06af90a9b0490e7
:1034cc00b34209d100230a220a99039806f060f945
:1034dc000a900600089782e70a9900230a220398ab
:1034ec0006f056f900230a900a223100039806f0e0
:1034fc004ff9eee70a9b0c93059b0a93290004985d
:10350c0004f05cfd0a9b30305f1c18700c9a059b14
:10351c000400fb1a9a4208dd00230a22049903983e
:10352c0006f036f90a970490e8e700230a93049909
:10353c000122039805f084fd2900049006f036fe64
:10354c0000289ddc01d1e3079ad47b1e1a78302a1f
:10355c0000d0f8e61f00f8e7059a9a4205d1029bc5
:10356c000133029331231370ede61f0088e7269a8e
:10357c0005930833002a01d0fff785fafff785fa87
:10358c000c9b002bb8dc229b022b00ddc5e6b3e7bd
:020000040000fa
:10359c00f0b5574645464e46de46e0b50f037f0a6a
:1035ac00450f3d43ac465d004e00cc0f690d8a467d
:1035bc001f03ca49550f83b0c0007f0ad200760d95
:1035cc008046db0f2f4301928a4500d1c0e055465f
:1035dc00751ba9460125ab465d466b409b469c423c
:1035ec0000d190e04d46002d00dcbbe05346002b93
:1035fc0000d1d4e08e4200d19fe280231b041f43f4
:10360c004b46382b00dd64e11f2b00dd16e24946ea
:10361c0020233d005b1a11009a409d40531e9a4195
:10362c004b46a8464d46df406346e9404546db1b0a
:10363c009c460d431543451ba842804163464142bd
:10364c00591a0b0200d41ce149024b0a9846434616
:10365c00002b00d130e1404606f0fefc0300083b95
:10366c00202229004746d21a9f40d1409d400f434b
:10367c009e4200dd1ce19e1b731c1f2b00ddb2e182
:10368c0020222800d21a390095409140d8406a1e59
:10369c00954101430d4339000026d9406b0709d0f1
:1036ac000f232b40042b05d02b1dab42ad416d429b
:1036bc0049191d000b0200d4e6e0721c874b56051d
:1036cc00760d9a4200d1eee0854fed080f40780759
:1036dc00284382467a02120b00211203130b0a0da7
:1036ec0012051a437f4b3605134033435b00e40746
:1036fc005b0823435046190003b03cbc90469946e6
:10370c00a246ab46f0bd4d46002d5bdd5346002b6b
:10371c0000d19ae08e4200d109e180231b041f43a3
:10372c004b46382b00dd6ee11f2b00dca5e1390088
:10373c00203bd9404b46202b05d040234d465b1bec
:10374c009f403a430192019d6f1ebd410d435ee1c6
:10375c0065493d0089461543b144002d2dd09b464b
:10376c009c422fd0494600294ad1604d711c2942f8
:10377c0000d0bde03d00614615430143aa46002e32
:10378c0000d0f8e1002900d1bee1002d00d0fde110
:10379c006346c0085a0702439246d9087de03b00b5
:1037ac00134300d1bbe04b46013b002b00d1bbe1e6
:1037bc00894500d1bbe0994622e701256b409b4629
:1037cc009c42cfd14946002900d0b8e0711c8a46f2
:1037dc00554646490d4245d161460143002e00d065
:1037ec0070e1002900d10de23b00134300d00fe241
:1037fc006346c0085b07184363468246d9084ce011
:10380c005146891b89465c46002e00d0c4e06346b5
:10381c00034300d150e10b00013b002b00d1e8e148
:10382c002e4d9946a94200d0bfe0d2087b071a431f
:10383c009246f90853460b4300d13be28022120317
:10384c000a431203120b254e46e73b00134300d1eb
:10385c007ae14b46013b002b00d121e1894566d032
:10386c0099465de71d4b9a4500d1dee182188242f4
:10387c0089415646674449427918cd075208154389
:10388c0049086b0700d00be74b07ed081d43aa4610
:10389c00b146c908114b9945ccd04b460a035e057d
:1038ac00120b760d18e71600002300229a4613e738
:1038bc000b49f61a3940f1e6280006f0cdfb03005f
:1038cc0018331f2b00dccbe6083885402f00002571
:1038dc00cee63a4315006a1e9541ace6ff070000a0
:1038ec00ffff7fffffff0f8001f8fffffe070000c7
:1038fc006146851acb1ba84289414942884619006a
:10390c004346c91a0b0088461b0200d529e10b005f
:10391c002b439a4600d09ae600210024bde763466b
:10392c00c0085b07184363468246d908b2e7634672
:10393c00c0085b07184363468246d9087ae75346aa
:10394c009b1b9946002e00d189e0d84b9a4500d19b
:10395c00e4e0802361461b0419438c464b46382b0c
:10396c0000dd25e11f2b00dd6ae1494620234e4690
:10397c005b1a6546010098409d40f140431e9841fa
:10398c000d4305436046f0403f18ad189542894100
:10399c004942c91956463fe0c44b9a4500d1bde097
:1039ac00802361461b0419438c464b46382b00dda3
:1039bc00d1e01f2b00dd01e1494620234e465b1a66
:1039cc006546010098409d40f140431e98410d43cf
:1039dc0005436046f0403f1a551baa4289414942b3
:1039ec00791a56462de63a001f3ef2401600202b5f
:1039fc0003d04022d31a9f403d436b1e9d410021b2
:103a0c00354300263de73a4315006a1e95412d18b3
:103a1c0085428041414261440b0200d431e7a34b03
:103a2c0001369e4200d13fe70122a14f6b0839407d
:103a3c0015401d43cb071d4349082fe63900203b99
:103a4c00d9404b46202b05d040234d465b1b9f4055
:103a5c003a430192019d6f1ebd410d43ebe5634658
:103a6c00034329d04b46013b002b00d116e18f4d6f
:103a7c00a94500d1d9e6994670e7494620233d0077
:103a8c005b1a9d4011009a40a8464d46531e9a4120
:103a9c004b46e9404546df400d431543bc44b6e771
:103aac0085188542894167444942791801260b02e1
:103abc0000d4e6e60226b7e7d2087b071a43924603
:103acc00f908e7e6002929d063463e005d07c008e7
:103adc00d90816432843002e00d188e080252d03f9
:103aec00294207d0fe082e4204d15c463100d20890
:103afc0078071043ca00410f1143c0004a07c008a1
:103b0c0010438246c90895e6002d00d104e77807da
:103b1c00d20810438246f9085c46bee67807d20804
:103b2c0010438246f90885e6851a6346a84280410f
:103b3c00df1b4042391a012683e56346c0085a0749
:103b4c0002439246d90875e66346c0085a070243f9
:103b5c009246d9089ee6634603431d00681e8541c4
:103b6c003ae7151a6346aa429241ff1a5242bb1a0f
:103b7c0098465c466be5002932d1002d72d079074e
:103b8c00d2080a439246f9085c4653e66346851a06
:103b9c00d91ba8429b415b42c91a0b024ad5151a84
:103bac006346aa429241ff1a5242b91a5c4675e525
:103bbc00634603431d00681e8541e6e66646203bce
:103bcc00de404b46202b06d0494640235b1a61460b
:103bdc009940084380464546691e8d413543fbe6b6
:103bec006346c0085e07d908002d3fd1304382469a
:103bfc0020e6151a6346aa429241ff1a5242b91a9c
:103c0c0001261ee5d2087b071a439246f90844e6c2
:103c1c008518854289416744494279180b0200d4c2
:103c2c002fe6234b012619402be600235646002293
:103c3c009a4651e52b000b439a4600d16ce620e6e0
:103c4c006646203bde404b46202b06d0494640239f
:103c5c005b1a61469940084380464546691e8d4172
:103c6c00354392e6802100240903e7e506438020d2
:103c7c000003014208d0fd08054205d1d2087f0798
:103c8c003a4316005c462900ca00710f1143f60036
:103c9c004a07f60832439246c908cbe58518954287
:103cac00924167445142791800e7c046ff07000073
:103cbc00ffff7fff0023024e9a461a000ce5c04618
:103ccc00ff070000f8b54746ce460e034d00760ab6
:103cdc00cc0f410f31438946190380b5490a570f60
:103cec005e000f436d0dc000760ddb0fb846d200a1
:103cfc009c4200d1a3e0af1b002f00dc83e0002e20
:103d0c0000d1c1e0c94b9d4200d188e180234146de
:103d1c001b0419438846382f00dd5de11f2f00dda1
:103d2c0007e2202311004646db1b9e40f9409a40d7
:103d3c000e434146531e9a41f9404b465b1a994635
:103d4c003243871ab84280414b464142591a0b0202
:103d5c0000d4d7e049024e0a002e00d12fe13000ea
:103d6c0006f07af90300083b20223900d21a9e4053
:103d7c00d1409f400e439d4200dd1ce15d1b6b1c3e
:103d8c001f2b00ddaae12021c91a3d0030008f4015
:103d9c008840dd40791e8f4131002843d9400025f1
:103dac0007437b0709d00f233b40042b05d03b1d59
:103dbc00bb42bf417f42c9191f000b0200d4a4e0d3
:103dcc006a1c9a4b55056d0d9a4200d1aae0984a8f
:103ddc00ff080a405007384384465202120b002158
:103dec001203130b0a0d12051a43924b2d051340a7
:103dfc002b435b00e4075b082343604619000cbcb3
:103e0c0090469946f8bd002f4cd18b4e691c31421f
:103e1c0000d0e7e04646494616430143b446002d20
:103e2c0000d00ee2002900d1cfe1002e00d010e22c
:103e3c004b46c0085f070743bc46d9086de0ab1b77
:103e4c00002b00dc9ee0002e3ed078498d4200d144
:103e5c00e5e080213e0009040e43b046382b00dd1e
:103e6c004be11f2b00dc81e1190046462039ce4086
:103e7c00202b04d04021cb1a414699400a4317000d
:103e8c007a1e974137433de14346134300d1bde0d1
:103e9c007b1e002b00d1b2e164498f4200d1a7e117
:103eac001f0038e7771b002d00d0efe04946014397
:103ebc0000d177e1791e002900d119e25b4ca742b1
:103ecc0000d14be20f00eae03900114300d1a0e130
:103edc00591e002900d158e1544eb34200d187e15c
:103eec000b00bbe7514b9e4200d132e2821882425a
:103efc00804149463500414440420918cf075208d9
:103f0c00174349087b0700d04de74807ff080743d4
:103f1c00bc46c908454b9d4229d00a036d05120bbe
:103f2c006d0d5ce71500002300229c4657e74b46bd
:103f3c005f07d9084346c00813433843002b00d110
:103f4c00f6e180231b03194208d04546ed081d42bb
:103f5c0004d143462900d20858071043ca00430f26
:103f6c001a43c0005707c0080743bc46d108634634
:103f7c000b4300d112e2802212030a431203120bec
:103f8c002a4d2ce7002b59d12b4b6e1c1e42a9d16c
:103f9c004b460343002d00d00de1002b00d1b2e1c4
:103fac003b00134300d0b5e14b46c0085f073843d4
:103fbc008446d908b1e71e49ed1a3140f1e63800c4
:103fcc0006f04af8030018331f2b00dccce63e0049
:103fdc00083886400027cee6434613431a00571e86
:103fec00ba41aee649464646871a8e1bb84289410d
:103ffc004942761a310200d519e13b0033439c4605
:10400c0000d0a9e600210025002486e74b46c00815
:10401c005b0718434b468446d9083d007ae74b466c
:10402c00c0085f070743bc46d908a0e7ff0700009c
:10403c00ffff7fffffff0f80fe070000731b002dab
:10404c0000d185e0d8498e4200d173e180214d46e4
:10405c0009040d43a946382b00dd0ee11f2b00ddb2
:10406c0084e12021c91a05004f4688408f40411e2b
:10407c0088414946dd40d9402f4307438844bf1847
:10408c009742924151424144350040e0c6498e422c
:10409c0000d1a5e080214c4609040c43a146382fe1
:1040ac0000ddbee01f2f00ddede020210500c91b67
:1040bc004c4688408c40fd40411e884149462c436b
:1040cc002043f9404446611a8846171aba42924175
:1040dc0041465242891a1c00350038e630001f3d1b
:1040ec00e840202b03d04021cb1a9e4037437b1e47
:1040fc009f4100210743002504e7434613431f005b
:10410c007a1e97413f1887428041414249440b0235
:10411c0000d4f7e6a44b01359d4200d103e7a34a36
:10412c007b080a4001210f401f43d3071f4351084e
:10413c0037e63b004646203bde40202f04d0402390
:10414c004146db1b99400a43571eba413243f8e5fe
:10415c004946014300d1f4e0591e002900d115e174
:10416c00914dab4200d1e5e00b0074e72021c91a58
:10417c00160047468a408f40511e8a414146de4018
:10418c00d940374317438944bce7871849468742cf
:10419c009b4141445b42c91801250b0200d4b1e696
:1041ac000225bce74146d208480702439446c90899
:1041bc001c003d00aee6002b00d0b8e63b00d20858
:1041cc007f071743bc46d908d1e6002e00d18ce0fe
:1041dc004146d2084f073a439446c9081c009ce656
:1041ec004146d2084f073a439446c9081c00bee624
:1041fc004b46c0085f0738438446d908b7e6871a90
:10420c004b464246b8428041991a4042091a012550
:10421c009de54a46c008570738438446d1081d001f
:10422c0078e6494601430800471eb8414de7171a86
:10423c0041464846ba42b641091a76428e1b1c00ca
:10424c008ae500292ed1002ecad180210024090331
:10425c0091e649464646871a8e1bb8428941494227
:10426c00711a0e023cd5171a41464846ba42924181
:10427c00091a5242891a1c0093e54b4603431f004e
:10428c00781e8741fbe639004c462039cc40202f64
:10429c0004d040214d46c91b8d402843411e884106
:1042ac00204312e74946c0084d072843c908002e91
:1042bc003ed080252d03294208d04646f7082f42d0
:1042cc0004d11c003900d20870071043ca00430ff8
:1042dc001a43c000c008570738438446d10846e645
:1042ec003b000b439c4600d00ce60021002414e656
:1042fc00171a41464846ba429241091a5242891a43
:10430c001c00012523e53b00d2087f071743bc4660
:10431c00d90802e68718494687429b4141445b42d3
:10432c00c9180b0200d4ede5204b01251940e9e535
:10433c0084461ce63b00d2087f073a439446d908d2
:10434c0015e63900d2087f073a439446c9081d0088
:10435c00e0e50023350000229c4640e54146d208aa
:10436c004f071743bc46c9081c0000e619004d4610
:10437c002039cd40202b04d04021cb1a49469940fe
:10438c0008430700781e87412f4378e68718494673
:10439c0097429b4141445b42c918fde60023024d04
:1043ac009c461a001be5c046ff070000ffff7fff7d
:1043bc00f0b557464e464546de46e0b5814605000b
:1043cc000c03480085b092461f00240b400dce0f05
:1043dc00002800d1ade0864b984200d1c8e06b0fad
:1043ec00e4001c4380231b0423439846814bed00bf
:1043fc009b4600239946834400933c037b00504624
:10440c00240b5b0dff0f002b00d177e0784a934211
:10441c0018d07849420f8c46e40014435946802248
:10442c0063441204cb1a14439b46c2000020330091
:10443c007b409a464b460f2b00d9ede06e499b0012
:10444c00cb589f466d4b52469c462243e344002a70
:10445c0000d0aee0494602231943894600240220cd
:10446c00e5e73e00a04615000090009b022b00d112
:10447c000be2032b00d19de1012b1fd0b246604f04
:10448c005f44002f00dcdae16b0700d00ee2ed0890
:10449c004346db0106d542465a4b80271a409046cc
:1044ac00ff005f44584b9f4224dc43465b071d438f
:1044bc0043467f055c02240b7b0d03e0b2460023d0
:1044cc000024002500212403270b0c0d24053c435c
:1044dc001f054e4b28001c40534627437f00db072b
:1044ec007f081f43390005b03cbc90469946a24654
:1044fc00ab46f0bd3e4b00240025e3e75246224379
:10450c0050d0002c00d18ae1200005f0a5fd02005e
:10451c000b3a1d2301009b1a52460839da408c4095
:10452c00144352468a403a4b58449b4683440020dd
:10453c007de74b46234398462cd0002c00d15ee1fe
:10454c00200005f089fd02000b3a1d239b1a4a46f8
:10455c000100da4008398c4013004d46234398463d
:10456c008d402c4b1b1a9b4600239946009344e725
:10457c004b462343984606d108239946063b002513
:10458c008346009339e70c239946093ba0468346a2
:10459c00009332e70423994600239b460133002500
:1045ac0000932ae749460123194389460024012038
:1045bc003de74a4603231a4391460320524636e709
:1045cc00002380249a4624030025094b7ae7802394
:1045dc0041461b03194200d1ece01c4200d0e9e03b
:1045ec001c432403240bba461500014b6ae7c04652
:1045fc00ff07000001fcffffe49f000001f8ffff34
:10460c00ff030000fffffffefe070000ffff0f800f
:10461c00f30300000dfcffff444500d2d6e000d1af
:10462c00d1e001235b429c462e0040460025e3442a
:10463c00130e24021c431302994623041b0c210c59
:10464c000093019103f0ccfd009a0b044243310c12
:10465c00070019438a4207d90919013f8c4203d834
:10466c008a4201d9871e0919881a019903f0b8fded
:10467c0009048c4631046646009a090c4243030037
:10468c0031438a4204d90919013b8c4200d807e115
:10469c003f041f43891a4b464a461e0c1204380c21
:1046ac000296160c3200039646433b04b84637007c
:1046bc00029e1b0c5a4373437043db19160cf618fd
:1046cc00b74203d980235b029c466044330c12042e
:1046dc003604120c1818b618814200d280e07cd037
:1046ec00ae1b091ab54280419b4f4042081a5f44e9
:1046fc00844200d1fde0019903f072fd009a0b0495
:10470c004243310c050019438a4207d90919013d6e
:10471c008c4203d88a4201d9851e0919881a01993d
:10472c0003f05efd09048c4631046646009a090cc0
:10473c004243030031438a4207d90919013b8c4299
:10474c0003d88a4201d9831e0919039e2d041d43e7
:10475c003300891a2a04120c53430093029b280c31
:10476c0046435a435843009b92191b0c9c46624487
:10477c00964203d980235b029c466044009b160c36
:10478c001b0412041b0c3018d218814206d302d021
:10479c0001231d4375e6002a00d172e661186b1ed9
:1047ac00a14200d290e0814200d2a8e000d1cfe03b
:1047bc001d00ede78024434624031c432403240bf3
:1047cc00b246664b7ee6aa4200d92ae74346de078c
:1047dc0058086b081e43ed072ae7b54200d37fe764
:1047ec0043464d445a1e4d459b415b421b19c9180b
:1047fc008c424fd2884271d86ed0904670e74846b2
:10480c0005f02afc03001a00153220301c2a00dcab
:10481c009be64a46083b9a4000259046a1e605f0e7
:10482c001bfc03001a00153220301c2a00dc70e639
:10483c005446083b00229c4075e601256d4201213f
:10484c00c91b382900dd3ae61f2962dc2a004346e1
:10485c004348ca4058448340854013436a1e9541df
:10486c0044462b43cc405a0709d00f221a40042a45
:10487c0005d01a1d9a429b415b42e4181300220298
:10488c005fd50123002400251ce6b246334b0024df
:10489c00002517e68c42b0d1a945abd990461fe74d
:1048ac008a4200d8f4e6831e0919f1e60f232b4047
:1048bc00042b00d1ebe505235b42ab429b41043555
:1048cc005b42ed089844e3e51d00814200d05fe7b0
:1048dc00914500d05ce7d4e5ae428ed902234d441d
:1048ec005b429c464d459b415b421b19e044c918f9
:1048fc00f6e6002fa1dd012300259844c8e54b46c0
:10490c005e004e459b415b421c19023d0919b146a4
:10491c00dbe71f2243465242d71bfb40202904d021
:10492c00444610485844844025436a1e95412b4305
:10493c00072500241d4007d00f2200241a40042a0a
:10494c0097d165076402240bdb081d430023b9e5ee
:10495c009145d4d31d00bbe7ff030000ff07000007
:08496c001e0400003e040000df
:020000040000fa
:10497400f0b595b00c00079208931a9d069005f0c7
:10498400affe036818000d9305f086fe237e0e909b
:104994000a93236807220c930c992b68c9054bd5fd
:1049a4009b1893431a0008322a601a685b68a26451
:1049b400e364a36c01221e00e76c0b937d006d0879
:1049c4005242ae4b3000290005f0befb002835d121
:1049d4000122aa4b52423000290004f03bff002878
:1049e4002cd1002200230b98390004f029ff002861
:1049f40003d023002d2243331a70a14b09930a9b41
:104a0400472b02d9099b04330993032300270c9aeb
:104a1400236101339a4322600b97089b12aa0093e7
:104a24002100079b069803f037ff431c00d018e1d0
:104a34000120404215b0f0bd0733b2e70b9a3b00aa
:104a44000b98390005f080fb002808d08c4b1a0025
:104a5400083209920a9a472ad7d90c33d4e720227c
:104a64000a9d636895435a1c00d083e00733636052
:104a740080230c9adb0013430022236066680f92a4
:104a8400974205da802109067b181f002d230f9316
:104a94000322462d05d02b00453b59424b41013a98
:104aa400f61812ab049311ab039310ab029300926c
:104ab40001960b9a3b000698fdf79eff0990472d3f
:104ac40060d10c9bdb075dd4129b099a9f1a109b43
:104ad400472d00d084e0da1c03db62689a4200dbd5
:104ae400aee00a9a023ad2b20a9222000a995032ed
:104af4005d1e0b92117010952b22002d02da0125f8
:104b04000232ed1a230051331a70092d00dc82e0c1
:104b140027260aabf618731e0a2128000c9302f00c
:104b240073fe731e3031197028000a2102f086fdcd
:104b3400632d68dc23002722023e30300aa930703e
:104b4400523352181900964260d30b9bcb1a0b9325
:104b5400fb182361012f02dc2268d20701d501333f
:104b640023610f9b002b00d157e723002d224333f1
:104b74001a7052e7472d00d07ae7002b00d077e770
:104b8400013374e7099b9b190c93462d13d1099ba0
:104b94001b78302b0ad1002200230b98390004f033
:104ba40049fe002802d101239e1b1096109a0c9beb
:104bb400944663440c93002200230b98390004f0bc
:104bc40039fe002801d00c9b1293129b302203e083
:104bd400591c12911a70129b0c999942f8d873e7d8
:104be4000a9a652a81d90a9a662a2bd16268002b0f
:104bf4001add2361002a02d12168c9071cd50132bc
:104c0400d218226118e00c9e050084e73178013641
:104c14001970013396e73022230021005233ad1876
:104c24001a7054315d7090e7002a03d10121206885
:104c3400084200d0911c2161a36500230b9390e7e7
:104c440067220a92bb4205db22682361d207f3d5af
:104c54005a1cd6e70122002b01dc9218d21ad21971
:104c6400cfe7226853050dd42369099a079906985a
:104c7400089da847431c2ed1dae6c046ffffef7f0c
:104c84009c9e00000a9b652b00d8cfe0a06ce16cd1
:104c94000022002304f0cefd002833d08c4a0123e7
:104ca400103207990698089da847431c00d1bfe617
:104cb400109bbb4202db2368db070cd5089d0e9bcf
:104cc4000d9a07990698a8470025431c00d1afe622
:104cd4007b1eab420adc23689b0700d5f6e0129bdf
:104ce400e068984200dba5e61800a3e62200012351
:104cf4001a3207990698089eb047431c00d197e6dc
:104d04000135e5e7109b002b2bdc714a012310329f
:104d140007990698089da847431c00d188e6109b74
:104d24003b4302d12368db07d5d5089d0e9b0d9a22
:104d340007990698a8470025431c00d178e6109be4
:104d44005b42ab4201dc3b008fe7220001231a32b5
:104d540007990698089eb047431c00d168e60135c0
:104d6400ede7a66dbe4200dd3e00002e08dd3300f7
:104d7400099a07990698089da847431c00d157e64d
:104d840000230a93f343db170b930ce02200012367
:104d94001a3207990698089da847431c00d147e694
:104da4000a9b01330a930b9ba56d0a9a3340eb1ab5
:104db4009342ebdc109bbb4219db2368db0716d460
:104dc400109bfe1a9d4200db7e1b002e09dd099b11
:104dd40007995a1906983300089da847431c00d127
:104de40026e600230993f343db170a9315e00e9b91
:104df4000d9a07990698089eb047431ce0d117e620
:104e0400220001231a3207990698089da847431cdb
:104e140000d10de6099b01330993109b0a9afb1af2
:104e240032409b1a099a9342eadc54e7012f02dcd0
:104e340001231a4237d00123099a07990698089d3d
:104e4400a847431c00d1f3e50e9b0d9a07990698d9
:104e5400089da847431c00d1eae5a06ce16c002240
:104e640000237e1e04f0e6fc00281ad13300099ac0
:104e7400013207990698089da847431c0dd1d7e530
:104e8400220001231a3207990698089fb847431c49
:104e940000d1cde50135ae42f2dc22000b9b50324d
:104ea400e4e60025f7e7099ae3e722000123193233
:104eb40007990698089eb047431c00d1b8e5013510
:104ec400e368129a9b1aab42efdc08e70025f7e788
:044ed4009c9e0000a0
:020000040000fa
:104ed800f0b557464e464546de46e0b50c0306009b
:104ee800480087b092469846240b400dcf0f002803
:104ef80000d178e07b4b984200d190e0730fe4003a
:104f08001c438023784a1b041c43944603006344d3
:104f18000093002399469b46f500434642461e03ec
:104f2800d20f5b005046360b5b0d904600d180e0f7
:104f38006c4a93421dd06c49420f8c4600996344d9
:104f4800f6008c46164380229c441204634616439e
:104f5800c200002000930099434601318c4649461f
:104f68007b4001930f2900d9c6e0604b890059584e
:104f78008f465c4952468c46009b324363440093fb
:104f8800002a00d08de049460223194389460026ad
:104f98000220e0e7434601933400150083465b4650
:104fa800022b64d0032b00d1f1e1012b00d05ee18c
:104fb80000220026002500213603340b0e0d36058d
:104fc80026434b4c120534401443019b6400db0715
:104fd80064081c432800210007b03cbc9046994651
:104fe800a246ab46f0bd2500354352d0002c00d177
:104ff80076e1200005f032f802000b3a1d2301008b
:105008009b1a3200350008398c40da408d40144331
:10501800384b1b1a0093002399469b467de73500c1
:1050280025432fd108239946063b002400909b4630
:1050380073e7524632431ed0002e00d142e13000c1
:1050480005f00cf802000b3a1d2301009b1a52468a
:105058000839da408e40164352468a40009b25495b
:10506800181a03008c4663440093002073e71d4a16
:10507800002600259fe74946012319438946002653
:10508800012068e70c239946093b350000909b46b0
:1050980043e70423994600230093013300249b46e9
:1050a8003be74a4603231a4391460320524652e7f8
:1050b800019774e700238026019336030025094ae7
:1050c80079e780231b031c4200d1f3e01e4200d085
:1050d800f0e01e43434636031500360b0193014aa0
:1050e80069e7c046ff07000001fcffff24a000009d
:1050f800ffff0f800dfcffff2f0c2d042d0c2b0044
:10510800110c1204120c53439846130028007b43d9
:10511800994648434844834640460b00000c824663
:1051280058467b4350440293814506d99a468023ca
:105138005b029946ca4453460293030c9b46434676
:105148001b0400041b0c9846030043440493330ccf
:1051580099462b003604360c7343984633007b433c
:105168009a464b465d435f4343465544180c4019e5
:10517800824503d980235b029a465744050ceb19f4
:10518800059343461d042d0c00044019250c2404e6
:10519800240c270057436a4390462a003b0c9a4642
:1051a8004a436143414451448344884503d9802399
:1051b8005b02984642443f040b0c3f0c0904c91992
:1051c800270098464b4677435c436e435d433b0c50
:1051d8009946a4194c4442440395a64204d9802315
:1051e8005b02984645440395029b3f045b441e00be
:1051f8008342804123049846059b3f0c47449846c8
:1052080076188e428941474440423d18a846494293
:1052180093468a46c344da449f42bf418045804151
:10522800039b934592418a4589419846534640429b
:105238007f420743240c524249420a433c19a418ae
:10524800da0d049b75021d43681e8541534644448c
:105258006402f60d144335435a021543e30173d52e
:1052680001216a080d401543e207154364084b4abb
:105278006244002a43dd6b0709d00f212940042925
:1052880005d0291da942ad416d4264190d00e30105
:1052980004d5434a14408022d200624441498a42dc
:1052a80000dde4e66107ed08640252050d43260bb4
:1052b800520d80e68026360326433603360b0197c7
:1052c800394a78e604f0cafe03001a001532203085
:1052d8001c2a00dcb8e65646083b00229e40bde684
:1052e800300004f0bbfe03001a00153220301c2adf
:1052f80000dc83e63400083b00259c4088e6012159
:10530800891a382900dd53e61f2920dc27482200a6
:1053180060442e0085408240ce40681e854132435d
:105328002a43cc40530709d00f211140042905d046
:10533800111d914292415242a4180a0023021fd51e
:1053480001220026002536e6009b9c468fe71f2099
:105358004042821a2000d040202903d0144a6244d7
:10536800944025436a1e95412a00072502431540ab
:105378000026002d07d00f21002411400429d7d181
:1053880065076402260bd2081543002213e680261f
:10539800360326433603360b034a0ce6ff030000a8
:1053a800fffffffefe070000ff0700001e040000cd
:0453b8003e040000af
:020000040000fa
:1053bc00de0e0000ce0d00000c100000b41000003a
:1053cc00b4100000de110000ce120000a413000087
:1053dc00a41400009c150000ee16000066170000d7
:1053ec005e0d0000c60d0000ee2100003c22000006
:1053fc003c2200003c220000e22100003c22000084
:10540c003c2200003c220000c62100003c2200008f
:10541c003c2200003c2200003c2200003c22000008
:10542c003c2200003c2200003c2200003c220000f8
:10543c003c2200003c2200003c2200003c220000e8
:10544c003c2200003c2200003c2200003c220000d8
:10545c003c2200003c2200003c2200003c220000c8
:10546c003c2200003c2200003c2200003c220000b8
:10547c003c2200003c2200003c2200003c220000a8
:10548c003c2200003c2200003c2200003c22000098
:10549c003c2200003c2200003c2200003c22000088
:1054ac003c2200003c2200003c2200003c22000078
:1054bc003c2200003c2200003c2200003c22000068
:1054cc003c2200003c2200003c2200003c22000058
:1054dc003c2200003c2200003c2200003c22000048
:1054ec003c2200003c220000622100003c22000013
:1054fc003c2200003c2200002a2200003c2200003a
:10550c003c2200003c2200001c2200003c22000037
:10551c003c2200003c2200002a2200003c22000019
:10552c003c2200003c2200000e2200003c22000025
:10553c003c2200003c2200002a2200003c220000f9
:10554c003c2200003c220000002200003c22000013
:10555c003c2200003c2200002a2200001a240000f9
:10556c003824000038240000382400000e240000e9
:10557c003824000038240000382400002c240000bb
:10558c00382400003824000038240000382400009f
:10559c00382400003824000038240000382400008f
:1055ac00382400003824000038240000382400007f
:1055bc00382400003824000038240000382400006f
:1055cc00382400003824000038240000382400005f
:1055dc00382400003824000038240000382400004f
:1055ec00382400003824000038240000382400003f
:1055fc00382400003824000038240000382400002f
:10560c00382400003824000038240000382400001e
:10561c00382400003824000038240000382400000e
:10562c0038240000382400003824000038240000fe
:10563c0038240000382400003824000038240000ee
:10564c0038240000382400003824000038240000de
:10565c00382400003824000038240000b223000055
:10566c0038240000382400003824000000240000f6
:10567c00382400003824000038240000ee230000f9
:10568c00382400003824000038240000ee230000e9
:10569c003824000038240000382400007223000055
:1056ac003824000038240000382400007223000045
:1056bc00382400003824000038240000ee230000b9
:1056cc00382400003824000038240000ee230000a9
:1056dc002a260000b0250000b0250000b0250000ef
:1056ec001e260000b0250000b0250000b0250000eb
:1056fc0012260000b0250000b0250000b0250000e7
:10570c00b0250000b0250000b0250000b025000039
:10571c00b0250000b0250000b0250000b025000029
:10572c00b0250000b0250000b0250000b025000019
:10573c00b0250000b0250000b0250000b025000009
:10574c00b0250000b0250000b0250000b0250000f9
:10575c00b0250000b0250000b0250000b0250000e9
:10576c00b0250000b0250000b0250000b0250000d9
:10577c00b0250000b0250000b0250000b0250000c9
:10578c00b0250000b0250000b0250000b0250000b9
:10579c00b0250000b0250000b0250000b0250000a9
:1057ac00b0250000b0250000b0250000b025000099
:1057bc00b0250000b0250000b0250000b025000089
:1057cc00b0250000b0250000b0250000b025000079
:1057dc00b0250000b0250000b0250000b025000069
:1057ec0072250000b0250000b0250000b025000097
:1057fc0072250000b0250000b0250000b025000087
:10580c0004260000b0250000b0250000b0250000e3
:10581c00f0250000b0250000b0250000b0250000e8
:10582c00f0250000b0250000b0250000b0250000d8
:10583c00f0250000b0250000b0250000b0250000c8
:10584c00f025000004040110204080020108080229
:0c585c000400000001000200060008002b
:020000040000fa
:10586800002330b50f4c104aa361e36183331376ec
:1058780053680e4d2b405360d369002bfcd1400078
:1058880000290ad003222033e2541f3b1843064a5a
:105898005062d369002bfcd130bd20230422e2548e
:1058a800f5e7c04680050020000c0042fffffbff23
:1058b8000123114a1360d369002bfcd10133ff3354
:1058c80053600d4ad369002bfcd10c4bd3600c4bb1
:1058d8001360094ad369002bfcd110335383064a5d
:1058e800d369002bfcd1212006490b5401380b54f5
:1058f800833393757047c046000c00420b160000b6
:10590800160010018005002070b50c00002851d049
:105918000568002950d0080003f082fe061c6b00c1
:105928009c4247d3304b9d4244d8280003f078fe70
:10593800011c301c01f046f92c49041c301c01f0f4
:1059480059fa2b4900f0fcfc011c201c00f054fb08
:1059580004f07cfc274b06009d4230d8ff23ff2033
:105968005b009e4203d8fe38012e00d97008214af8
:105978000224aa429241204b51421a68a2431a605b
:10598800da69002afcd1d8601a681c4810400a0657
:10599800022102431a601a680a431a60164ad36938
:1059a800002bfcd110335383134ad369002bfcd14d
:1059b800012000e0002070bd114e124cafe77e239d
:1059c800ff33984203d8032803d80f48cfe70f487e
:1059d800cde70321400002f07ffb032104023000e1
:1059e80002f07afb2043c2e740420f0095bfd6334e
:1059f80000002041801a0600000c0042fffffffc57
:105a0800001b374c006cdc02010200007fff000025
:105a1800014b5862996270478005002070b52024b8
:105a28000a4b1d5d0024002d0dd15a610122d96059
:105a38009a70012120329c601c611c709c549880d3
:105a4800fff70eff0134200070bdc046800500201e
:105a580070b52024094b1d5d0024002d0cd11a615e
:105a6800212299600021dc605c619c701c709c5450
:105a78009880fff7f5fe0134200070bd80050020f6
:105a880070b520250a4c665d0025002e0dd1e36017
